:020000002528B1
:10000800803120007F08F5008B1C22287A085A20AE
:10001800F2007208FA000C3020000C05F2007A0891
:10002800F3000230F335890B162830307305F400DD
:100038007A080339740472048C008B107508FF0069
:1000480009002628F801F9016620FA002000642832
:10005800FC30210099051908873970389900230068
:100068008C010C3021008C007A08F6000230F6353D
:10007800890B3B2830307605F7007A080339770476
:1000880020008C0021001D1015130B168B1708007B
:10009800F1007135F0007008F1002000831C582829
:1000A8000130F0007008F10771080800F10071369E
:1000B800F0007008F10020000318F115710808001D
:0600C8002C206528033422
:020000040001F9
:04000E0084C9FFD9C9
:00000001FF
