:020000002528B1
:10000800803120007F08F5008B1C22287808892081
:10001800F2007208F8000C3020000C05F200780895
:10002800F3000230F335890B162830307305F400DD
:1000380078080339740472048C008B107508FF006B
:1000480009002628F601F7019320F80020002C2843
:100058004E2078086E202000A2002208F8000C30FC
:100068000C05A2007808A3000230A335890B3928B3
:1000780030302305A40078080339240422048C00B6
:100088000B30A3006230A200A20B4828A30B48281B
:1000980000002D28FC30210099051908873970388F
:1000A800990023008C010C3021008C007808200076
:1000B800A0000230A035890B5E2830302005A10051
:1000C8007808033921048C0021001D1015130B1624
:1000D8008B1308002000A1002135A0002008A100F2
:1000E800211E7A280130A0002008A1072108080055
:1000F800F1007135F0007008F100711E8728013099
:10010800F0007008F10771080800F1007136F0007E
:100118007008F10020000318F11571080800033475
:020000040001F9
:04000E0084C9FFD9C9
:00000001FF
