:040000000128FE2FA6
:100E9000723021009900950123008C01EC30210073
:100EA0008C0024008C01103020008C001A30F100DE
:100EB000F830F000F00B5A2FF10B5A2F00002000F1
:100EC0008C1E5F2F0D30F100FB30F000F00B662F11
:100ED000F10B662F003220008C1E5F2F0C128C1439
:100EE0000430F2000C30F1003530F000F00B762FBA
:100EF000F10B762FF20B762F003220008C1004308D
:100F0000F2000C30F1003530F000F00B852FF10BC2
:100F1000852FF20B852F003220008C140430F20054
:100F20000C30F1003530F000F00B942FF10B942FC2
:100F3000F20B942F003220008C100430F2000C30A1
:100F4000F1003530F000F00BA32FF10BA32FF20BC3
:100F5000A32F003220008C140430F2000C30F1007A
:100F60003530F000F00BB22FF10BB22FF20BB22F95
:100F7000003220008C100430F2000C30F1003530CB
:100F8000F000F00BC12FF10BC12FF20BC12F00327B
:100F900020008C140430F2000C30F1003530F000E9
:100FA000F00BD02FF10BD02FF20BD02F00322000FE
:100FB0008C100430F2000C30F1003530F000F00BF2
:100FC000DF2FF10BDF2FF20BDF2F003220008C1A06
:100FD000EB2F1030EC2F23308C008C1AED2F0D30BE
:100FE000F100FB30F000F00BF32FF10BF32F003288
:100FF00020008C1AED2F10308C005F2F2000482F1E
:020000040001F9
:04000E0084CFFFDAC2
:00000001FF
