:020000000D28C9
:10000800803120007F08F000F32170082000FF00F5
:1000180009000E28FB01FC01B701B801B901BA01BA
:10002800BB01BC01BD01BE01BF01C0011523C10058
:100038001623C2001723C3001823C40020008A28EF
:1000480020002A08C0002908BF000430F100003051
:10005800F200E12138302000BB000030BC003B0832
:10006800822139308221143082210F302000250569
:10007800AB0000302605AC0070302B04B000003017
:100088002C04B1003008822120002608AC00250885
:10009800AB000430AD002C0DAC0CAB0CAD0B4F28F5
:1000A80003302B05AE0000302C05AF0050302E0475
:1000B800B00000302F04B10023032404031D6A2874
:1000C80008303004B00000303104B10027032804A0
:1000D800031D742804303004B00000303104B1002E
:1000E8003108BA003008B900300882216C3082210A
:1000F8001430F1000030F200E12120003B08822199
:100108000C308221063082219D21080072302100A6
:100118009900950123008C01063021008C002400F1
:100128008C0120008C010C120630B4001330B3008F
:10013800B130B200B20B9E28B30B9E28B40B9E2898
:10014800003220000C160630B4001330B300B13072
:10015800B200B20BAD28B30BAD28B40BAD280032FA
:100168002000B501B6010130F1000030F200B721DE
:1001780000302000A300A4002030A5000030A60015
:100188000130A7000030A8000830A9000030AA00FC
:10019800242020000C1AD4280130B5070030B63DC1
:1001A8000030A300A4000030A500A600CF21003035
:1001B800F9008330FA00222100302000A300A400B7
:1001C8000130A5000030A600CF2120003508303EC0
:1001D8006721CD28FB01FC010530052224001614F7
:1001E800053005227B037C04031DFF28FF30F30044
:1001F800FF30F400080001302000B7000030B800DC
:100208007335750724009100200037083804031D52
:1002180008297B037C04031D1629FF30F300FF30F7
:10022800F40008002400160E890C890C0139F70027
:10023800F8017708F3007808F40008003E30F3006E
:100248000030F4000030F500F600EE2074082000BD
:10025800A2007308A10021082204031D4829403088
:100268004A21790884007A08850012000319482970
:10027800790884007A08850000084A210130F907C6
:100288000030FA3D1023352909230800F300FB014B
:10029800FC01053005227B037C04031908000130AA
:1002A8002000B7000030B800730824009100200037
:1002B80037083804031D5B297B037C0403190800F5
:1002C8002400160808002000A0003E30F30000308B
:1002D800F4000030F500F600EE2074082000A200BB
:1002E8007308A10021082204031D7F29C0304A2178
:1002F800200020084A210923102308002000A0001C
:100308003E30F3000030F4000030F500F600EE2037
:1003180074082000A2007308A10021082204031D0C
:100328009A2980304A21200020084A2109231023D5
:100338000800013082210330FA00DA30F900F90BA5
:10034800A329FA0BA3290000023082210330FA0006
:10035800DA30F900F90BAE29FA0BAE2900002000BB
:10036800BD01BE01080080302400940028309500AB
:1003780071087204031DC32913309200C629043082
:10038800920094132100911592150B178B172000DA
:1003980091119211080020004408AA004308A900FE
:1003A8004208A8004108A7002535273E8600870196
:1003B800010823078038822108001A30F400F83039
:1003C800F300F30BE529F40BE52900000130F102F5
:1003D8000030F23B7108720403190800E12920007B
:1003E800911DFD2937033804031DFC29B701B80105
:1003F8009111921D08000130FB000030FC009211A1
:100408000800F200720824001405F10016081F39CC
:08041800710403190800062A13
:100600002D344A345034373446344B3446342D3448
:100610000034FB01FC0105300522240016150800FA
:100620001130F100F10B122B08000034003440347B
:02063000003494
:020000040001F9
:04000E0084CFFFDAC2
:00000001FF
