:0400000080313028F3
:10000800803120007F08F000911F2D28FF309700D5
:10001800053096000130A0070030A13D03302102D1
:10002800E83003192002031C2C287B0A031D25280D
:100038007C0A031D2528823105228031FB01FC0141
:1000480029280130FB070030FC3D2000A001A10158
:1000580091137008FF00090080313228FB01FC0170
:10006800A001A10120008031C128383080318B20C7
:1000780080310230F400F40B3F28393080318B2076
:1000880080310230F400F40B4728143080318B2083
:1000980080310230F400F40B4F28703080318B200F
:1000A80080310230F400F40B5728563080318B2011
:1000B80080310230F400F40B5F286C3080318B20E3
:1000C80080314130F500EE30F400F40B6928F50B6F
:1000D80069280000383080318B2080310230F400EC
:1000E800F40B74280C3080318B2080310230F400FE
:1000F800F40B7C28013080318B208031A630F4004D
:10010800F40B84280000803080318B200800F20036
:100118000730F1007108F300F31BBF2821008C1190
:100128007208F100730A9928F136890B9828711C16
:10013800A02821000C16A22821000C127208F10038
:10014800730AA728F136890BA628711CAD280C164E
:10015800AE280C1221008C15813153218031003AD0
:100168000319B828013008000000FF30F1007108B9
:10017800F307F31F922800300800813126218031CF
:10018800F6017C308031FB2080318031392080318C
:10019800C03080318B2080310030F5008230F6008D
:1001A8000430FA007A08F7008031E0208031C0304E
:1001B80080318B208031CC28770803190800750816
:1001C800840076088500000881313B218031F800E1
:1001D8007808F900790A031908007908031D08004E
:1001E8000130F5070030F63D0130F702E028F8004D
:1001F80081315E2180317608F7007708F4007808AD
:10020800813148218031813111218031003A03192F
:100218000F29013008000030080021008C110C164D
:10022800000021008C15003020000C1A0130F1006C
:10023800813153218131003A03192429FF30080004
:10024800710808005A302100990020008C01210013
:100258008C0123008C01FB01FC012000A001A101FD
:10026800FF309700053096000B178B170800F40035
:10027800740880318B208131003A03194529FF30F9
:100288000800813111210800F500740803194E296E
:1002980001304F290030750480318B200800200080
:1002A8008C195C29003220008C195C290130080067
:1002B8000030080021008C110C1621008C1500005C
:0802C80021000C1200000800E7
:1004000074346534733474340034200018100800D8
:020000040001F9
:04000E00C4CFFFFA62
:00000001FF
