:040000003FEF00F0DE
:10000800FACF47F0FBCF48F0E9CF49F0EACF4AF002
:10001800E1CF4BF0E2CF4CF0D9CF4DF0DACF4EF034
:10002800F3CF4FF0F4CF50F0F6CF51F0F7CF52F0B6
:10003800F8CF53F0F5CF54F0D6EC05F054C0F5FFE7
:1000480053C0F8FF52C0F7FF51C0F6FF50C0F4FF8D
:100058004FC0F3FF4EC0DAFF4DC0D9FF4CC0E2FFDE
:100068004BC0E1FF4AC0EAFF49C0E9FF48C0FBFFB7
:0A00780047C0FAFF11007AEF10F004
:1003000000D3034803A5037C0305010906A10105E9
:100310000719E029E7150025017501950881029567
:1003200001750881039505750105081901290591D5
:10033000029501750391039506750815002565055D
:1003400007190029658100C034034D00690063006E
:1003500072006F00630068006900700020005400A4
:100360006500630068006E006F006C006F0067003E
:100370007900200049006E0063002E000902290068
:10038000010100C03209040000020301010009213B
:1003900011010001223F0007058103080001070544
:1003A00001030800011C034B006500790062006F27
:1003B000006100720064002000440065006D006F61
:1003C000001201000200000008D8045500010001DD
:1003D000020001040309040002012205D8A412D07E
:1003E000020120511F0B0009D8A40CD0258E030E4A
:1003F00002012119D8A402D0010E01D0000E000183
:100400007B6F00D002012251D8A4120002012051BA
:100410001F0B020AD8A41200020124510F0B00097D
:10042000D8B41200020124510F0B3F6E020E3F6040
:100430001200200E00017F19D8A41200258E02019F
:1004400024BF1BD0020124510F0B3F6E3F50020D01
:100450000D0EF324D96E000EF420DA6EDECF43F0D9
:10046000DDCF44F0020124510F0B3F6E3F50010DD0
:10047000170EF324D96E000E1AD0020124510F0B6F
:100480003F6E3F50020D090EF324D96E000EF4208A
:10049000DA6EDECF43F0DDCF44F0020124510F0BC2
:1004A0003F6E3F50010D150EF324D96E000EF4205F
:1004B000DA6EDF50426E00D042B006D0FB0E43141D
:1004C000436EFF0E441404D0040E4310436E445098
:1004D000446E00D0020124BF0BD0020124510F0B47
:1004E0003F6E3F50020D0D0EF324D96E000E0AD060
:1004F000020124510F0B3F6E3F50020D090EF324F1
:10050000D96E000EF420DA6E43C0DEFF44C0DDFF7A
:1005100000D0030E02012119D8A42FD043C0D9FF67
:1005200044C0DAFFDFAE1CD0020124BF0BD00201B1
:1005300024510F0B3F6E3F50010D170EF324D96E5F
:10054000000E0AD0020124510F0B3F6E3F50010DE7
:10055000150EF324D96E000EF420DA6EDF8200D07F
:1005600043C0D9FF44C0DAFF000EDB8443C0D9FF8B
:1005700044C0DAFF000EDB8E1200040E4318436EF7
:100580004450446E43C0D9FF44C0DAFFDFAE1BD0F5
:1005900043C0D9FF44C0DAFF7F0EDF1643C0D9FF46
:1005A00044C0DAFF000EDB8C000E386E050E376E8D
:1005B00043C039F044C03AF0000E3C6E020E3B6E70
:1005C000B2EC0CF007D043C0D9FF44C0DAFF000EF4
:1005D000DB8C00D0040E4318436E4450446E42B28C
:1005E00006D043C0D9FF44C0DAFFDFAE31D00201EC
:1005F00024BF0BD0020124510F0B3F6E3F50010D61
:10060000170EF324D96E000E0AD0020124510F0BED
:100610003F6E3F50010D150EF324D96E000EF420ED
:10062000DA6EDF9200D043C0D9FF44C0DAFF3B0E40
:10063000DF16000E386E050E376E43C039F044C029
:100640003AF0000E3C6E020E3B6EB2EC0CF007D09E
:1006500043C0D9FF44C0DAFF3B0EDF1600D00201D1
:1006600024510F0B3F6E3F50010D530EF324406E8B
:100670000F0EF420416E40C0D9FF41C0DAFFFE0EDC
:10068000DF1612001200200E00017F6102D012005E
:10069000120064A20AD0010E08EC10F0120005D07E
:1006A00013C072F014C073F000D01350000172191F
:1006B000F7E1145000017319D8A4F2D774C090F078
:1006C00075C091F00001901F911F904B912B00017C
:1006D0007251000190250001936F000173510001D8
:1006E00091210001946F000194AF1BD074C090F071
:1006F00075C091F00001901F911F904B912B00014C
:100700007251000190270001735100019123FF0EE7
:10071000000190250001936F7F0E000191210001DF
:10072000946F000194BF12D0890E0001935D130EE7
:1007300000019459D8A00AD0780E0001722500015A
:10074000746FEC0E000173210001756F0001685198
:1007500000016911D8B407D068C0D9FF69C0DAFFB9
:100760000001DFBE96D0400E0001856F020E000131
:10077000866F000E0001886F000E876F000E00016B
:100780008A6F080E896FD5EC0FF0010E08EC10F09F
:10079000E806D8A414D000016D51D8A413D0010EDE
:1007A00000016D6F6CC042F200016C2B280E00013D
:1007B0006C19D8A407D0040E00016C6F03D0000E92
:1007C00000016D6F000E0001926F000E0001956F29
:1007D000070E0001956501D01DD000019551010D56
:1007E000400EF324D96E020EF420DA6E000195510A
:1007F000010D600EF324E16E000EF420E26EDE5077
:10080000E618D8B404D0010E0001926F03D00001A5
:10081000952BDED70001765100017711D8B414D0A2
:10082000000176510001935D00019451800A00019E
:10083000906F00017751800A00019059D8A004D030
:10084000010E0001926F00D000019205D8A421D0C2
:1008500022EE40F010EE60F0070EDBCFE3FFE8067B
:10086000FCE2010E0001856F400E0001866F020E52
:100870000001876F080E0001886F010E7FEC06F003
:1008800085C068F086C069F072C074F073C075F0FE
:1008900000D000016A5100016B11D8B407D06AC0C2
:1008A000D9FF6BC0DAFF0001DFBE1200B2EC10F01E
:1008B000000E0001856F480E0001866F020E0001D8
:1008C000876F010E0001886F010E7FEC06F085C076
:1008D0006AF086C06BF012001200A094000E0F01A7
:1008E0005F6F000E626E000E0F01536F540E000119
:1008F000856F0F0E0001866F000E0001886F000EDD
:10090000876F000E00018A6F010E896FD5EC0FF022
:10091000160E616E9F0E0F015B6F7B0E606E000EF8
:1009200000018D6F10D013D000018D51040D000E09
:10093000F324D96E020EF420DA6EDE6ADE6ADE6A15
:10094000DD6A00018D2B070E00018D65EDD7648CEB
:10095000000E0F015C6F6498649C00D06296000EDC
:10096000256E000E046E000E066E000E056E62B659
:10097000F5D7010E0001806F010E0001816F000E9E
:1009800000017D6F000E00017E6F000E00017C6F84
:10099000000E00018D6F010E00018D6501D033D076
:1009A00000018D51020D090EF324D96E000EF420C2
:1009B000DA6E000EDE6E000EDD6E00018D51020D4E
:1009C0000D0EF324D96E000EF420DA6E000EDE6EEA
:1009D000000EDD6E00018D51010D150EF324D96E50
:1009E000000EF420DA6E000EDF6E00018D51010D55
:1009F000170EF324D96E000EF420DA6E000EDF6EAF
:100A000000018D2BC8D7080E096E020E0A6E160E55
:100A10000F01536F020E0201036F200E026F080ECA
:100A20000201016F040E0201006F0201008F000E2F
:100A3000286E000E00016E6F000E6F6F000E706F5B
:100A4000000E716F000E0001826F000E00017F6FBB
:100A50001200A094000E0F015F6F000E626E000E78
:100A60000F01536F540E2B6E0F0E2C6E000E2E6E58
:100A7000000E2D6E000E306E010E2F6E38EC10F051
:100A8000160E616E9F0E0F015B6F7B0E606E000E87
:100A9000336E0ED010D03350040D000EF324D96EF7
:100AA000020EF420DA6EDE6ADE6ADE6ADD6A332A5E
:100AB000070E3364F0D7648C000E0F015C6F6498EE
:100AC000649C00D06296000E256E000E046E000E2F
:100AD000066E000E056E62B6F5D7010E0001806F3E
:100AE000010E0001816F000E00017D6F000E0001FC
:100AF0007E6F000E00017C6F000E336E010E3364BA
:100B000001D02ED03350020D090EF324D96E000E01
:100B1000F420DA6E000EDE6E000EDD6E3350020D34
:100B20000D0EF324D96E000EF420DA6E000EDE6E88
:100B3000000EDD6E3350010D150EF324D96E000E3C
:100B4000F420DA6E000EDF6E3350010D170EF32421
:100B5000D96E000EF420DA6E000EDF6E332ACED787
:100B6000080E096E020E0A6E160E0F01536F020E6A
:100B70000201036F200E026F080E0201016F040EC6
:100B80000201006F0201008F000E286E000E0001AE
:100B90006E6F000E6F6F000E706F000E716F000EA3
:100BA0000001826F000E00017F6F120000017F05BF
:100BB000D8B464BA08D0000E626E60806088020EFD
:100BC00000017F6F00D062B460A404D0629465EC31
:100BD0000FF000D064A202D0A194120062B060A015
:100BE00008D029EC05F0A084040E00017F6F62900C
:100BF00000D062B860A803D020EC10F000D062AC46
:100C00001FD060AC0FD0000E386E730E376E000E22
:100C1000396E000E3A6E000E3C6E010E3B6EB2EC69
:100C20000CF000D0629C65EC10F01E50D8B402D0DD
:100C30001E0600D01E50D8A403D09EEC0BF000D0AE
:100C400062BA60AA03D08AEC0EF000D062B260A251
:100C500011D07F0E386E3768000E396E000E3A6E76
:100C6000000E3C6E010E3B6EB2EC0CF0000E0F015C
:100C70005F6F00D0040E00017F6102D0A1941200CA
:100C800060A63BD0000E466E030E466401D035D000
:100C900062A633D063CF2AF02A30E832E8320F0B55
:100CA000206E62962AB407D02050010D170EF3244F
:100CB000D96E000E06D02050010D150EF324D96E0A
:100CC000000EF420DA6EDF7000D02050D8A403D0DC
:100CD00000EC0DF010D0000E386E720E376E2A0E3A
:100CE000396E000E3A6E000E3C6E000E3B6EB2EC9A
:100CF0000CF001D002D0462AC7D7A19412000001FF
:100D00008D6F000185510001D8B408D000018D51CC
:100D1000020D090EF324D96E000E07D000018D518B
:100D2000020D0D0EF324D96E000EF420DA6EDECF24
:100D30008EF0DDCF8FF000D000018E5100018F11B9
:100D4000D8A407D0000E0001856F000E0001866F49
:100D50001200000120EE02F08E51D9268F51DA22C6
:100D600086C0DEFF87C0DDFF000120EE01F08E515E
:100D7000D9268F51DA2288C0DFFF8EC0D9FF8FC0FD
:100D8000DAFF400EDF168EC0D9FF8FC0DAFF000EEB
:100D9000DB868EC0D9FF8FC0DAFF000EDB8E00012C
:100DA00085510001D8B41ED000018D51020D090EED
:100DB000F324D96E000EF420DA6EDECF89F0DDCF99
:100DC0008AF0040E0001891900018B6F00018A511D
:100DD00000018C6F00018D51020D090EF324D96EB4
:100DE000000E1DD000018D51020D0D0EF324D96EA1
:100DF000000EF420DA6EDECF89F0DDCF8AF0040E2B
:100E00000001891900018B6F00018A5100018C6F6C
:100E100000018D51020D0D0EF324D96E000EF42049
:100E2000DA6E8BC0DEFF8CC0DDFF00D08EC085F097
:100E30008FC086F01200120020EE01F01950D92662
:100E40001A50DA22DF502D6E2D50055C000E065828
:100E5000D8B003D005C02DF000D02D50055E000E97
:100E6000065A000E2C6E12D02C50010D280EF324C1
:100E7000D96E020EF420DA6E01C0E1FF02C0E2FF7B
:100E8000DFCFE7FF014A022A2C2A00D02D502C5C2C
:100E9000D8A0EAD705500610D8B432D020EE01F021
:100EA0001B50D9261C50DA22080EDF6E20EE02F00D
:100EB0001B50D9261C50DA22280EDE6E020EDD6E83
:100EC00019C0D9FF1AC0DAFFDFBC0DD01BC0D9FF93
:100ED0001CC0DAFF480EDF6E1BC0D9FF1CC0DAFF52
:100EE000000EDB8E12001BC0D9FF1CC0DAFF080EFB
:100EF000DF6E1BC0D9FF1CC0DAFF000EDB8E1200B4
:100F000020EE01F01B50D9261C50DA22080EDF6EAD
:100F100020EE02F01B50D9261C50DA22200EDE6E85
:100F2000020EDD6E1BC0D9FF1CC0DAFF040EDF6E9F
:100F30001BC0D9FF1CC0DAFF000EDB8E0750081063
:100F4000D8B40ED020EE07F001D80AD00500FA6E12
:100F5000DE50FD6EDE50FE6EF850FF6EFA5012004D
:100F6000049E1D50D8A412009EEC0BF0120012003B
:100F7000800E02012019D8A41200C00E256E7CD06C
:100F8000C10E226E030E236E000E276E120E266E09
:100F9000120002012251D8A43ED002012251020DBA
:100FA000070EF324F66E030EF420F76E0900F5CF5A
:100FB00022F00A00F5CF23F0020E22242B6E000E41
:100FC00023202C6E2BC0F6FF2CC0F7FFF86A020E10
:100FD000F76403D00800F55005D0F6CFE1FFF7CF56
:100FE000E2FFE750266E030E22242B6E000E232014
:100FF0002C6E2BC0F6FF2CC0F7FFF86A020EF764C8
:1010000003D00800F55005D0F6CFE1FFF7CFE2FF9F
:10101000E750276E1200000E256E1200030E02012B
:10102000226124D002012251020D010EF324F66E3A
:10103000030EF420F76E0900F5CF22F00A00F5CF79
:1010400023F022C0F6FF23C0F7FFF86A020EF76410
:1010500003D00800F55005D0F6CFE1FFF7CFE2FF4F
:10106000E7502B6E2B50266E276A1200000E256E5D
:101070001200000E256E120002012351010AD8B49D
:101080007FD7030AD8B485D7010AD8B4C7D7F1D718
:1010900012001200649825BE3DD004AE10D0020E9E
:1010A0001F6E00017E51D8A403D062EC0CF000D07A
:1010B000000E0001816F000E0001806F120020EE13
:1010C00001F01B50D9261C50DA22080EDF6E20EEEC
:1010D00002F01B50D9261C50DA22200EDE6E020EC2
:1010E000DD6E1BC0D9FF1CC0DAFF0C0EDF6E1BC00B
:1010F000D9FF1CC0DAFF000EDB8E09C0D9FF0AC081
:10110000DAFF040EDF6E09C0D9FF0AC0DAFF000E55
:10111000DB8E1200020120AF15D0010E1F6E000100
:101120007D51D8A403D062EC0CF000D0000E000179
:10113000816F000E0001806F1D50D8A412009EEC3C
:101140000BF01200020E1F6E20EE01F01B50D9268C
:101150001C50DA22080EDF6E20EE02F01B50D9265A
:101160001C50DA22200EDE6E020EDD6E1BC0D9FF8F
:101170001CC0DAFF040EDF6E1BC0D9FF1CC0DAFFF3
:10118000000EDB8E000E0001816F000E0001806FEB
:101190001D50D8A412009EEC0BF012001200336E0A
:1011A0002B50D8B407D03350020D090EF324D96E5A
:1011B000000E06D03350020D0D0EF324D96E000E32
:1011C000F420DA6EDECF34F0DDCF35F000D03450CD
:1011D0003510D8A405D0000E2B6E000E2C6E120018
:1011E00020EE02F03450D9263550DA222CC0DEFF32
:1011F0002DC0DDFF20EE01F03450D9263550DA2223
:101200002EC0DFFF34C0D9FF35C0DAFF400EDF1635
:1012100034C0D9FF35C0DAFF000EDB8634C0D9FFF9
:1012200035C0DAFF000EDB8E2B50D8B418D0335007
:10123000020D090EF324D96E000EF420DA6EDECF13
:101240002FF0DDCF30F0040E2F18316E3050326E9B
:101250003350020D090EF324D96E000E17D033500F
:10126000020D0D0EF324D96E000EF420DA6EDECFDF
:101270002FF0DDCF30F0040E2F18316E3050326E6B
:101280003350020D0D0EF324D96E000EF420DA6EE9
:1012900031C0DEFF32C0DDFF00D034C02BF035C0DE
:1012A0002CF012001200020120511F0BE806D8A4F6
:1012B000120001D0120002012451D8A4120001D062
:1012C0001200060E02012119D8B41AD023D018D06A
:1012D0002804D8A41FD08E0E226E030E236E000E9B
:1012E000276E090E0AD0C00E256E14D0090E226E8C
:1012F000030E236E000E276E3F0E266EF4D70AD023
:1013000002012351210AD8B4E3D7030AD8B4EED797
:10131000010A00D002012039E832030BE806D8A404
:1013200012002CD012002AD012008BEC10F0120008
:10133000840E226E000E236E000E276E010E266EA6
:10134000C10E256E1200800E256E23C284F084C06B
:101350002BF002012251D4EC10F01200830E226E09
:10136000000E236E000E276E010E266E810E256E76
:101370001200800E256E22C283F01200020121515C
:10138000010AD8B41200030AD8B4D2D7010AD8B4DB
:10139000E5D70A0AD8B4C9D7030AD8B4D4D7010A02
:1013A000D8A41200E6D7120009C0D9FF0AC0DAFF9C
:1013B000000EDFBC010E2C6E040E0918096E0A50D7
:1013C0000A6E080E00017F19D8A40FD00201225125
:1013D0007F0B0F015C6F0F015C51D8B402D0100E6F
:1013E00001D0040E00017F6F00D01F04D8A43AD0B2
:1013F00020EE02F00950D9260A50DA22280EDE6EBD
:10140000020EDD6E2FEC0BF0020E2118D8A40DD0C9
:1014100009C0D9FF0AC0DAFF040EDF6E09C0D9FF88
:101420000AC0DAFF000EDB8E12002C50D8A40DD0BB
:1014300009C0D9FF0AC0DAFF480EDF6E09C0D9FF24
:101440000AC0DAFF000EDB8E120009C0D9FF0AC005
:10145000DAFF080EDF6E09C0D9FF0AC0DAFF000EFE
:10146000DB8E120004AE14D007500810D8B40ED092
:1014700020EE07F001D80AD00500FA6EDE50FD6EAE
:10148000DE50FE6EF850FF6EFA501200049E00D03F
:10149000000E1F6E1200120002012039E832030B09
:1014A0000009D8A4120047D0120045D0258E080E9E
:1014B00000017F6F1200B8EC07F01200BEEC0AF0DA
:1014C0001200280E226E000E236E2580010E266E5D
:1014D000258E120006EC0CF0120000D0ECEC01F0AE
:1014E000120002012451010D290EF324226E000E78
:1014F000F420236E2580010E266E258E1200258E87
:1015000002012451010D290EF324D96E000EF4209E
:10151000DA6E22C2DFFF1200000E386E020E376E46
:10152000000E396E000E3A6E000E3C6E000E3B6EE1
:10153000B2EC0CF0120002012151000AD8B4CAD753
:10154000010AD8B4CBD7020AD8B4C8D7060AD8B48F
:10155000ADD7030AD8B4AFD7010AD8B4DDD70F0A84
:10156000D8B4AFD7010AD8B4A9D7030AD8B4B9D729
:10157000010AD8B4C4D7070A12001200258E540EEF
:101580002B6E0F0E2C6E000E2E6E000E2D6E000EAA
:10159000306E010E2F6E38EC10F0000E2B6E020E26
:1015A0002C6E000E2E6E000E2D6E000E306E200E74
:1015B0002F6E38EC10F0648C000E3F6E010E3F640D
:1015C00001D016D03F50010D150EF324D96E000E38
:1015D000F420DA6E000EDF6E3F50010D170EF3247B
:1015E000D96E000EF420DA6E000EDF6E3F2AE6D7C9
:1015F000290E2B6E000E2C6E000E2E6E000E2D6E20
:10160000000E306E010E2F6E38EC10F0649C080E48
:10161000096E020E0A6E000E196E020E1A6E19C0C5
:101620001BF01AC01CF022C228F02850D8A404D005
:10163000100E00017F6F1200000E386E010E376E23
:10164000280E396E000E3A6E000E3C6E010E3B6E97
:10165000B2EC0CF0200E00017F6F12001200080E99
:101660002B6E275011E1080E265CD8B00DD026C095
:101670002BF02150D8A402D0010E04D02104D8A40C
:1016800003D0020E216E00D02B50265E000E275A8A
:1016900020EE01F00950D9260A50DA222BC0DFFFD4
:1016A000280E0001786F020E0001796F25A01ED070
:1016B0003FD01CD022C0F6FF23C0F7FFF86A78C0E5
:1016C000D9FF79C0DAFF020EF76403D00800F550A5
:1016D00005D0F6CFE1FFF7CFE2FFE750DF6E224AF9
:1016E000232A0001784B792B2B0600D02B50D8B43D
:1016F0001200E0D712001CD022C0F6FF23C0F7FF73
:10170000F86A78C0D9FF79C0DAFF020EF76403D017
:101710000800F55005D0F6CFE1FFF7CFE2FFE75024
:10172000DF6E224A232A0001784B792B2B0600D04A
:101730002B50D8B41200E0D71200120000018051E3
:10174000D8A41200010E0001806F00018151D8A4BD
:101750001200010E0001816F020E1F18D8A415D0CF
:1017600020EE01F00950D9260A50DA22000EDF6E71
:1017700009C0D9FF0AC0DAFF480EDF6E09C0D9FFE1
:101780000AC0DAFF000EDB8E12001F04D8A412007C
:10179000000E00017A6F20EE01F01950D9261A5080
:1017A000DA22080EDF6E20EE02F01950D9261A5008
:1017B000DA22200EDE6E020EDD6E19C0D9FF1AC0CD
:1017C000DAFF040EDF6E19C0D9FF1AC0DAFF000E6F
:1017D000DB8E010E00017A6F20EE01F01B50D9263E
:1017E0001C50DA22080EDF6E20EE02F01B50D926C4
:1017F0001C50DA22200EDE6E020EDD6E1BC0D9FFF9
:101800001CC0DAFF800EDF6E12001200000E020113
:10181000286F000E0201296F3ED0258E03D00201F1
:10182000288100D000017B05D8A441D00201288383
:101830003ED0258E3CD0258E020124BF0BD0020164
:1018400024510F0B2B6E2B50020D0D0EF324D96E6D
:10185000000E0AD0020124510F0B2B6E2B50020DEB
:10186000090EF324D96E000EF420DA6EDECF2CF0D0
:10187000DDCF2DF000D02CC0D9FF2DC0DAFFDFAEB8
:1018800016D02CC0D9FF2DC0DAFFDFA410D0010E76
:101890000201286F0CD0020120511F0B000AD8B49E
:1018A000BCD7010AD8B4C5D7030AD8B4C4D725AE6B
:1018B0001200280E226E020E236E2580020E266E66
:1018C00012001200000E00017D6F000E00017E6FFD
:1018D000020E1F18D8A41FD020EE01F01B50D926ED
:1018E0001C50DA22080EDF6E20EE02F01B50D926C3
:1018F0001C50DA22280EDE6E020EDD6E1BC0D9FFF0
:101900001CC0DAFF480EDF6E1BC0D9FF1CC0DAFF17
:10191000000EDB8E120026500201265D27500201C8
:101920002759D8B005D026C226F027C227F000D00C
:101930002FEC0BF020EE02F00950D9260A50DA22E3
:10194000280EDE6E020EDD6E09C0D9FF0AC0DAFF76
:10195000480EDF6E09C0D9FF0AC0DAFF000EDB8E29
:101960001200120023D01200E1EC0DF0132804E164
:101970007F0E1418D8B403D0134A142A1200000E94
:10198000146E000E136E1200E1EC0DF0010E4FEC20
:1019900010F01200E1EC0DF0020E4FEC10F012000E
:1019A00024EC0EF0120053EC09F0120037C03DF0A9
:1019B00038C03EF03E50000AD8B404D07F0AD8A404
:1019C00012001AD03D50010AD8B4EAD7030AD8B49D
:1019D0001200010AD8B4E7D7060AD8B41200770A71
:1019E000D8B41200010AD8B4BFD7070AD8B4D2D7E6
:1019F000010AD8A41200C8D73D50FF0A12001200F5
:101A00002D0E1E6E2AC045F0FD0E4516D8A43BD003
:101A10002AC045F0D89045323F0E45164550040D7A
:101A2000000EF324196E020EF4201A6E19C01BF07A
:101A30001AC01CF0040E1B181B6E1C501C6E19C023
:101A4000D9FF1AC0DAFFDF30E8320F0B0D0AD8A435
:101A500017D0200E2B6E020E2C6E20EE02F01950C5
:101A6000D9261A50DA22DECF2DF0DDCF2EF0000E6F
:101A7000306E080E2F6EAEEC0EF097EC0DF01200EB
:101A800059EC0EF012002A50FD0B040AD8A41200E3
:101A9000D4EC09F012001200306E000E316E020E0E
:101AA000326E2B502C6E2D6AD8902C362D3630503D
:101AB0002E6E2F6AD8902E362F36D8902E362F368F
:101AC0002C502E262D502F22D8902E362F36D890DF
:101AD0002E362F362E5031262F50322231C0D9FFCC
:101AE00032C0DAFFDF9E2B50D8A407D03050020D51
:101AF0000D0EF324D96E000E06D03050020D090EE3
:101B0000F324D96E000EF420DA6E31C0DEFF32C04D
:101B1000DDFF00D031C0D9FF32C0DAFFDF9C20EEFC
:101B200004F03150D9263250DA22DF8C1200000E38
:101B3000216E000E1D6E000E00017D6F000E000173
:101B40007E6F000E00017A6F000E1F6E09C0D9FF74
:101B50000AC0DAFF7F0EDF16040E0918096E0A505C
:101B60000A6E09C0D9FF0AC0DAFF7F0EDF16040E25
:101B70000918096E0A500A6E1BC0D9FF1CC0DAFF93
:101B80007F0EDF16000E256E000E276E000E266EED
:101B9000000E046E000E066E000E056E4CEC0AF090
:101BA000000E386E030E376E000E396E000E3A6E60
:101BB000000E3C6E000E3B6EB2EC0CF04AEC08F0EE
:101BC000120064A238D0010EB9EC0FF0120033D02D
:101BD00011041210D8A404D0010E9DEC0FF031D0E6
:101BE0004B0E11181210D8A404D0010EB9EC0FF04E
:101BF00028D0125004E1970E115CD8A022D0000E1C
:101C0000126E000E116E1DD011041210D8A404D053
:101C1000010E9DEC0FF015D0320E11181210D8A441
:101C200004D0010EB9EC0FF00CD0B70E115C030E0E
:101C30001258E3D706D000017F51200AD8B4C8D784
:101C4000E3D7114A122A1200000E0001686F000E3D
:101C50000001696F040E00016C6F000E00016D6FD2
:101C6000010E0001776FF40E766F05D013C074F08B
:101C700014C075F000D0135000017419F7E114502E
:101C800000017519D8A4F2D71E0E336E010ECFECE9
:101C90000EF0000E2B6E480E2C6E020E2D6E010EF5
:101CA0002E6E010ECFEC08F02BC06AF02CC06BF04A
:101CB0001200020E1F18D8A403D01CEC07F012006B
:101CC000000E1F6E00017A51D8A41FD020EE01F043
:101CD0001B50D9261C50DA22080EDF6E20EE02F0CF
:101CE0001B50D9261C50DA22200EDE6E020EDD6E4D
:101CF0001BC0D9FF1CC0DAFF0C0EDF6E1BC0D9FF62
:101D00001CC0DAFF000EDB8E1200000E00017A6F9D
:101D1000120012000F0153A11FD019C0D9FF1AC021
:101D2000DAFF800EDE18D8A415D009C0D9FF0AC08A
:101D3000DAFF840EDE18D8A40DD019C0D9FF1AC05E
:101D4000DAFF0C0EDF6E19C0D9FF1AC0DAFF000EE1
:101D5000DB8E00D00F015391629A12002DC033F038
:101D60002EC034F02BC031F02CC032F00FD033C075
:101D7000D9FF34C0DAFF31C0E1FF32C0E2FFDFCF6C
:101D8000E7FF334A342A314A322A00D02F06D8A03E
:101D900030062F28ECE13028D8A4E9D71200366E9F
:101DA00033A406D0000E2B6E36504CEC0DF000D054
:101DB00033A206D0010E2B6E36504CEC0DF000D045
:101DC0003650010D530EF324346E0F0EF420356E91
:101DD00034C0D9FF35C0DAFF33C0DFFF1200000185
:101DE000856F08D09490120094921200949412007F
:101DF0009496120000018551000AD8B41200010A1D
:101E0000D8B4F0D7030AD8B4EFD7010AD8B4EED7C4
:101E1000070AD8A41200ECD712000001856F08D081
:101E20008B8012008B8212008B8412008B86120032
:101E300000018551000AD8B41200010AD8B4F0D7C5
:101E4000030AD8B4EFD7010AD8B4EED7070AD8A44A
:101E50001200ECD712000001856F08D08B901200A1
:101E60008B9212008B9412008B9612000001855108
:101E7000000AD8B41200010AD8B4F0D7030AD8B4C3
:101E8000EFD7010AD8B4EED7070AD8A41200ECD7CE
:101E9000120000017F51D8A41200000E646E000EE3
:101EA000606E160E616E9F0E0F015B6F7B0E606E93
:101EB000D08EA284A084F28E01D0648664A6FDD761
:101EC000010E00017F6F12001200000E00017C6FF6
:101ED000000E386E740E376E000E396E000E3A6EBC
:101EE000000E3C6E000E3B6EB2EC0CF064926094FF
:101EF00002D0629400D062B4FCD7000E0001826F61
:101F000012002B6E08D094901200949212009494B8
:101F10001200949612002B50000AD8B41200010A45
:101F2000D8B4F1D7030AD8B4F0D7010AD8B4EFD7A0
:101F3000070AD8A41200EDD712002B6E08D08B80B0
:101F400012008B8212008B8412008B8612002B50A1
:101F5000000AD8B41200010AD8B4F1D7030AD8B4E1
:101F6000F0D7010AD8B4EFD7070AD8A41200EDD7EA
:101F700012002B6E08D08B9012008B9212008B9463
:101F800012008B9612002B50000AD8B41200010ADE
:101F9000D8B4F1D7030AD8B4F0D7010AD8B4EFD730
:101FA000070AD8A41200EDD7120085C08BF086C0B6
:101FB0008CF00AD08BC0D9FF8CC0DAFF87C0DFFF5E
:101FC00000018B4B8C2B00D000018907D8A08A0719
:101FD00000018929EFE100018A29D8A4EBD712007A
:101FE0000001866F0AD0010EEFEC0EF0020EEFEC4E
:101FF0000EF0010EA6EC10F0120000018651000A4E
:10200000D8B4F1D7010AD8B41200030A12001200A2
:102010000001856F09D080B602D0010E1200000EBB
:102020001200000E120009D000018551000AD8B438
:10203000F8D7010AD8B4EFD700D0000E1200120072
:10204000608462986482010E00017C6F000E0001C2
:10205000826F000E386E750E376E000E396E000EF0
:102060003A6E000E3C6E000E3B6EB2EC0CF01200AD
:102070002BC031F02CC032F009D031C0D9FF32C0B2
:10208000DAFF2DC0DFFF314A322A00D02F06D8A058
:1020900030062F28F2E13028D8A4EFD712002C6E9A
:1020A0000AD0010E81EC0FF0020E81EC0FF0010E50
:1020B000CAEC10F012002C50000AD8B4F2D7010A72
:1020C000D8B41200030A12001200010E00016E279C
:1020D000000E6F237023712300017C51D8A41200DD
:1020E0000001822B00018251D8A4120000018269F4
:1020F0001200120000EE60F0250EEE6AE806FDE127
:1021000000EE01F02A0EEE6AE806FDE1000EF86E20
:10211000000199EF10F0280E016E020E026E000E03
:10212000066E080E056EBC0E076E210E086E048E3C
:102130001200000EF0EC0FF06DEC04F049EC0FF023
:1021400000D043EC03F0FDD73FEF00F00001856FB6
:1021500001D0120000018551000AD8B41200010A12
:1021600012001200020148A304D0020E0DEC0FF081
:102170001200020E2BEC0FF012001200020148A315
:1021800004D0020E9DEC0FF01200020EB9EC0FF01D
:10219000120012002B6E01D012002B50000AD8B48E
:1021A0001200010A120012002C6E2C50D8A412004A
:1021B0002BC076F00001776B1200120028C248F2A3
:0621C000BEEC10F012005D
:020000040020DA
:08000000FFFFFFFFFFFFFFFF00
:020000040030CA
:0E0000000032011EFF0081FF03C003E0034039
:00000001FF
