:060000000A128A11E02F34
:10000C00F3008312031309107308803E0A128A1539
:10001C00F4230800F601F7010A128A1554230A1278
:10002C008A1100300A128A1106200A128A11113024
:10003C00F3008830F4000A128A1517240A128A1168
:10004C006A280A128A1565240A128A117108F700A7
:10005C007008F60076037704031D4A28FF308312DC
:10006C000313E3070318E40AFF30E407E41F4428F2
:10007C000430E3070318E40A0030E40740300A12A6
:10008C008A15D2240A128A11023076067704031DCF
:10009C007028013083120313E3070318E40A0030BD
:1000AC00E4076408803AFF0080307F02031D60285B
:1000BC0004306302031C6A28FC3083120313E30729
:1000CC000318E40AFF30E40740300A128A15D224E0
:1000DC000A128A1103307606770403197A28043041
:1000EC0076067704031D2728043076067704031D53
:1000FC008628073083120313E9000030EA00080059
:10010C00013083120313E9000030EA00080071305B
:10011C00831603138F008316031788018B01831238
:10012C00031397019D01831203178701880183161E
:10013C0003138501860107308700FF308800890191
:10014C0083120313850186018701880189010A1234
:10015C008A1565250A128A1100300A128A110620A6
:10016C000A128A115530F3008830F4000A128A15ED
:10017C0017240A128A1140300A128A1106200A1218
:10018C008A113330F3008830F4000A128A151724D0
:10019C000A128A110A128A1565240A128A11F001B0
:1001AC00F00A00300A128A1542230A128A11003012
:1001BC000A128A157B230A128A11720883120313FE
:1001CC00DE007108DD0002300A128A157B230A1248
:1001DC008A11720883120313DC007108DB002629D4
:1001EC0021290A128A11FB230A128A1126290A12C2
:1001FC008A113E250A128A1126290A128A159A2674
:10020C000A128A1126290A128A1188260A128A11C0
:10021C0026290A128A11FD220A128A1126290A128B
:10022C008A154B270A128A1126290A128A150D26BD
:10023C000A128A1126290A128A1110200A128A110E
:10024C00831203136A08003A03192D29212969081E
:10025C00003A0319F628013A0319F728033A03194F
:10026C00FD28013A03190329073A03190929013A10
:10027C0003190F29033A03191529013A03191B29EC
:10028C002129262983120313BE01BF0183160313F0
:10029C002C0883120313BD00831603132B0883123F
:1002AC000313BC00831603132A0883120313BB0029
:1002BC0083160313290883120313BA000A128A1532
:1002CC0054230A128A1100300A128A1106200A12CB
:1002DC008A114430F3008830F4000A128A1517246E
:1002EC000A128A1140300A128A1106200A128A1147
:1002FC00831203135C08A9005B08A8000A30AA004B
:10030C000030AB000430AC000030AD00AE01AE0AE2
:10031C003A300A128A1120220A128A1144300A1227
:10032C008A1106200A128A11F130F3008830F40089
:10033C000A128A1517240A128A1103308312031326
:10034C003E063F040319172A0A128A1565240A125D
:10035C008A11710883120313BF007008BE003E039C
:10036C003F04031DD229FF30DB070318DC0AFF30E2
:10037C00DC075C08803AFF0080307F02031DC8292F
:10038C0001305B020318D229E73083120313DB0719
:10039C000318DC0A0330DC070230831203133E0619
:1003AC003F04031DFA290130DB070318DC0A003077
:1003BC00DC075C08803AFF0083307F02031DE829CC
:1003CC00E8305B02031CFA29831203135B08FF3E1F
:1003DC00B8005C080318013EFF3EB9003808DB0288
:1003EC003908031CDC03DC0240300A128A11062097
:1003FC000A128A11831203135C08A9005B08A80077
:10040C000A30AA000030AB000430AC000030AD0064
:10041C00AE01AE0A3A300A128A1120220A128A114F
:10042C00A3295C08F5005B08F40002300A128A1557
:10043C00B223080083120313B7002D08B6002C0852
:10044C00B500B201B301A91F4B2A0130B200003034
:10045C00B3002D30AF00370884002F0883138000C1
:10046C000130AF002F08B707FF30B5070318B60AE5
:10047C00FF30B607FF30AC070318AD0AFF30AD07ED
:10048C00A809A909A80A0319A90A2908B10028086A
:10049C00B0003608803AFF0080307F02031D582AD6
:1004AC0002303502031C7A2A831203132B08F10045
:1004BC002A08F0003108F3003008F2000A128A15FD
:1004CC0096240A128A11710883120313B100700862
:1004DC00B0000130AF002F08B707FF30B507031885
:1004EC00B60AFF30B6074F2A83120313370884006D
:1004FC00831380018312031328082904031D942AF3
:10050C00350336040319942A2E03031D8F2A203039
:10051C00902A3030AF002F08B400C62A2B08A50053
:10052C002A08A4002908A7002808A6000A128A1580
:10053C0018250A128A11831203132408AF002F08FE
:10054C00B4002B08F7002A08F6002908F90028083F
:10055C00F8000A128A15B2250A128A11770883123A
:10056C000313A9007608A8000A303402031CC22A1F
:10057C000730AF002F08B4073030AF002F08B40796
:10058C000130B7020130B5070318B60A0030B607C0
:10059C003408AF00370884002F0883138000360816
:1005AC00803AAF002D08803A2F02031DDF2A2C0859
:1005BC003502031C802A8312031332033304031DF8
:1005CC00F52A0130B7020130B5070318B60A00301E
:1005DC00B6070130AC070318AD0A0030AD07370879
:1005EC00F3000030F4000A128A151724080020309A
:1005FC008400A030F5000408F6000930F7007508F7
:10060C00840083130008F800F50A76088400780843
:10061C008000F60AF70B052B83120313A9010A12AB
:10062C008A1554230A128A1100300A128A110620E4
:10063C000A128A110030F3008830E52B8312031361
:10064C00AA01AB012B08803AFF0080307F02031D0A
:10065C00312B09302A0203184B2B831203132A085F
:10066C00203E8400831380010130AA070318AB0AD3
:10067C000030AB072B08803AFF0080307F02031D4F
:10068C00492B09302A02031C332B83120313AA01B2
:10069C00AB012B08803AFF0080307F02031D582BE2
:1006AC0008302A020318DC2B0130F50083120313E7
:1006BC002A0A622B0310F50DFF3E031D602B7508F3
:1006CC008600AC01AD012D08803AF5005C08803A3B
:1006DC007502031D732B5B082C020318872B033048
:1006EC00F6009730F500F50B792BF60B792B7E2B5A
:1006FC00013083120313AC070318AD0A0030AD07A9
:10070C00692B831203130808F5007508A900AC01C6
:10071C00AD012D08803AFF0080307F02031D982B1D
:10072C0008302C020318C92B831203132908F50077
:10073C002C0AA22B0310F50CFF3E031DA02B751CDD
:10074C00B82B2C08203E840083130008031DB12B0A
:10075C002A08313EB22B2A30F5002C08203E8400AA
:10076C00750880000130AC070318AD0A0030AD07E6
:10077C002D08803AFF0080307F02031DC72B083004
:10078C002C02031C9A2B013083120313AA070318A3
:10079C00AB0A0030AB072B08803AFF0080307F0299
:1007AC00031DDA2B08302A02031C5A2B44300A1280
:1007BC008A1106200A128A112030F3000030F4004E
:1007CC000A128A1517240A128A11831203130719A5
:1007DC00871CF22B0718242B0A128A156524831206
:1007EC0003138601E901EA010800F801F901FA0195
:1007FC00FB0183120313630864040319092C6303BC
:10080C006404031D512CFC01FD017D08803AFF009E
:10081C0080307F02031D142C08307C0203183A2C04
:10082C007C08013EF5007D080318013E003EF600F1
:10083C007C08F70077074B3E840075088313800013
:10084C00840A760880000130FC070318FD0A00308A
:10085C00FD077D08803AFF0080307F02031D382C95
:10086C0008307C02031C162C8312031363036404EC
:10087C00031D2D2D0330CB000030CC000630CD00F5
:10088C000030CE000130CF000030D0000230D50057
:10089C000030D6002D2D023063066404031D2D2D6F
:1008AC000A128A1554230A128A1100300A128A116C
:1008BC0006200A128A110030F3008830F4000A1264
:1008CC008A1517240A128A1144300A128A1106203A
:1008DC000A128A11FC01FD017D08803AFF0080306C
:1008EC007F02031D7B2C08307C0203189B2C7C0898
:1008FC00F50075074B3E840083130008303E0A1246
:10090C008A150F230A128A110130FC070318FD0AFD
:10091C000030FD077D08803AFF0080307F02031D08
:10092C00992C08307C02031C7D2C44300A128A114D
:10093C0006200A128A110F300A128A1518230A127D
:10094C008A111D2D0A128A1565240A128A11710842
:10095C00F9007008F80078037904031DD32C0130DA
:10096C00FA070318FB0A0030FB077B08803AFF00EC
:10097C0080307F02031DC42C08307A02031CCC2C5F
:10098C00F830FA070318FB0AFF30FB077A08443EDD
:10099C000A128A1106200A128A110230780679048A
:1009AC00031D1D2D7A08F50075074B3E84000130A0
:1009BC0083138007840A0318800A7A08F5007507E8
:1009CC004B3E84000008F600840A0008F700770804
:1009DC00803AFF0080307F02031DF62C093076022E
:1009EC00031C092D7A08F50075074B3E8400F8307E
:1009FC0083138007840F00080318000AFF00FF30E0
:100A0C007F07800084037A08F50075074B3E84004D
:100A1C0083130008303E0A128A150F230A128A111A
:100A2C007A08443E0A128A1106200A128A110330EF
:100A3C00780679040319272D043078067904031DF0
:100A4C00A82C0C300A128A1518230A128A110430A9
:100A5C0078067904031D372D83120313E901EA018B
:100A6C000800023083120313E9000030EA0008008A
:100A7C0083120313BC01BD010230BE000030BF0065
:100A8C000A128A1554230A128A1100300A128A118A
:100A9C0006200A128A116630F3008830F4000A121C
:100AAC008A1517240A128A1140300A128A1106205C
:100ABC000A128A11831203135E08A9005D08A800AC
:100ACC000A30AA000030AB000430AC000030AD009E
:100ADC00AE0138300A128A1120220A128A114330D0
:100AEC000A128A1106200A128A11DD30F3008830AE
:100AFC00F4000A128A1517240A128A11831203139E
:100B0C003E08403E0A128A1106200A128A110E3043
:100B1C000A128A1518230A128A110330831203133E
:100B2C0063066404031D5B2E672E0A128A15652466
:100B3C000A128A11710883120313BD007008BC00DD
:100B4C003C033D04031DBF2DFF30BE070318BF0A35
:100B5C00FF30BF07BF1FB82D0330BE070318BF0AF5
:100B6C000030BF073E08403E0A128A1106200A12C6
:100B7C008A110230831203133C063D04031D5B2EC5
:100B8C003E083F04031DE82D6430F6000030F700EA
:100B9C005E08F9005D08F8000A128A15B2250A12DF
:100BAC008A11093076067704031DE42D1830831260
:100BBC000313DD070318DE0AFC30DE0764308312F2
:100BCC000313322E3E033F04031D172E0A30A400DC
:100BDC000030A5000A30F6000030F7005E08F9007E
:100BEC005D08F8000A128A15B2250A128A117708D4
:100BFC0083120313A7007608A6000A128A1518257B
:100C0C000A128A1109308312031324062504031DCA
:100C1C00152E9C30DD070318DE0AFF30DE070A3084
:100C2C00322E0A30A4000030A5005E08A7005D0833
:100C3C00A6000A128A1518250A128A110930831285
:100C4C00031324062504031D312EF630DD0703188B
:100C5C00DE0AFF30DE070130DD070318DE0A003044
:100C6C00DE0740300A128A1106200A128A118312FA
:100C7C0003135E08A9005D08A8000A30AA00003022
:100C8C00AB000430AC000030AD00AE0138300A12BD
:100C9C008A1120220A128A11831203133E08403E45
:100CAC000A128A1106200A128A11033083120313C6
:100CBC003C063D040319672E04303C063D04031D1D
:100CCC009B2D0C300A128A1518230A128A118312D2
:100CDC0003135E08F5005D08F40000300A128A1553
:100CEC00B2230A128A110430831203133C063D040A
:100CFC00031D832EE901EA0108000330E9000030EE
:100D0C00EA00080083120313C301C4016208C00087
:100D1C006108BF006008BE005F08BD00C101C201D0
:100D2C00E701E801E501E6010A128A1554230A12CB
:100D3C008A11BD30F3008830F4000A128A1517248A
:100D4C000A128A1140300A128A1106200A128A11DC
:100D5C0083120313C501C6014608803AB8005E0829
:100D6C00803A3802031DBC2E5D0845020318D82FAB
:100D7C0083120313C101C201C701C8014808803A9C
:100D8C00FF0080307F02031DCD2E08304702031870
:100D9C006A2F013083120313B800470AD72E0310B1
:100DAC00B80DFF3E031DD52E38088600C401C901BD
:100DBC00CA014A08803AFF0080307F02031DE82EEA
:100DCC00083049020318252F831203134908B80071
:100DDC0038074B3E840083130008B900840A0008CE
:100DEC00BA003908FF3EBB003A080318013EFF3E2B
:100DFC00BC0048083C06031D052F47083B06031D95
:100E0C00142F0130B800490A0D2F0310B80DFF3E06
:100E1C00031D0B2F3808B9003908C4040130C90769
:100E2C000318CA0A0030CA074A08803AFF0080300B
:100E3C007F02031D232F08304902031CEA2E831264
:100E4C000313C901CA014A08803AB8005C08803A09
:100E5C003802031D332F5B0849020318492F033056
:100E6C0083120313B9009730B800B80B3B2FB90BA2
:100E7C003B2F402F013083120313C9070318CA0AF2
:100E8C000030CA07292F831203130808B80038084A
:100E9C00C30043084406031D592F0130C107031832
:100EAC00C20A0030C2070130C7070318C80A003055
:100EBC00C8074808803AFF0080307F02031D682F66
:100ECC0008304702031CCF2E0B300A128A11062061
:100EDC000A128A1128300A128A150F230A128A1153
:100EEC00831203134508013EA80046080318013E6F
:100EFC00003EA9000A30AA000030AB000430AC0060
:100F0C000030AD00AE01AE0A3D300A128A1120222B
:100F1C000A128A1129300A128A150F230A128A1111
:100F2C00113083120313A4000030A5006508670775
:100F3C00A60066080318660A6807A7000A128A1535
:100F4C0018250A128A11831203132408403E0A1230
:100F5C008A1106200A128A110830831203134106E3
:100F6C004204031DC12F0130E7070318E80A0030C3
:100F7C00E8072130CA2F013083120313E507031849
:100F8C00E60A0030E6072E300A128A150F230A12E1
:100F9C008A11013083120313C5070318C60A0030E7
:100FAC00C607B22E8312031386010630E900003007
:100FBC00EA00080083135F3084006D300A128A1532
:100FCC0007230A128A11A0308400AD300A128A1548
:100FDC0007230A128A115F30FD000B30FE006730C8
:100FEC00FF004B3084000A128A15352383010A1244
:100FFC008A118D282034203420342034313432347A
:10100C0033343434353436343734383420342034B3
:10101C00203420340034203420344D346F34643484
:10102C00653420342034533465346C346534633483
:10103C0074342034203400345334453454343A342A
:10104C005334633461346E345734613469347434DA
:10105C0028346D34733429340034503453344534CB
:10106C0020345034553453344834203441344E34C5
:10107C0059342034423454344E34003453346534AF
:10108C00743420345334633461346E3457346134E3
:10109C0069347434543469346D34653400344C34EC
:1010AC0061346E344334613462346C3465342034CE
:1010BC0043346834653463346B34653472340034CF
:1010CC005334653474344E3475346D346234653451
:1010DC0072344F346634543469346D34653473343B
:1010EC0000344D344F34443445343A34443445346C
:1010FC0042345534473420342034203400344D34B9
:10110C004F34443445343A34433452344F345334EA
:10111C00533420342034203400344D344F34443490
:10112C0045343A3443345534533454344F344D34B9
:10113C002034203400344D344F34443445343A3464
:10114C003F343F343F343F343F343F343F343F34FB
:10115C0000344D344F34443445343A3453345434DD
:10116C0052344134493447344834543400344334D1
:10117C006834653463346B3469346E3467342E34BC
:10118C002E342E340034533465347434743469344E
:10119C00673420344D346F34643465340034533444
:1011AC00453454343A343F343F343F3400342034E3
:1011BC00743469346D3465347334003452346534AA
:1011CC00733475346C34743400344D344F344434CB
:1011DC0045343A3400346D3473342F3431340034A4
:1011EC004E3447343A3400344F344B343A340034B0
:1011FC004434423447340034433454344D34003492
:10120C00533454345234003454344D345334003445
:10121C004334523453340034253429340034FF1B06
:10122C001F2983137F1883170008840A0319FF0AE8
:10123C0008007F087F398A000408840A0319FF0A12
:02124C0082001E
:10160E0064008001840A0406031900340406082BC2
:10161E00F30083120313091473080A128A15F423B4
:10162E000800F30083120313091073080A128A15B7
:10163E00F4230800F0007008831203178D00831640
:10164E0003178C18262B0C140C182B2B8312031734
:10165E000C0808007E088A007F08820031230A12D7
:10166E008A158000840A04087D0603190034FF0AD7
:10167E000319FE0A352BF100831203178C018E011C
:10168E008D018F01831603178C017108031D8C17B2
:10169E007008031908000C150800831203130910B3
:1016AE0001300A128A15F4230A128A150630F40044
:1016BE003030F300F30B612BF40B612B00000800AC
:1016CE000134003402340034033400340434003462
:1016DE000534003406340034073400340834003442
:1016EE001434003405340034F40074080A128A15D8
:1016FE0021230A128A15F300730883120313EB00D9
:10170E007408013E0A128A152123F300730883120E
:10171E000313EC006C08F2006B08F1000800A72B15
:10172E002230F3008830F4000A128A1517240800BC
:10173E00D530F3008830F4000A128A1517240800F9
:10174E007608003A0319AC2B9F2B7508003A031943
:10175E00972B9F2B0800F700750883120313EC00DC
:10176E007408EB006B08F6007608F00077080A1292
:10177E008A153B240A128A1570087104031D08008D
:10178E00831203136C08F6007608F0007708013E0A
:10179E000A128A153B240800F401F501701CDD2B9A
:1017AE007208F4070318F50A7308F50701300310E1
:1017BE00F20DF30DFF3E031DDE2B01300310F10C75
:1017CE00F00CFF3E031DE52B70087104031DD52B95
:1017DE007508F1007408F0000800F2001A30F000ED
:1017EE00F00BF72B0000F030831203130505F00009
:1017FE007208F10004300310F10CFF3E031D022CA1
:10180E0071080F397004850085168512F0300505B4
:10181E00F00072080F3970048500851685120800D5
:10182E00831203130914740883120313FF00730841
:10183E0084000A128A1515210A128A15003A031914
:10184E0008007408FF00730884000A128A15152117
:10185E000A128A150A128A15F4230A128A15013001
:10186E00F3070318F40A1A2CF300831603178C18C7
:10187E003C2C7008831203178C0073088D005530B2
:10188E00831603178D00AA308D008C140C19542C5E
:10189E000130F0000030F10008008C18542C831237
:1018AE0003130D12831603178C19602CF001F1012E
:1018BE0008000130F0000030F1000800F201F301E1
:1018CE00831203130719871C6E2C0718672C04301C
:1018DE00720673040319852C0719792C0130F20056
:1018EE000030F30087187F2C0230F2000030F30036
:1018FE000718852C0330F2000030F300071D8718FF
:10190E008C2C0430F2000030F3000719871C6E2C6B
:10191E00071C6E2C7308F1007208F0000800F50128
:10192E00F601700871040319CD2CF701F70AF11BAB
:10193E00AC2C01300310F00DF10DFF3E031DA12C58
:10194E000130F4007408F7079E2C01300310F50DDA
:10195E00F60DFF3E031DAD2C71087302031DB92C4D
:10196E0070087202031CC22C7008F2027108031C6C
:10197E00F303F302751401300310F10CF00CFF3E6B
:10198E00031DC32C0130F702031DAC2C7608F100A9
:10199E007508F0000800F50075080A128A11062075
:1019AE000A128A15022DAF30F3008830F4000A12A5
:1019BE008A15172408008530F3008830F4000A12C7
:1019CE008A15172408009330F3008830F4000A12A9
:1019DE008A15172408007730F3008830F4000A12B5
:1019EE008A1517240800A130F3008830F4000A127B
:1019FE008A1517240800831203136408003A03198A
:101A0E00092DFA2C6308003A0319DA2C013A03194E
:101A1E00E22C033A0319EA2C013A0319F22CFA2CA0
:101A2E000800FD0183120313A71F242DA609A70981
:101A3E00A60A0319A70AFD01FD0AA51F2B2DA4094D
:101A4E00A509A40A0319A50A240825040319582D6B
:101A5E00FC01FC0AA51B3F2D01300310A40DA50DA2
:101A6E00FF3E031D342D0130FB007B08FC07312D9A
:101A7E0025082702031D452D24082602031C4D2D83
:101A8E002408A6022508031CA703A7020130031091
:101A9E00A50CA40CFF3E031D4E2D0130FC02031DB0
:101AAE003F2D7D080319602DA609A709A60A031963
:101ABE00A70A2708A5002608A40008000330F50091
:101ACE007508F7008312031309108512051268308A
:101ADE00F600E430F500F50B722DF60B722D0000BA
:101AEE007708831203138500851685120D30F600D4
:101AFE00FB30F500F50B812DF60B812D862D831213
:101B0E000313851685128530F500F50B8C2D831287
:101B1E000313851685128530F500F50B942D0230D2
:101B2E008312031385008516851228300A128A1532
:101B3E00F4230A128A150C300A128A15F4230A129B
:101B4E008A150A128A1554230A128A1506300A12A9
:101B5E008A15F423080083120313A101F71FBE2D6B
:101B6E00F609F709F60A0319F70AA101A10AF91FE6
:101B7E00C92DF809F909F80A0319F90A0130FA0012
:101B8E007A08A106A201A301760877040319002E94
:101B9E00A001A00AF71BDF2D01300310F60DF70D83
:101BAE00FF3E031DD42D0130FA007A08A007D12D77
:101BBE0001300310A20DA30DFF3E031DE02D77088B
:101BCE007902031DEC2D76087802031CF52D76089C
:101BDE00F8027708031CF903F902221401300310EE
:101BEE00F70CF60CFF3E031DF62D0130A002031D6F
:101BFE00DF2D21080319082EA209A309A20A031931
:101C0E00A30A2308F7002208F60008008312031324
:101C1E00C201C301C001C1010A128A1554230A125E
:101C2E008A1500300A128A1106200A128A15C93046
:101C3E00F3008830F4000A128A1517240A128A1546
:101C4E0040300A128A1106200A128A1583120313D3
:101C5E004308F6004208F5000A128A1596230A1266
:101C6E008A15033083120313400641040319892E8B
:101C7E000A128A1565240A128A1571088312031333
:101C8E00C1007008C00040034104031D672E0130DF
:101C9E00C2070318C30A0030C3074308803AFF0087
:101CAE0080307F02031D5D2E01304202031C672E21
:101CBE00831203134208C2024308031CC303C30268
:101CCE0002308312031340064104031D272EFF30FA
:101CDE00C2070318C30AFF30C307C31F272E0130E4
:101CEE00C2070318C30A0030C307272E0A128A112F
:101CFE0048210A128A15952E0A128A1148210A12B3
:101D0E008A15952E831203134308003A0319902E59
:101D1E00832E4208003A03197D2E832E831203135D
:101D2E00E901EA0108000A128A1554230A128A15DB
:101D3E0000300A128A1106200A128A15EB30F300BF
:101D4E008830F4000A128A1517240A128A15E12E19
:101D5E000630F3008930F4000A128A1517240A128D
:101D6E008A15F62E0E30F3008930F4000A128A1509
:101D7E0017240A128A15F62E0230F3008930F40069
:101D8E000A128A1517240A128A15F62EFE30F3004F
:101D9E008830F4000A128A1517240A128A15F62EB4
:101DAE00D930F3008830F4000A128A1517240A126B
:101DBE008A15F62E831203136408003A0319E82ECF
:101DCE00D72E6308003A0319AF2E013A0319B92E24
:101DDE00033A0319C32E013A0319CD2ED72E033021
:101DEE0083120313630664040319222F0A300A12A6
:101DFE008A1106200A128A15831203135E08A9009F
:101E0E005D08A8000A30AA000030AB000430AC0018
:101E1E000030AD00AE01AE0A38300A128A1120220F
:101E2E000A128A150A30F3008930F4000A128A1554
:101E3E0017240A128A150A128A1565240A128A159F
:101E4E00033070067104031D3C2F043083120313FC
:101E5E00E9000030EA00033063066404031D080045
:101E6E000530E9000030EA00080003308312031346
:101E7E0063066404031D462FE901EA0108000230DF
:101E8E00E9000030EA0008000A128A1554230A12EB
:101E9E008A1500300A128A1106200A128A15E430B9
:101EAE00F3008830F4000A128A1517240A128A15D4
:101EBE0008300A128A1106200A128A1528300A12D0
:101ECE008A150F230A128A158312031365086707F2
:101EDE00F60066080318660A6807F7006808F1003E
:101EEE006708F0006430F2000030F3000A128A1521
:101EFE00D3230A128A157108F9007008F8000A1225
:101F0E008A15B2250A128A15770883120313BD00AB
:101F1E007608BC003D08A9003C08A8000A30AA00BB
:101F2E000030AB000430AC000030AD00AE01AE0AA4
:101F3E0038300A128A1120220A128A151230F30042
:101F4E008930F4000A128A1517240A128A154030B5
:101F5E000A128A1106200A128A15FA30F300883006
:101F6E00F4000A128A1517240A128A158312031313
:101F7E006808A9006708A8000A30AA000030AB0064
:101F8E000430AC000030AD00AE01AE0A38300A129B
:101F9E008A1120220A128A1548300A128A11062046
:101FAE000A128A15F630F3008830F4000A128A15E8
:101FBE0017240A128A15831203136608A9006508EE
:101FCE00A8000A30AA000030AB000430AC0000308C
:101FDE00AD00AE01AE0A38300A128A1120220A1262
:101FEE008A150A128A15652483120313E901EA0180
:021FFE000800D9
:04400E00C4E3FFFF09
:00000001FF
