:040000008A11112828
:10000800FE00030EF2000408F3000A08F40083124D
:1000180003137F08F5008A11452A8A111328F6016F
:10002800F701F801C90183018A111A2800308312E7
:100038000313BB000030BC000030BD000030BE0020
:100048000030BF000030C0000030C1000030C200E6
:100058000030C3000030C4000030C5000030C600C6
:10006800C701C8018A11A9228A110B308312031310
:10007800BA002630B9006630B800B80B4128B90B71
:100088004128BA0B4128482801308A117E228A115A
:10009800831203132108A9002008A8008A11D1227D
:1000A8008A11831203132808C1002908C2002A08EC
:1000B800C30002308A117E228A1183120313210899
:1000C800A9002008A8008A11D1228A1183120313DB
:1000D8002808C4002908C5002A08C6003B08A00053
:1000E8003C08A1003D08A2004108A3004208A40062
:1000F8004308A5008A1193218A11031C96288312AC
:1001080003133E08A0003F08A1004008A2004408CD
:10011800A3004508A4004608A5008A1193218A1166
:1001280003189E28FF3083120313C7070318C80A51
:10013800FF30A528013083120313C7070318C80A24
:100148000030C8074808B9004708B800390DB90C8D
:10015800B80C390DB90CB80C380895000F30B80038
:10016800380897054708B80003300310B80DFF3E5C
:10017800031DB9280310380D3039B9003908970420
:1001880048288312031323080319CF2822082104BF
:100198002004031DE2280030A0000030A100003038
:1001A800A20008000130A5002508A30701300310AC
:1001B800A20CA10CA00CFF3E031DDB28FE3022057B
:1001C8000319FD28D6280130A5002508A30701300A
:1001D800A007003003180130A107003003180130D0
:1001E800A20701300310A20CA10CA00CFF3E031DB6
:1001F800F628FF30220503191029E72802302302C8
:10020800031C12290130A30201300310A00DA10D17
:10021800A20DFF3E031D0929A11F022923181A292F
:10022800FF30A0057F30A105FF30A2050310A30C05
:100238002308A500A601A70110300310A50DA60DDF
:10024800A70DFF3E031D21292508A0042608A104A7
:100258002708A204240803190800A2170800003080
:1002680083120313AC000030AB000030AA0000304A
:10027800A900230822042104200403198A29AD01B6
:10028800AD0AA31B55290130A8000310A00DA10D2C
:10029800A20DA30DA80B49290130A8002808AD0715
:1002A80045290130A8000310A90DAA0DAB0DAC0D0E
:1002B800A80B572923082702031D6C2922082602A8
:1002C800031D6C2921082502031D6C29200824021E
:1002D800031C7D292008A4022108031C210FA50264
:1002E8002208031C220FA6022308031C230FA702BF
:1002F800291401300310A30CA20CA10CA00CFF3E82
:10030800031D7E290130AD02031D55292C08A300C9
:100318002B08A2002A08A1002908A00008008312BF
:100328000313A21FBC290030A6000030A7008030AC
:10033800A8002009A9002109AA002209AB00A90ADE
:100348000319AA0A0319AB0A2908A6072A080318D9
:100358002A0FAF29B029A7072B0803182B0FB52997
:10036800B629A8072608A0002708A1002808A20087
:10037800A51FE3290030A6000030A7008030A800A0
:100388002309A9002409AA002509AB00A90A031911
:10039800AA0A0319AB0A2908A6072A0803182A0F6C
:1003A800D629D729A7072B0803182B0FDC29DD2905
:1003B800A8072608A3002708A4002808A50080305D
:1003C800A2068030A50625082202031D080024087D
:1003D8002102031D0800230820020800FC308312B4
:1003E8000313B30033089205002AFE2912140B2ABE
:1003F80092140B2A12080B2A3208013A0319F92918
:10040800033A0319FA29123A0319FC29FE2931087B
:10041800A3003008A2002F08A1002E08A000003079
:10042800A7007A30A6001230A5000030A4008A1177
:1004380033218A11831203132008B3002108B40062
:100448002208B5002308B60002300310B60CB50C1C
:10045800B40CB30CFF3E031D292A3308FF3E831654
:1004680003139200831203139501831603130108E3
:10047800F839053881008312031312150C309700E0
:1004880008000B1C732A8B1130300605F000490850
:100498007006F1001030710603195C2A3030060529
:1004A800F00049087006F10020307106031D5E2A2D
:1004B8000608712A061F6B2A0130F0007008F6073B
:1004C80004307602031C712A0430F602712A861F52
:1004D800712A0130F0007008F8060B108B157508AA
:1004E800FF0074088A0073088400720E8300FE0EF1
:1004F8007E0E090083120313A4000730A20022080D
:10050800A405C530A20022089F052408A2000230D5
:100518000310A20DFF3E031D8C2A0310220DA30019
:1005280023089F040630A200A20B982A0000831219
:1005380003131F151F199E2A1E08A10083160313F3
:100548001E0883120313A0000800723083160313D9
:100558008F008501860107309C00831203138501F3
:10056800860192018A11F5228A1100308312031341
:10057800B1000030B0000330AF00E830AE00B20187
:10058800B20A8A11F2218B158B17831203130608FE
:100598003039B7003708C900080083120313AD01CA
:1005A800A91FDD2AA809A909A80A0319A90AAD01E2
:1005B800AD0A2808A0002908A100A2018E30AB00CE
:1005C8002B08A3002D08AC002C08A4008A11C52014
:1005D800831203132008A8002108A9002208AA00F2
:1005E8000800053083120313A00020089F051F0888
:1005F8003F3980389F00831603139F171F13CF308E
:0A0608009F05831203131F1408005E
:04400E003AEFFCFF8A
:00000001FF
