:100000008A11F82F00308A000408840A820700341D
:10001000013400340A34003464340034E8340334E6
:1000200010342734013400341034003400340134E7
:1000300000341034303431343234333434343534E1
:1000400036343734383439346134623463346434A8
:100050006534663400347334653474342034743455
:100060006F342034253464340D340A34003466345B
:100070007234653471343A342034253464340D34A8
:100080000A3400345034523432343A342034253473
:0800900078340D340A34003409
:1003BA00831203138C1EDD291A080800F000831229
:1003CA0003130C1EE4297008990008008A11DD2124
:1003DA008A11F1008A11E32171080800F100F00185
:1003EA003A3071020318FF2930307102031CFF29C9
:1003FA00F001F00A700C08007230831603138F00A4
:10040A008501860107309C0083120313850102309F
:10041A0086009201080083120313A001FA1F1C2A06
:10042A00F909FA09F90A0319FA0AA001A00A7908CE
:10043A00F0007A08F100F2018E30FC007C08F3002B
:10044A002008FD007D08F4008A1122247008F900B2
:10045A007108FA007208FB00080083120313A40152
:10046A00A501201C3E2A2208A4070318A50A23086E
:10047A00A50701300310A20DA30DFF3E031D3F2A5D
:10048A0001300310A10CA00CFF3E031D462A2008D0
:10049A002104031D362A2508A1002408A00008000B
:1004AA00831203132E082F040319842AB301B30AF3
:1004BA00AF1B6B2A01300310AE0DAF0DFF3E031DBB
:1004CA00602A0130B2003208B3075D2A2F083102D0
:1004DA00031D712A2E083002031C792A2E08B00245
:1004EA002F08031CB103B10201300310AF0CAE0C8C
:1004FA00FF3E031D7A2A0130B302031D6B2A31081D
:10050A00AF003008AE00080083120313AB01AC0140
:10051A00260827040319C22AAD01AD0AA71BA12A7E
:10052A0001300310A60DA70DFF3E031D962A0130C8
:10053A00AA002A08AD07932A01300310AB0DAC0DAF
:10054A00FF3E031DA22A27082902031DAE2A2608F8
:10055A002802031CB72A2608A8022708031CA90395
:10056A00A9022B1401300310A70CA60CFF3E031D91
:10057A00B82A0130AD02031DA12A2C08A7002B08B6
:10058A00A6000800193083120313A6000030A70042
:10059A00831603131208013E83120313A0000030CE
:1005AA0003180130A1002E08F0002F08F1003008CE
:1005BA00F2008A11FB248A11710883120313A30023
:1005CA007008A2008A1132228A11831203132108A9
:1005DA00A9002008A8008A1189228A11831203130C
:1005EA002708B4002608B3003408B2003308B10063
:1005FA000310B20CB10C0310B20CB10C3108950007
:10060A000F30B100310897053308B10003300310E9
:10061A00B10DFF3E031D0C2B0310310D3039B20012
:10062A00320897040800FC3083120313A50025083A
:10063A009205262B242B1214312B9214312B1208DB
:10064A00312B2408013A03191F2B033A0319202BD3
:10065A00123A0319222B242B2308F3002208F20052
:10066A002108F1002008F0000030F7007A30F60087
:10067A001230F5000030F4008A11C4238A11700880
:10068A0083120313A5007108A6007208A700730855
:10069A00A80002300310A80CA70CA60CA50CFF3E5C
:1006AA00031D4F2B2508FF3E831603139200831266
:1006BA0003139501831603130108F83905388100DD
:1006CA008312031312150C3097000800F601F11F6C
:1006DA00752BF009F109F00A0319F10AF601F60A75
:1006EA00F31F802BF209F309F20A0319F30A013006
:1006FA00F4007408F606F701F8017008710403198A
:10070A00B72BF501F50AF11B962B01300310F00DFA
:10071A00F10DFF3E031D8B2B0130F4007408F50721
:10072A00882B01300310F70DF80DFF3E031D972BA0
:10073A0071087302031DA32B70087202031CAC2BF1
:10074A007008F2027108031CF303F30277140130F4
:10075A000310F10CF00CFF3E031DAD2B0130F50226
:10076A00031D962B76080319BF2BF709F809F70A18
:10077A000319F80A7808F1007708F0000800003039
:10078A00FC000030FB000030FA000030F90073086A
:10079A007204710470040319192CFD01FD0AF31B7C
:1007AA00E42B0130F8000310F00DF10DF20DF30DFA
:1007BA00F80BD82B0130F8007808FD07D42B01304C
:1007CA00F8000310F90DFA0DFB0DFC0DF80BE62BE2
:1007DA0073087702031DFB2B72087602031DFB2B9D
:1007EA0071087502031DFB2B70087402031C0C2C84
:1007FA007008F4027108031C710FF5027208031CD9
:10080A00720FF6027308031C730FF7027914013092
:10081A000310F30CF20CF10CF00CFF3E031D0D2C2F
:10082A000130FD02031DE42B7C08F3007B08F20073
:10083A007A08F1007908F0000800730803192A2CD5
:10084A00720871047004031D3D2C0030F000003062
:10085A00F1000030F20008000130F5007508F307D6
:10086A0001300310F20CF10CF00CFF3E031D362C84
:10087A00FE3072050319582C312C0130F500750829
:10088A00F3070130F007003003180130F107003098
:10089A0003180130F20701300310F20CF10CF00CCE
:1008AA00FF3E031D512CFF30720503196B2C422C9D
:1008BA0002307302031C6D2C0130F3020130031065
:1008CA00F00DF10DF20DFF3E031D642CF11F5D2C9E
:1008DA007318752CFF30F0057F30F105FF30F205F3
:1008EA000310F30C7308F500F601F701103003103A
:1008FA00F50DF60DF70DFF3E031D7C2C7508F0046F
:10090A007608F1047708F204740803190800F2174C
:10091A00080083120313AD002D08840020308313CE
:10092A000006031D9D2C0130A8002808AD07912C54
:10093A002D088400093000060319982CAB01AC017C
:10094A00AA012D0884002D300006031DB12C0130A8
:10095A00A8002808AA07B72C2D0884002B30000607
:10096A00031DBB2C0130A8002808AD072D08840000
:10097A0000088A11F3218A11031CE52C8312031340
:10098A002C08A1002B08A0000A30A2000030A30006
:10099A008A1132228A11831203132D0884008313C9
:1009AA0000082007A80021080318210AA90028081E
:1009BA00D03EAB0029080318013EFF3EAC00B72C1D
:1009CA00831203132A080319F62C2B09A8002C09F1
:1009DA00A900A80A0319A90A2808A6002908A70035
:1009EA0008002C08A7002B08A60008007008F400CD
:1009FA007108F5007208F6000310750D760DF70000
:100A0A007708FD007D08031D132D0030F300003028
:100A1A00F2000030F1000030F00008007008F40025
:100A2A007108F5007208F60017300310F60CF50C81
:100A3A00F40CFF3E031D1A2D7408F7007708F8001E
:100A4A00F117FF30F005FF30F1050030F2057008AC
:100A5A00F9007108FA007208FB00FC018E30FD02F1
:100A6A00FD1F552D7D08803A8F3E0318452D003015
:100A7A00F3000030F2000030F1000030F00008000E
:100A8A0001300310FC0CFB0CFA0CF90CFF3E031DA1
:100A9A00462D0130F4007408FD070319702D452D09
:100AAA0018307D02031C6D2D0030F3000030F20077
:100ABA000030F1000030F00008000130F4000310AB
:100ACA00F90DFA0DFB0DFC0DF40B642D0130FD023E
:100ADA007D08031D622D780803197E2DF909FA098C
:100AEA00FB09FC09F90A0319FA0A0319FB0A031993
:100AFA00FC0A7C08F3007B08F2007A08F100790806
:100B0A00F000080083120313A101F31F992DF009C5
:100B1A00F109F209F309F00A0319F10A0319F20AB1
:100B2A000319F30AA101A10AF71FAA2DF409F5096D
:100B3A00F609F709F40A0319F50A0319F60A03195B
:100B4A00F70A0130F8007808A1060030A500003045
:100B5A00A4000030A3000030A200730872047104DC
:100B6A0070040319FF2DA001A00AF31BCA2D01303E
:100B7A00F8000310F00DF10DF20DF30DF80BBE2D78
:100B8A000130F8007808A007BA2D0130F8000310E8
:100B9A00A20DA30DA40DA50DF80BCC2D7308770299
:100BAA00031DE12D72087602031DE12D71087502FD
:100BBA00031DE12D70087402031CF22D7008F40263
:100BCA007108031C710FF5027208031C720FF602FA
:100BDA007308031C730FF702221401300310F30C7D
:100BEA00F20CF10CF00CFF3E031DF32D0130A002B4
:100BFA00031DCA2D210803190D2EA209A309A40950
:100C0A00A509A20A0319A30A0319A40A0319A50A22
:100C1A002508F3002408F2002308F1002208F00056
:100C2A0008008A1101228A11003083120313A300DB
:100C3A000030A2000330A100E830A000A401A40AF9
:100C4A008A1118238A11831603130615861667302C
:100C5A0099009030831203139800203083160313EF
:100C6A00980043308400831203134C0883138000D6
:100C7A00840A4D088000840A4E088000840A4F08BE
:100C8A008000840A50088000C801C9010A30F000B7
:100C9A000030F100831203134908F3004808F200F8
:100CAA008A116B238A117108FA007008F9008A11F7
:100CBA0010228A11790883120313AE007A08AF0052
:100CCA007B08B0008A11C7228A1183120313CA0152
:100CDA00CB018A11EB218A1183120313C1004A083E
:100CEA00433E84004108831380000130CA07031879
:100CFA00CB0A0030CB074A08FF3E433E84000D3042
:100D0A000006031D6E2E43308A118E248A11831227
:100D1A0003132708C9002608C8004908B50048086F
:100D2A00B40024308A11D9268A11831603131208B3
:100D3A0083120313C100C2014108B4004208B5007E
:100D4A003B308A11D9268A1183160313120883129B
:100D5A000313C100C2010310C10DC20D0310C10D5E
:100D6A00C20D4108043EF00042080318013E003E4D
:100D7A00F100F201F11BF2037208F3000030F700F0
:100D8A007A30F6001230F5000030F4008A11872517
:100D9A008A11710883120313B5007008B400303049
:100DAA008A11D9268A114B2E83120313BB003430C1
:100DBA00B6003608BA00013083120313BB07FF30AE
:100DCA003B0784008A1102208A11B6003608C00047
:100DDA00400803190800253040060319F92E400877
:100DEA008A11E3218A11E02E83120313BD01FF2E1B
:100DFA00BD17152F0130BB07FF303B0784008A114E
:100E0A0002208A11C000003A0319F72F643A031925
:100E1A00152F0D3A0319152F113A0319FD2EE02E3D
:100E2A00BD1B2F2F3A08840083130008BE00840AD2
:100E3A000008BF000230B6003608BA07BF1F7C2F71
:100E4A000330B6003608BD04BE09BF09BE0A03193D
:100E5A00BF0A7C2F3A08840083130008BE00840A64
:100E6A000008BF000230B6003608BA077C2FC0015E
:100E7A00C00A053040060319852F4008B600360718
:100E8A00013E84008A1102208A11B7008A110220C9
:100E9A008A11B80038083F02031D552F37083E0251
:100EAA00031C852F0130B6003608C0073E2FC0014B
:100EBA00C00A043040060319852F4008B6003607D9
:100ECA000B3E84008A1102208A11B7008A1102207F
:100EDA008A11B80038083F02031D752F37083E02F1
:100EEA00031C852F0130B6003608C0075E2F3D0867
:100EFA008039003A03193C2F803A03195C2F852F59
:100F0A003D08033903198D2F2D308A11E3218A11E7
:100F1A00831203134008B6003608BC00E42F0A30D7
:100F2A00AE000030AF003C08B6003607013E840030
:100F3A008A1102208A11A6008A1102208A11A700AA
:100F4A003F08A9003E08A8008A1189228A11831243
:100F5A0003132708B1002608B0008A1155228A1106
:100F6A00831203132E08303EB7003708DF2F3C08E0
:100F7A00B60036070B3E84008A1102208A11A600A9
:100F8A008A1102208A11A7003F08A9003E08A8007A
:100F9A008A1189228A118312031326080F39B7008E
:100FAA003708B9003908133E84008A1102208A11D1
:100FBA00B6003608C00040088A11E3218A11FF30C2
:100FCA0083120313B6003608BC073C0A0319E02E45
:100FDA003D088039003A0319942F803A0319BC2F2F
:100FEA00E02FE02F0800CC01CD01CE01CF01D001C6
:060FFA0083018A11162E8E
:04400E003AEFFCFF8A
:00000001FF
