:040000008A11FB2F37
:100012000330F5007508F700831203130612061366
:1000220086122730F600F530F500F50B1628F60B90
:1000320016287708831203138600061706130D305D
:10004200F600FB30F500F50B2428F60B24282928AE
:1000520083120313061706138530F500F50B2F28BC
:1000620083120313061706138530F500F50B3728A4
:1000720002308312031386000617061328308A15EE
:10008200A6218A110C308A15A6218A118A151121FE
:100092008A1106308A15A6210800831203132F083D
:1000A200B5003008B6003108B7000310360D370D21
:1000B200B8003808B9003908031D66280030AF00BF
:1000C2000030B0000030B10008003208B50033083B
:1000D200B6003408B7000310360D370DB8003808E3
:1000E200BE003E08031D7C280030AF000030B00087
:1000F2000030B10008003E087B3EB5003508B90764
:100102002F08B5003008B6003108B70010300310D0
:10011200B70CB60CB50CFF3E031D88283508B80095
:100122003808BE003208B5003308B6003408B700FC
:1001320010300310B70CB60CB50CFF3E031D9A2805
:100142003508B8003808BE068030B5003508BE054F
:10015200B017B317FF30B205FF30B3050030B40556
:100162000030BA000030BB000030BC000730B500E0
:100172003508BD002F1CCB283208BA0733080311FB
:100182000318330A031DBB07340803110318340A8A
:10019200031DBC0701300310B10CB00CAF0CFF3EC5
:1001A200031DCC2801300310B20DB30DB40DFF3E78
:1001B200031DD4280130BD02031DBB280930B50040
:1001C2003508BD002F1CF3283208BA073308031183
:1001D2000318330A031DBB07340803110318340A3A
:1001E200031DBC0701300310B10CB00CAF0CFF3E75
:1001F200031DF42801300310BC0CBB0CBA0CFF3EEB
:10020200031DFC280130BD02031DE3283A08F0005B
:100212003B08F1003C08F2003908B5003508F3004C
:100222003E08B6003608F4008A157A247008831254
:100232000313AF007108B0007208B1000800831206
:100242000313CA00C801C901CB01CC014C08803A92
:10025200C6004508803A4602031D312944084B0274
:1002620003185329003083120313AF002030B0006B
:100272004130B1004108B2004208B3004308B40063
:100282008A114E208A11831203132F08C1003008ED
:10029200C2003108C3000130CB070318CC0A00307A
:1002A200CC072729831203133F084A07C6004608D2
:1002B200FF3E840083138001FF30BF070318C00A8A
:1002C200FF30C0074008CC003F08CB004C08803A02
:1002D200FF0080307F02031D702901304B02031C96
:1002E20008008312031344084504031D84292E3099
:1002F200C6004B084A07C7004708FF3E840046086D
:1003020083138000E8294308420441040319B229F7
:1003120048084904031DB2290A30A0000030A10098
:100322004108F0004208F1004308F2008A15E62471
:100332008A11710883120313A3007008A2008A15A0
:10034200C1228A11831203132008303EC6004B08D3
:100352004A07C7004708FF3E84004608831380000F
:10036200C1292030C6004B084A07C7004708FF3E94
:1003720084004608831380000130C8000030C900A1
:100382000A30A0000030A1004108F0004208F1004C
:100392004308F2008A15E6248A11710883120313B6
:1003A200A3007008A2008A155D238A118312031329
:1003B2002108AA002008A9008A15C9218A118312DE
:1003C20003132908C1002A08C2002B08C300FF300A
:1003D200C4070318C50AFF30C507FF30CB0703184F
:1003E200CC0AFF30CC076729831203133F08C500EC
:1003F2004008C6004108C7000310460D470DC8005B
:100402004808CB004208C5004308C6004408C7009C
:100412000310460D470DC8004808CA004B080319CF
:100422001E2A4A084B020318252A4B03FF3A4A07A1
:10043200C50019304502031C252A4208BF004308A3
:10044200C0004408C10008004A08031908004B080C
:100452004A020318342A4A03FF3A4B07C5001930EF
:100462004502031808000630C5004508C900C11B33
:10047200C917C41B4917C017FF30BF05FF30C0059D
:100482000030C105C317FF30C205FF30C30500307D
:10049200C4054A084B020318742A01300310C20D26
:1004A200C30DC40DFF3E031D4F2A0130CA024A0884
:1004B2004B0603196F2A0130C9024908073903198B
:1004C2006F2A4E2A01300310C10CC00CBF0CFF3E34
:1004D200031D642A0130C5004508CB074B084A06B4
:1004E20003199D2A632A4B084A0203189D2A0130E8
:1004F2000310BF0DC00DC10DFF3E031D792A01304F
:10050200CB024A084B060319992A0130C90249084D
:1005120007390319992A782A01300310C40CC30C35
:10052200C20CFF3E031D8E2A0130C5004508CA07D2
:100532004B084A06031D8D2AC91FAF2AFF30BF068A
:10054200FF30C006FF30C1060130BF07003003187C
:100552000130C007003003180130C107491FC12A0A
:10056200FF30C206FF30C306FF30C4060130C207A7
:10057200003003180130C307003003180130C407EC
:10058200C9013F08C207400803110318400A031DAE
:10059200C307410803110318410A031DC407C41FFE
:1005A200E42AFF30C206FF30C306FF30C406013022
:1005B200C207003003180130C307003003180130AE
:1005C200C407C901C90A4208F0004308F1004408FF
:1005D200F2004B08C5004508F3004908C60046086A
:1005E200F4008A157A24700883120313BF0071087D
:1005F200C0007208C100080083120313620861047C
:100602006004031D0B2B0030E0008030E1003F301E
:10061200E20008007230F0003130F1004430F200A4
:100622006008F3006108F4006208F5008A15B82337
:100632008A110318292B223083120313EE00003093
:10064200EF00FF30E0007F30E1007F30E200080081
:10065200831203136008F0006108F1006208F200DF
:100662004930F3003A30F400C430F5008A15B8235B
:100672008A110318492B223083120313EE00003033
:10068200EF000030E0000030E1000030E20008003E
:10069200831203136008F0006108F1006208F2009F
:1006A2000030F3000030F4000030F5008A15B82362
:1006B2008A1103185E2B01305F2B00308312031363
:1006C200E3006308EC006C080319782B6008F00063
:1006D2006108F1006208F2008A1500218A1170088F
:1006E20083120313E0007108E1007208E200AA30ED
:1006F200AF00B830B0003F30B1006008B20061080E
:10070200B3006208B4008A114E208A1183120313C7
:100712002F08E0003008E1003108E2006008CC0058
:100722006108CD006208CE008A1572258A118312F3
:1007320003134C08E4004D08E5004E08E600640887
:10074200F0006508F1006608F2008A15E6248A11B5
:10075200710883120313EB007008EA006B08AA0009
:100762006A08A9008A15C9218A118312031329086C
:10077200CC002A08CD002B08CE006008CF0061080B
:10078200D0006208D1008A1565218A1183120313F1
:100792004C08E0004D08E1004E08E2006008CC0081
:1007A2006108CD006208CE000130E3006308CF008B
:1007B2000930D0000030D1008A1515248A11831225
:1007C20003134C08D6004D08D7004E08D8006B081A
:1007D200DA006A08D9008A1500268A1183120313E7
:1007E2005608E0005708E1005808E2006C080319B7
:1007F2000800FF30E7007F30E8007F30E900620840
:100802006906031D0A2C61086806031D0A2C60088C
:100812006706031D132C0030E0000030E1000030B9
:10082200E20008006008CC006108CD006208CE003A
:100832000030CF008030D0003F30D1008A159026A2
:10084200831203134C08E0004D08E1004E08E20059
:10085200080083160313AC01220821042004031D9F
:10086200522C0030F0000030F1000030F20023087A
:10087200F3002408F4002508F5008A15B8238A112C
:10088200031C492C213083120313EE000030EF00C9
:10089200003083160313A0000030A1000030A20034
:1008A2000800250824042304031D5E2C0030A00048
:1008B2008030A1003F30A20008002008F00021088B
:1008C200F1002208F2000030F3000030F4000030A2
:1008D200F5008A15B8238A110318C62C8316031350
:1008E2002308F0002408F1002508F2008A15E62406
:1008F2008A11730883160313B0007208AF007108DF
:10090200AE007008AD003008FB002F08FA002E0878
:10091200F9002D08F8008A1516228A11831603138E
:1009220025087A06031D9B2C24087906031D9B2C9F
:10093200230878060319AC2C213083120313EE002E
:100942000030EF00003083160313A0000030A10036
:100952000030A20008002D08013983120313ED00B4
:100962006D0883160313AC002008F0002108F10083
:100972002208F2008A1500218A11700883160313D7
:10098200A0007108A1007208A200831603132008B8
:1009920083120313D6008316031321088312031351
:1009A200D70083160313220883120313D8008A1573
:1009B20047278A1183120313560883160313A600CE
:1009C20083120313570883160313A700831203131A
:1009D200580883160313A800230883120313AF00D9
:1009E20083160313240883120313B0008316031320
:1009F200250883120313B1008316031326088312FA
:100A02000313B20083160313270883120313B300E0
:100A120083160313280883120313B4008A114E208D
:100A22008A11831203132F0883160313A90083125A
:100A32000313300883160313AA0083120313310829
:100A420083160313AB00290883120313E0008316F5
:100A520003132A0883120313E100831603132B08DE
:100A620083120313E2008A11FD228A1183120313F7
:100A7200600883160313A000831203136108831610
:100A82000313A10083120313620883160313A20047
:100A92002C08031908002008F0002108F1002208A0
:100AA200F2008A150021700883160313A000710852
:100AB200A1007208A20008008A150E238A110030D4
:100AC20083160313C0000030C1000030C2000030A2
:100AD2008A15ED218A11710883160313CA00700862
:100AE200C90001308A15ED218A117108831603139A
:100AF200CC007008CB00003083120313A000043036
:100B0200A100831603134A08F1004908F000483097
:100B1200F200E830F3008A1585218A1171088312E8
:100B22000313A3007008A2008A155D238A118312A1
:100B320003132008363E83160313D30083120313D4
:100B420021080318013E003E83160313D4000A3025
:100B520083120313A0000030A1008316031354086C
:100B620083120313A3008316031353088312031380
:100B7200A2008A155D238A11831203132108AA0099
:100B82002008A9008A15C9218A1183120313290892
:100B920083160313CD00831203132A08831603134B
:100BA200CE00831203132B0883160313CF000030E9
:100BB200A0002030A1004130A2004D08A3004E0841
:100BC200A4004F08A5008A112A248A118316031350
:100BD2002008B4002108B5002208B60000308312B4
:100BE2000313A0000430A100831603134C08F10084
:100BF2004B08F0004830F200E830F3008A158521F6
:100C02008A11710883120313A3007008A2008A15C7
:100C12005D238A11831203132008363E83160313C1
:100C2200D3008312031321080318013E003E8316EA
:100C32000313D4000A3083120313A0000030A10072
:100C420083160313540883120313A300831603139A
:100C5200530883120313A2008A155D238A1183129B
:100C620003132108AA002008A9008A15C9218A11A4
:100C720083120313290883160313CD00831203136F
:100C82002A0883160313CE00831203132B0883163C
:100C92000313CF000030A0002030A1004130A20099
:100CA2004D08A3004E08A4004F08A5008A112A246B
:100CB2008A11831603132008B7002108B8002208FE
:100CC200B9003408A0003508A1003608A20000309F
:100CD200A3000030A4003F30A5008A112A248A1103
:100CE200831603132008C3002108C4002208C5008C
:100CF2003708A0003808A1003908A2000030A3007C
:100D02000030A4003F30A5008A112A248A118316DC
:100D120003132008C6002108C7002208C8004308A0
:100D220083120313BF0083160313440883120313B1
:100D3200C00083160313450883120313C1008316F0
:100D420003134608F0004708F1004808F2008A152C
:100D520000218A11700883120313C2007108C300B4
:100D62007208C4008A11F5218A11831203133F0805
:100D7200CC004008CD004108CE008316031346087C
:100D820083120313BF00831603134708831203134E
:100D9200C00083160313480883120313C10083168D
:100DA2000313430883120313C20083160313440878
:100DB20083120313C300831603134508831203131C
:100DC200C4008A11F5218A11831203133F08CF0050
:100DD2004008D0004108D1008A1590268A1183125A
:100DE20003134C0883160313C000831203134D0828
:100DF20083160313C100831203134E0883160313D1
:100E0200C20000308A1508218A112130831603138B
:100E1200B100B10B0A2F831603134A08831203137E
:100E2200AA0083160313490883120313A9008A1523
:100E3200C9218A1183120313290883160313D000D0
:100E4200831203132A0883160313D1008312031398
:100E52002B0883160313D200063083120313BF003C
:100E62000030C00083160313500883120313C1001D
:100E720083160313510883120313C200831603134C
:100E8200520883120313C3000030C400C500BA30F5
:100E92008A1120218A11BA30F3000030F4008A1539
:100EA20047218A11213083160313B100B10B572F4A
:100EB2006230F3008030F4008A1547218A11213014
:100EC20083160313B100B10B642F831603134C086E
:100ED20083120313AA00831603134B08831203130E
:100EE200A9008A15C9218A118312031329088316BE
:100EF2000313D000831203132A0883160313D100AD
:100F0200831203132B0883160313D20006308312B5
:100F12000313BF000030C00083160313500883126E
:100F22000313C10083160313510883120313C20073
:100F320083160313520883120313C3000030C40044
:100F4200C500BA308A1120218A11BA30F30000306C
:100F5200F4008A1547218A11213083160313B10048
:100F6200B10BB12F40308A1508218A112130831626
:100F72000313B100B10BBB2F5C30F3008030F400DF
:100F82008A1547218A11063083120313BF000030ED
:100F9200C00083160313400883120313C100831693
:100FA2000313410883120313C2008316031342087A
:100FB20083120313C3000230C4000030C500BA30EC
:100FC2008A1120218A11BA30F3000030F4008A1508
:100FD20047218A11023083160313B3000430B20092
:100FE200BA30B100B10BF32FB20BF32FB30BF32FC7
:100FF2000000682DEE01EF0183018A115D2DFF1BB8
:101002000A2883137F1883170008840A0319FF0A2A
:10101200080008308A000408840A82070034003479
:1010220080343F34723431343F34FE3475343E34CC
:10103200583463343D3495341D343C34C534AE34B5
:101042003A34793421343934943480343734933413
:10105200A734353456341534343400340034003473
:10106200003480343F34F034FF34BE34E234A934E7
:101072003E3483347634BE34AE342B343E343C3486
:10108200C334BD34D23413343D347834D334BB3416
:101092002034203420342034203420344D3445345C
:1010A2005434453452342034203420342034203413
:1010B20000342034203450344F34573445345234C1
:1010C20020342634203420345334573452342034DC
:1010D200203400345334573452343A3420340034F8
:0810E20020342F3420340034C7
:10120000720871047004031908008030F2060800A7
:10121000F3008312031306127308803E8A15A62179
:10122000080083120313061201308A15A6218A15BD
:101230000630F4003030F300F30B1C29F40B1C29AA
:1012400000000800F300F201731C2A297008F10065
:101250007108F2070310F00D0310F30C7308031D5F
:101260002429720808000530F00070088312031367
:101270009F051F083F3980389F00831603139F176F
:101280001F13CF309F05831203131F14080083120E
:1012900003130616740883120313FF0073088400F7
:1012A0008A1500208A15003A031908007408FF0007
:1012B000730884008A1500208A158A15A6218A15CC
:1012C0000130F3070318F40A4A29831203134E0866
:1012D0004D044C0403196E298030CE064F08BF0020
:1012E0005008C0005108C1004C08C2004D08C3009E
:1012F0004E08C4008A11F521831203133F08CC0065
:101300004008CD004108CE000800F401F501701C32
:101310008F297208F4070318F50A7308F5070130DE
:101320000310F20DF30DFF3E031D90290130031051
:10133000F10CF00CFF3E031D972970087104031D8A
:1013400087297508F1007408F0000800F2001A30CF
:10135000F000F00BA9290000F030831203130605FA
:10136000F0007208F10004300310F10CFF3E031D81
:10137000B42971080F397004860006170613F0307F
:101380000605F00072080F39700486000617061370
:10139000080083120313AE01AA1FD529A909AA09BF
:1013A000A90A0319AA0AAE01AE0A2908F0002A0800
:1013B000F100F2018E30AC002C08F3002E08AD00D5
:1013C0002D08F4008A157A24700883120313A900EB
:1013D0007108AA007208AB000800F4000730F200A0
:1013E0007208F405C530F2007208831203139F05DA
:1013F0007408F20002300310F20DFF3E031DFB29BA
:101400000310720DF30073089F040630F200F20B14
:10141000072A0000831203131F151F190D2A1E0827
:10142000F100831603131E08F00008008E30FC0044
:101430007C08FD00FF307B0503192C2A01300310C6
:10144000FB0CFA0CF90CF80CFF3E031D1F2A0130AF
:10145000FC007C08FD071A2A7808F0007908F100E2
:101460007A08F2007D08FC007C08F300F4018A157C
:101470007A247008F8007108F9007208FA00080070
:10148000720871047004031D522A730884008313C8
:101490008001840A80010030F0000030F10000304B
:1014A000F200080072087F39F400F5010310F40D12
:1014B000F50D73088400740883138000840A75088E
:1014C0008000710D710D0139F400F501730884007D
:1014D00074088004840A75088004730884008230CC
:1014E0008007840F00080318000AFF00FF307F0701
:1014F00080008403720880393F38F200F11308003D
:1015000083120313A7018E30A4002408A600A31F92
:10151000962AA009A109A209A309A00A0319A10AF0
:101520000319A20A0319A30AA701A70AFF3023057A
:101530000319A82A01300310A30CA20CA10CA00CC3
:10154000FF3E031D9B2A0130A4002408A607962A0B
:101550002008F0002108F1002208F2002608A4006B
:101560002408F3002708A5002508F4008A157A242A
:10157000700883120313A0007108A1007208A20072
:10158000080083120313A601A31FCD2AA209A309F1
:10159000A20A0319A30AA601A60AA11FD42AA00918
:1015A000A109A00A0319A10A200821040319012B8B
:1015B000A501A50AA11BE82A01300310A00DA10D69
:1015C000FF3E031DDD2A0130A4002408A507DA2A06
:1015D00021082302031DEE2A20082202031CF62AFA
:1015E0002008A2022108031CA303A3020130031058
:1015F000A10CA00CFF3E031DF72A0130A502031D1C
:10160000E82A26080319092BA209A309A20A03192B
:10161000A30A2308A1002208A000080007308316AF
:1016200003139C008B017A308F0003308500860104
:1016300083120313850186010330831603139B0075
:101640008A1109208A158A1533218A150630F90076
:101650003030F800F80B2A2BF90B2A2B0000003051
:101660008A1508218A152130F800F80B352B4B30EC
:10167000F3008030F4008A1547218A1540308A151E
:1016800008218A152130F800F80B442B3A30F3007A
:101690008030F4008A1547218A151030FA0039305D
:1016A000F9001B30F800F80B532BF90B532BFA0BF6
:1016B000532B5A2B8A151121080083120313A601FC
:1016C000A11F692BA009A109A00A0319A10AA6015B
:1016D000A60AA31F742BA209A309A20A0319A30A2D
:1016E0000130A4002408A606A701A80120082104AF
:1016F0000319AB2BA501A50AA11B8A2B01300310EE
:10170000A00DA10DFF3E031D7F2B0130A400240876
:10171000A5077C2B01300310A70DA80DFF3E031D6C
:101720008B2B21082302031D972B20082202031C68
:10173000A02B2008A2022108031CA303A302271444
:1017400001300310A10CA00CFF3E031DA12B0130A2
:10175000A502031D8A2B26080319B32BA709A80984
:10176000A70A0319A80A2808A1002708A000080052
:10177000F21FDF2B0030F6000030F7008030F80059
:101780007009F9007109FA007209FB00F90A0319DE
:10179000FA0A0319FB0A7908F6077A0803187A0F80
:1017A000D22BD32BF7077B0803187B0FD82BD92B11
:1017B000F8077608F0007708F1007808F200F51FC6
:1017C000062C0030F6000030F7008030F800730976
:1017D000F9007409FA007509FB00F90A0319FA0AFD
:1017E0000319FB0A7908F6077A0803187A0FF92B10
:1017F000FA2BF7077B0803187B0FFF2B002CF80749
:101800007608F3007708F4007808F5008030F206D7
:101810008030F50675087202031D08007408710215
:10182000031D0800730870020800033083120313BD
:10183000D2005208F00050088A1522218A1583121E
:1018400003134F0784008A150A208A15D3008A15CE
:101850000A208A15D4008A150A208A15D500500856
:1018600051040319732C0330D2005208F000FF30EA
:10187000D0070318D10AFF30D10750088A1522215A
:101880008A15831203134F0784008A150A208A15CC
:10189000BF008A150A208A15C0008A150A208A15F9
:1018A000C1005308AF005408B0005508B1004C08FF
:1018B000B2004D08B3004E08B4008A114E208A15BC
:1018C000831203132F08C2003008C3003108C4007C
:1018D0008A11F5218A15831203133F08D3004008AB
:1018E000D40041082E2C5308CC005408CD005508D4
:1018F000CE00080073080319822C7208710470046A
:10190000031D952C0030F0000030F1000030F20093
:1019100008000130F5007508F30701300310F20CE0
:10192000F10CF00CFF3E031D8E2CFE3072050319E6
:10193000B02C892C0130F5007508F3070130F00751
:10194000003003180130F107003003180130F207AE
:1019500001300310F20CF10CF00CFF3E031DA92C1A
:10196000FF3072050319C32C9A2C02307302031C3A
:10197000C52C0130F30201300310F00DF10DF20D12
:10198000FF3E031DBC2CF11FB52C7318CD2CFF306E
:10199000F0057F30F105FF30F2050310F30C7308FA
:1019A000F500F601F70110300310F50DF60DF70DF7
:1019B000FF3E031DD42C7508F0047608F104770867
:1019C000F204740803190800F21708007008F40004
:1019D0007108F5007208F6000310750D760DF7001A
:1019E0007708FD007D08031DFE2C0030F300003059
:1019F000F2000030F1000030F00008007008F40040
:101A00007108F5007208F60017300310F60CF50C9B
:101A1000F40CFF3E031D052D7408F7007708F8004D
:101A2000F117FF30F005FF30F1050030F2057008C6
:101A3000F9007108FA007208FB00FC018E30FD020B
:101A4000FD1F402D7D08803A8F3E0318302D003059
:101A5000F3000030F2000030F1000030F000080028
:101A600001300310FC0CFB0CFA0CF90CFF3E031DBB
:101A7000312D0130F4007408FD0703195B2D302D62
:101A800018307D02031C582D0030F3000030F200A6
:101A90000030F1000030F00008000130F4000310C5
:101AA000F90DFA0DFB0DFC0DF40B4F2D0130FD026D
:101AB0007D08031D4D2D78080319692DF909FA09D0
:101AC000FB09FC09F90A0319FA0A0319FB0A0319AD
:101AD000FC0A7C08F3007B08F2007A08F100790820
:101AE000F0000800831203134C08F0004D08F100C9
:101AF0004E08F2005330CF004F08F3008A15402201
:101B00008A1583120313D41FA82D4C08F0004D082A
:101B1000F1004E08F2000030F3000030F400003015
:101B2000F5008A15B8238A1503189F2D00308312FB
:101B30000313CC008030CD00BF30CE000800003051
:101B400083120313CC000030CD000030CE0008001B
:101B500000305402153003195302031808004C08D2
:101B6000F0004D08F1004E08F2008A15E6248A15AF
:101B7000730883120313A3007208A2007108A10066
:101B80007008A0008A1580228A158312031320088A
:101B9000D0002108D1002208D2004C08F0004D08E6
:101BA000F1004E08F2005008F3005108F40052080A
:101BB000F5008A15B8238A150318F72D0030831213
:101BC0000313BF008030C000BF30C1005008C20006
:101BD0005108C3005208C4008A11F521831203136F
:101BE0003F08CC004008CD004108CE000800831219
:101BF00003135008CC005108CD005208CE00080055
:101C000083120313580857045604031D0E2E003088
:101C1000D6000030D7000030D800080058087F39BF
:101C2000DB00DC010310DB0DDC0D5B08D9070318BA
:101C3000DA0A5C08DA07570D570D0139DB00DC01C1
:101C40005B08D9070318DA0A5C08DA07DA1F332EB3
:101C50002230EE000030EF000030D6000030D70018
:101C60000030D80008005A08803AFF0081307F0217
:101C7000031D3C2E00305902031C772E22308312A4
:101C80000313EE000030EF005608F0005708F10093
:101C90005808F2000030F3000030F4000030F50086
:101CA0008A15B8238A1503186E2EFF30831203138A
:101CB000DD007F30DE007F30DF005D08F0005E0871
:101CC000F1005F08F2008A150021700883120313E7
:101CD000D6007108D7007208D8000800FF308312C0
:101CE0000313D6007F30D7007F30D800080083125E
:101CF00003135A08DC005908DB005C0DDC0CDB0C1C
:101D000058085B0680395B06D80059080139DB00AA
:101D1000DB0CDB0C57085B067F395B06D70008003D
:101D2000831203134F08D2005008D3005108D40087
:101D30000310530D540DD5005508DA005A08031D41
:101D4000A82E0030CC000030CD000030CE000800BE
:101D50004C08D2004D08D3004E08D4000310530D98
:101D6000540DD5005508DB005B08031DBE2E003066
:101D7000CC000030CD000030CE0008000030D7008D
:101D80000030D8000030D90089305B07D2005208FB
:101D9000DA024F08D2005008D3005108D4001030A6
:101DA0000310D40CD30CD20CFF3E031DD02E5208CE
:101DB000D5005508DB004C08D2004D08D3004E0872
:101DC000D40010300310D40CD30CD20CFF3E031DF2
:101DD000E22E5208D5005508DB068030D2005208AA
:101DE000DB05D017FF30CF05FF30D0050030D1051F
:101DF000CD17FF30CC05FF30CD050030CE051830B3
:101E0000D2005208D60001300310D70DD80DD90DDD
:101E1000FF3E031D042F4E085102031D152F4D08D0
:101E20005002031D152F4C084F02031C222F4C0893
:101E3000CF024D08031C4D0FD0024E08031C4E0A62
:101E4000D102571401300310CF0DD00DD10DFF3E3C
:101E5000031D232F0130D602031D032F5708F00066
:101E60005808F1005908F2005A08D2005208F3004D
:101E70005B08D3005308F4008A157A247008831293
:101E80000313CC007108CD007208CE000800831245
:101E900003135608F0005708F1005808F20000300C
:101EA000F3000030F4000030F5008A15B8238A15DD
:101EB0000318672F213083120313EE000030EF0068
:101EC0000030D6000030D7000030D8000800831260
:101ED0000313580857045604031D792F2230EE00CF
:101EE0000030EF000030D6000030D7000030D800BE
:101EF00008000030BF008030C000BF30C10000309B
:101F0000AF000030B0004030B1005A30D90059085D
:101F1000F3005608F0005708F1005808F2008A153F
:101F200040228A15700883120313B2007108B300AF
:101F30007208B4008A114E208A15831203132F08E9
:101F4000C2003008C3003108C4008A11F5218A1587
:101F5000831203133F08D6004008D7004108D80079
:101F6000FF30DA070318DB0AFF30DB075608CC0026
:101F70005708CD005808CE001F30D9005908CF00AF
:101F80000830D0000030D1008A1515248A1583123C
:101F900003134C08D6004D08D7004E08D800560849
:101FA000BF005708C0005808C1007230AF00313080
:101FB000B0003F30B1005B08AA005A08A9008A159A
:101FC000C9218A15831203132908B2002A08B30015
:101FD0002B08B4008A114E208A15831203132F0890
:101FE000C2003008C3003108C4008A11F5218312F1
:101FF00003133F08D6004008D7004108D800080066
:04400E0050FFFFFF61
:00000001FF
