:040000008A11F92F39
:10001200F3008312031306127308803E8A154B21E4
:100022000800831203136608F0006708F1006808ED
:10003200F2000030F3000030F4000030F5008A15C1
:1000420099238A1103183428213083160313E100FF
:100052000030E200003083120313E6000030E700B4
:100062000030E8000800831203136808670466047E
:10007200031D4A28223083160313E1000030E200F8
:10008200003083120313E6000030E7000030E8007E
:1000920008000030CF008030D000BF30D1000030E7
:1000A200AF000030B0004030B1006A30E9006908AA
:1000B200F3006608F0006708F1006808F2008A158C
:1000C200E5218A11700883120313B2007108B3008C
:1000D2007208B4008A152E278A11831203132F087F
:1000E200D2003008D3003108D4008A11A6218A1127
:1000F200831203134F08E6005008E7005108E80096
:10010200FF30EA070318EB0AFF30EB076608DC0052
:100112006708DD006808DE001F30E9006908DF00BB
:100122000830E0000030E1008A15F6238A118312BC
:1001320003135C08E6005D08E7005E08E800660855
:10014200CF006708D0006808D1007230AF003130AC
:10015200B0003F30B1006B08AA006A08A9008A15F6
:100162006E218A11831203132908B2002A08B300F0
:100172002B08B4008A152E278A11831203132F0825
:10018200D2003008D3003108D4008A11A62183128C
:1001920003134F08E6005008E7005108E800080082
:1001A20083120313CA00C801C901CB01CC014C0858
:1001B200803AC6004508803A4602031DE2284408F8
:1001C2004B0203180429003083120313AF002030BE
:1001D200B0004130B1004108B2004208B300430808
:1001E200B4008A152E278A11831203132F08C10027
:1001F2003008C2003108C3000130CB070318CC0A13
:100202000030CC07D828831203133F084A07C600E0
:100212004608FF3E840083138001FF30BF070318A6
:10022200C00AFF30C0074008CC003F08CB004C0892
:10023200803AFF0080307F02031D212901304B02EA
:10024200031C08008312031344084504031D3529C7
:100252002E30C6004B084A07C7004708FF3E8400FD
:100262004608831380009929430842044104031974
:10027200632948084904031D63290A30A00000309D
:10028200A1004108F0004208F1004308F2008A157B
:10029200C7248A11710883120313A3007008A200F5
:1002A2008A15F1228A11831203132008303EC600F8
:1002B2004B084A07C7004708FF3E840046088313DD
:1002C200800072292030C6004B084A07C700470841
:1002D200FF3E84004608831380000130C8000030CE
:1002E200C9000A30A0000030A1004108F000420815
:1002F200F1004308F2008A15C7248A11710883129B
:100302000313A3007008A2008A153E238A118312E8
:1003120003132108AA002008A9008A156E218A1158
:10032200831203132908C1002A08C2002B08C30044
:10033200FF30C4070318C50AFF30C507FF30CB07DB
:100342000318CC0AFF30CC071829831203134F0875
:10035200D5005008D6005108D7000310560D570D8E
:10036200D8005808DB005208D5005308D6005408BC
:10037200D7000310560D570DD8005808DA005B0855
:100382000319CF295A085B020318D6295B03FF3AE7
:100392005A07D50019305502031CD6295208CF003E
:1003A2005308D0005408D10008005A080319080065
:1003B2005B085A020318E5295A03FF3A5B07D50086
:1003C20019305502031808000630D5005508D90027
:1003D200D11BD917D41B5917D017FF30CF05FF30C7
:1003E200D0050030D105D317FF30D205FF30D30539
:1003F2000030D4055A085B020318252A0130031085
:10040200D20DD30DD40DFF3E031D002A0130DA02B6
:100412005A085B060319202A0130D9025908073904
:100422000319202AFF2901300310D10CD00CCF0C64
:10043200FF3E031D152A0130D5005508DB075B0876
:100442005A0603194E2A142A5B085A0203184E2A26
:1004520001300310CF0DD00DD10DFF3E031D2A2A0E
:100462000130DB025A085B0603194A2A0130D9021D
:100472005908073903194A2A292A01300310D40CD2
:10048200D30CD20CFF3E031D3F2A0130D500550884
:10049200DA075B085A06031D3E2AD91F602AFF307D
:1004A200CF06FF30D006FF30D1060130CF07003033
:1004B20003180130D007003003180130D107591F4B
:1004C200722AFF30D206FF30D306FF30D406013045
:1004D200D207003003180130D3070030031801306F
:1004E200D407D9014F08D207500803110318500A44
:1004F200031DD307510803110318510A031DD40722
:10050200D41F952AFF30D206FF30D306FF30D4061F
:100512000130D207003003180130D307003003182E
:100522000130D407D901D90A5208F0005308F1006A
:100532005408F2005B08D5005508F3005908D600AC
:100542005608F4008A155B24700883120313CF0047
:100552007108D0007208D100080083160313BA0193
:100562002F082E042D04031DD62A0030F00000307F
:10057200F1000030F2003008F3003108F4003208D4
:10058200F5008A1599238A11031CCD2A213083167E
:100592000313E1000030E200003083160313AD00C4
:1005A2000030AE000030AF000800320831043004E1
:1005B200031DE22A0030AD008030AE003F30AF00B4
:1005C20008002D08F0002E08F1002F08F20000307C
:1005D200F3000030F4000030F5008A1599238A11E7
:1005E2000318422B831603133008F0003108F10080
:1005F2003208F2008A15C7248A117308831603137E
:10060200BE007208BD007108BC007008BB003E0845
:10061200FB003D08FA003C08F9003B08F8008A1587
:10062200BB218A118316031332087A06031D1F2B7E
:1006320031087906031D1F2B3008780603192C2B6D
:100642002130E1000030E2000030AD000030AE00A9
:100652000030AF0008003B080139B3003308BA008C
:100662002D08F0002E08F1002F08F2008A15CF2085
:100672008A11700883160313AD007108AE00720868
:10068200AF00831603132D0883120313E6008316AB
:1006920003132E0883120313E700831603132F0894
:1006A20083120313E8008A1112208A1183120313A2
:1006B200660883160313B4008312031367088316B4
:1006C2000313B50083120313680883160313B600DD
:1006D200300883120313AF00831603133108831209
:1006E2000313B00083160313320883120313B100FD
:1006F20083160313340883120313B2008316031301
:10070200350883120313B3008316031336088312CA
:100712000313B4008A152E278A11831203132F089C
:1007220083160313B70083120313300883160313CF
:10073200B80083120313310883160313B900370874
:10074200A0003808A1003908A2008A11C5238A1125
:10075200831603132008AD002108AE002208AF0063
:100762003A08031908002D08F0002E08F1002F089E
:10077200F2008A15CF20700883160313AD007108AA
:10078200AE007208AF00080083160313220821048A
:100792002004031DD32B0030A0008030A1003F3085
:1007A200A20008007230F0003130F1004430F20053
:1007B2002008F3002108F4002208F5008A15992385
:1007C2008A110318F12B223083160313E100003043
:1007D200E200FF30A0007F30A1007F30A2000800BD
:1007E200831603132008F0002108F1002208F2000A
:1007F2004930F3003A30F400C430F5008A159923E9
:100802008A110318112C223083160313E1000030E1
:10081200E2000030A0000030A1000030A200080079
:10082200831603132008F0002108F1002208F200C9
:100832000030F3000030F4000030F5008A159923EF
:100842008A110318262C0130272C0030831603133B
:10085200A3002308AC002C080319402C2008F00048
:100862002108F1002208F2008A15CF208A117008AF
:1008720083160313A0007108A1007208A200AA3017
:1008820083120313AF00B830B0003F30B1008316BB
:100892000313200883120313B200831603132108E3
:1008A20083120313B3008316031322088312031364
:1008B200B4008A152E278A11831203132F08831678
:1008C2000313A00083120313300883160313A1003D
:1008D20083120313310883160313A2002008831224
:1008E2000313DC0083160313210883120313DD00B4
:1008F20083160313220883120313DE008A1553257D
:100902008A11831203135C0883160313A400831253
:1009120003135D0883160313A500831203135E08F5
:1009220083160313A6002408F0002508F100260808
:10093200F2008A15C7248A11710883160313AB00CB
:100942007008AA002B0883120313AA00831603134C
:100952002A0883120313A9008A156E218A118312B1
:1009620003132908DC002A08DD002B08DE008316A9
:100972000313200883120313DF00831603132108D5
:1009820083120313E0008316031322088312031356
:10099200E1008A152B218A11831203135C08831646
:1009A2000313A000831203135D0883160313A1002F
:1009B200831203135E0883160313A2002008831216
:1009C2000313DC0083160313210883120313DD00D3
:1009D20083160313220883120313DE0001308316E9
:1009E2000313A300230883120313DF000930E0007E
:1009F2000030E1008A15F6238A11831203135C0882
:100A0200E6005D08E7005E08E800831603132B0882
:100A120083120313EA00831603132A0883120313B3
:100A2200E9008A15E1258A118312031366088316E9
:100A32000313A00083120313670883160313A10094
:100A420083120313680883160313A2002C080319E8
:100A52000800FF30A7007F30A8007F30A9002208DD
:100A62002906031D3A2D21082806031D3A2D2008C8
:100A72002706031D432D0030A0000030A1000030E6
:100A8200A2000800200883120313BF008316031379
:100A9200210883120313C000831603132208831252
:100AA2000313C1000030C2008030C3003F30C400D5
:100AB2008A157726831203133F0883160313A000B7
:100AC20083120313400883160313A1008312031336
:100AD200410883160313A20008008A15AB228A116B
:100AE20001308A1592218A11710883120313AA0018
:100AF2007008A9008A156E218A118312031329082E
:100B020083160313C000831203132A0883160313E8
:100B1200C100831203132B0883160313C200013092
:100B22008A1592218A11710883120313AA00700890
:100B3200A9008A156E218A118312031329088316CC
:100B42000313C300831203132A0883160313C4007A
:100B5200831203132B0883160313C500003083127C
:100B62000313CF005830D0004230D1000030BF0014
:100B72008030C0004430C100DD30AF006A30B000C8
:100B82004730B10083160313400883120313B200E7
:100B920083160313410883120313B300831603134E
:100BA200420883120313B4008A152E278A11831276
:100BB20003132F08C2003008C3003108C4008A158D
:100BC20077268A11831203133F08D2004008D3000C
:100BD2004108D4008A11A6218A11831203134F08F7
:100BE20083160313DB0083120313500883160313C7
:100BF200DC0083120313510883160313DD00003057
:100C020083120313BF002030C0004130C10083169D
:100C120003135B0883120313C200831603135C08D9
:100C220083120313C300831603135D088312031395
:100C3200C4008A1577268A11831203133F0883168C
:100C42000313DE0083120313400883160313DF002D
:100C520083120313410883160313E0000030AD0032
:100C62002030AE004130AF005E08B0005F08B10036
:100C72006008B2008A11AE228A11831603132D086E
:100C8200C6002E08C7002F08C800003083120313C5
:100C9200CF005830D0004230D1000030BF00803049
:100CA200C0004430C100DD30AF006A30B0004730D0
:100CB200B10083160313430883120313B200831691
:100CC2000313440883120313B30083160313450866
:100CD20083120313B4008A152E278A118312031379
:100CE2002F08C2003008C3003108C4008A157726D5
:100CF2008A11831203133F08D2004008D30041082F
:100D0200D4008A11A6218A11831203134F08831675
:100D12000313DB0083120313500883160313DC0052
:100D220083120313510883160313DD00003083126C
:100D32000313BF002030C0004130C10083160313EB
:100D42005B0883120313C200831603135C08831229
:100D52000313C300831603135D0883120313C40035
:100D62008A1577268A11831203133F088316031309
:100D7200DE0083120313400883160313DF0083127D
:100D82000313410883160313E0000030AD00203046
:100D9200AE004130AF005E08B0005F08B1006008ED
:100DA200B2008A11AE228A11831603132D08C900DC
:100DB2002E08CA002F08CB00550883120313CF0058
:100DC20083160313560883120313D00083160313EA
:100DD200570883120313D100831603135808F00037
:100DE2005908F1005A08F2008A15CF208A117008BA
:100DF20083120313D2007108D3007208D4008A113F
:100E0200A6218A11831203134F08BF005008C000A5
:100E12005108C10083160313580883120313CF002D
:100E220083160313590883120313D0008316031386
:100E32005A0883120313D100831603135508831231
:100E42000313D20083160313560883120313D3002D
:100E520083160313570883120313D4008A11A621A1
:100E62008A11831203134F08C2005008C3005108AD
:100E7200C4008A1577268A11831203133F0883164A
:100E82000313CC0083120313400883160313CD000F
:100E920083120313410883160313CE0000308A1114
:100EA20009208A11213083160313BF00BF0B572F6D
:100EB200063083120313BF000030C00083160313F1
:100EC200460883120313C1008316031347088312D3
:100ED2000313C20083160313480883120313C300CB
:100EE2000230C4000030C500CF308A11D1208A11EF
:100EF200CF30F3000030F4008A150D218A11213021
:100F020083160313BF00BF0B842F6230F3008030BF
:100F1200F4008A150D218A11213083160313BF00B4
:100F2200BF0B912F063083120313BF000030C000A5
:100F320083160313490883120313C1008316031394
:100F42004A0883120313C200831603134B08831249
:100F52000313C3000230C4000030C500CF308A1131
:100F6200D1208A11CF30F3000030F4008A150D2110
:100F72008A11213083160313BF00BF0BBE2F4030EE
:100F82008A1109208A11213083160313BF00BF0B77
:100F9200C82F5C30F3008030F4008A150D218A11CD
:100FA200063083120313BF000030C0008316031300
:100FB2004C0883120313C100831603134D088312D6
:100FC2000313C200831603134E0883120313C300D4
:100FD2000230C4000030C500CF308A11D1208A11FE
:100FE200CF30F3000030F4008A150D218A11712DE3
:100FF20083160313E101E20183018A116E2DFF1BA7
:101002000A2883137F1883170008840A0319FF0A2A
:10101200080008308A000408840A82070034003479
:1010220080343F34723431343F34FE3475343E34CC
:10103200583463343D3495341D343C34C534AE34B5
:101042003A34793421343934943480343734933413
:10105200A734353456341534343400340034003473
:10106200003480343F34F034FF34BE34E234A934E7
:101072003E3483347634BE34AE342B343E343C3486
:10108200C334BD34D23413343D347834D334BB3416
:101092002034203420342034203420344D3445345C
:1010A2005434453452342034203420342034203413
:1010B20000342034203450344F34573445345234C1
:1010C20020342634203420345334573452342034DC
:1010D200203400345334573452343A3420340034F8
:0810E20020342F3420340034C7
:10119E00720871047004031908008030F20608000A
:1011AE0083120313061201308A154B218A1506305D
:1011BE00F4003030F300F30BE228F40BE2280000C9
:1011CE000800F300F201731CF0287008F10071089A
:1011DE00F2070310F00D0310F30C7308031DEA2839
:1011EE00720808000530F0007008831203139F0583
:1011FE001F083F3980389F00831603139F171F1354
:10120E0030309F04831203131F140800831203133C
:10121E000616740883120313FF00730884008A15E0
:10122E0000208A15003A031908007408FF0073089D
:10123E0084008A1500208A158A154B218A150130E3
:10124E00F3070318F40A1029831203135E085D04D2
:10125E005C04031934298030DE065F08CF00600875
:10126E00D0006108D1005C08D2005D08D3005E0892
:10127E00D4008A11A621831203134F08DC005008F4
:10128E00DD005108DE000800F2001A30F000F00B0D
:10129E004E290000F030831203130605F000720889
:1012AE00F10004300310F10CFF3E031D59297108A3
:1012BE000F397004860006170613F0300605F0008D
:1012CE0072080F3970048600061706130800831281
:1012DE000313AE01AA1F7A29A909AA09A90A03199B
:1012EE00AA0AAE01AE0A2908F0002A08F100F2019E
:1012FE008E30AC002C08F3002E08AD002D08F40043
:10130E008A155B24700883120313A9007108AA00C2
:10131E007208AB000800F4000730F2007208F40502
:10132E00C530F2007208831203139F057408F20091
:10133E0002300310F20DFF3E031DA0290310720DA3
:10134E00F30073089F040630F200F20BAC29000084
:10135E00831203131F151F19B2291E08F1008316DD
:10136E0003131E08F00008008E30FC007C08FD0000
:10137E00FF307B050319D12901300310FB0CFA0C49
:10138E00F90CF80CFF3E031DC4290130FC007C084B
:10139E00FD07BF297808F0007908F1007A08F200FD
:1013AE007D08FC007C08F300F4018A155B247008AC
:1013BE00F8007108F9007208FA000800720871044A
:1013CE007004031DF7297308840083138001840AB7
:1013DE0080010030F0000030F1000030F200080013
:1013EE0072087F39F400F5010310F40DF50D730842
:1013FE008400740883138000840A75088000710DC0
:10140E00710D0139F400F50173088400740880042D
:10141E00840A750880047308840082308007840F64
:10142E0000080318000AFF00FF307F0780008403C6
:10143E00720880393F38F200F1130800831203134B
:10144E00A7018E30A4002408A600A31F3B2AA009E2
:10145E00A109A209A309A00A0319A10A0319A20A44
:10146E000319A30AA701A70AFF30230503194D2A62
:10147E0001300310A30CA20CA10CA00CFF3E031D07
:10148E00402A0130A4002408A6073B2A2008F000B9
:10149E002108F1002208F2002608A4002408F30017
:1014AE002708A5002508F4008A155B24700883120E
:1014BE000313A0007108A1007208A20008000330F7
:1014CE00F5007508F7008312031306120613861231
:1014DE002730F600F530F500F50B732AF60B732A5C
:1014EE007708831203138600061706130D30F600D5
:1014FE00FB30F500F50B812AF60B812A862A831222
:10150E000313061706138530F500F50B8C2A83128C
:10151E000313061706138530F500F50B942A0230D7
:10152E008312031386000617061328308A154B21E3
:10153E008A150C308A154B218A158A15D7208A15E3
:10154E0006308A154B2108000730831603139C00C2
:10155E0003308500860183120313850186010F3047
:10156E00831603139B008B018A1566228A158A1532
:10157E00F9208A150630F9003030F800F80BC52A2C
:10158E00F90BC52A000000308A1109208A15213076
:10159E00F800F80BD02A4B30F3008030F4008A1597
:1015AE000D218A1540308A1109208A152130F80044
:1015BE00F80BDF2A3A30F3008030F4008A150D2143
:1015CE008A154E30F900EB30F800F80BEC2AF90BC7
:1015DE00EC2A080083120313A601A31FFD2AA209F9
:1015EE00A309A20A0319A30AA601A60AA11F042B86
:1015FE00A009A109A00A0319A10A200821040319B0
:10160E00312BA501A50AA11B182B01300310A00D2B
:10161E00A10DFF3E031D0D2B0130A4002408A507CC
:10162E000A2B21082302031D1E2B20082202031C55
:10163E00262B2008A2022108031CA303A3020130BB
:10164E000310A10CA00CFF3E031D272B0130A50299
:10165E00031D182B26080319392BA209A309A20A68
:10166E000319A30A2308A1002208A0000800831270
:10167E000313A601A11F4A2BA009A109A00A031951
:10168E00A10AA601A60AA31F552BA209A309A20A05
:10169E000319A30A0130A4002408A606A701A80175
:1016AE002008210403198C2BA501A50AA11B6B2B65
:1016BE0001300310A00DA10DFF3E031D602B013064
:1016CE00A4002408A5075D2B01300310A70DA80D5B
:1016DE00FF3E031D6C2B21082302031D782B2008CF
:1016EE002202031C812B2008A2022108031CA30343
:1016FE00A302271401300310A10CA00CFF3E031D02
:10170E00822B0130A502031D6B2B26080319942B87
:10171E00A709A809A70A0319A80A2808A1002708DB
:10172E00A0000800F21FC02B0030F6000030F700BA
:10173E008030F8007009F9007109FA007209FB0097
:10174E00F90A0319FA0A0319FB0A7908F6077A0847
:10175E0003187A0FB32BB42BF7077B0803187B0FF4
:10176E00B92BBA2BF8077608F0007708F100780845
:10177E00F200F51FE72B0030F6000030F700803046
:10178E00F8007309F9007409FA007509FB00F90AEB
:10179E000319FA0A0319FB0A7908F6077A080318DF
:1017AE007A0FDA2BDB2BF7077B0803187B0FE02B66
:1017BE00E12BF8077608F3007708F4007808F500B7
:1017CE008030F2068030F50675087202031D08009F
:1017DE0074087102031D08007308700208000330BC
:1017EE0083120313E2006208F00060088A15E820F5
:1017FE008A15831203135F0784008A150A208A153F
:10180E00E3008A150A208A15E4008A150A208A1533
:10181E00E500600861040319542C0330E2006208ED
:10182E00F000FF30E0070318E10AFF30E10760081F
:10183E008A15E8208A15831203135F0784008A1520
:10184E000A208A15CF008A150A208A15D0008A151B
:10185E000A208A15D1006308AF006408B00065083D
:10186E00B1005C08B2005D08B3005E08B4008A15D2
:10187E002E278A15831203132F08D2003008D300A7
:10188E003108D4008A11A6218A15831203134F083A
:10189E00E3005008E40051080F2C6308DC006408D4
:1018AE00DD006508DE00080073080319632C72085A
:1018BE0071047004031D762C0030F0000030F1002E
:1018CE000030F20008000130F5007508F307013012
:1018DE000310F20CF10CF00CFF3E031D6F2CFE30CA
:1018EE0072050319912C6A2C0130F5007508F30767
:1018FE000130F007003003180130F10700300318F3
:10190E000130F20701300310F20CF10CF00CFF3E27
:10191E00031D8A2CFF3072050319A42C7B2C023078
:10192E007302031CA62C0130F30201300310F00DDC
:10193E00F10DF20DFF3E031D9D2CF11F962C731819
:10194E00AE2CFF30F0057F30F105FF30F2050310AD
:10195E00F30C7308F500F601F70110300310F50DC6
:10196E00F60DF70DFF3E031DB52C7508F004760835
:10197E00F1047708F204740803190800F21708003E
:10198E007008F4007108F5007208F6000310750D6A
:10199E00760DF7007708FD007D08031DDF2C003063
:1019AE00F3000030F2000030F1000030F0000800CB
:1019BE007008F4007108F5007208F6001730031075
:1019CE00F60CF50CF40CFF3E031DE62C7408F70024
:1019DE007708F800F117FF30F005FF30F105003001
:1019EE00F2057008F9007108FA007208FB00FC019C
:1019FE008E30FD02FD1F212D7D08803A8F3E03188B
:101A0E00112D0030F3000030F2000030F1000030F4
:101A1E00F000080001300310FC0CFB0CFA0CF90C62
:101A2E00FF3E031D122D0130F4007408FD0703194B
:101A3E003C2D112D18307D02031C392D0030F30082
:101A4E000030F2000030F1000030F00008000130EC
:101A5E00F4000310F90DFA0DFB0DFC0DF40B302DF7
:101A6E000130FD027D08031D2E2D780803194A2D25
:101A7E00F909FA09FB09FC09F90A0319FA0A03190B
:101A8E00FB0A0319FC0A7C08F3007B08F2007A08B3
:101A9E00F1007908F0000800831203135C08F000CF
:101AAE005D08F1005E08F2006330DF005F08F300AE
:101ABE008A15E5218A1583120313E41F892D5C080C
:101ACE00F0005D08F1005E08F2000030F300003017
:101ADE00F4000030F5008A1599238A150318802D1D
:101AEE00003083120313DC008030DD00BF30DE00D7
:101AFE000800003083120313DC000030DD000030DC
:101B0E00DE0008000030640215300319630203186A
:101B1E0008005C08F0005D08F1005E08F2008A150E
:101B2E00C7248A15730883120313A3007208A20038
:101B3E007108A1007008A0008A1525228A1583124B
:101B4E0003132008E0002108E1002208E2005C08EF
:101B5E00F0005D08F1005E08F2006008F300610815
:101B6E00F4006208F5008A1599238A150318D82DFA
:101B7E00003083120313CF008030D000BF30D1006D
:101B8E006008D2006108D3006208D4008A11A62131
:101B9E00831203134F08DC005008DD005108DE00ED
:101BAE000800831203136008DC006108DD00620880
:101BBE00DE00080083120313680867046604031D21
:101BCE00EF2D0030E6000030E7000030E80008009E
:101BDE0068087F39EB00EC010310EB0DEC0D6B0880
:101BEE00E9070318EA0A6C08EA07670D670D013961
:101BFE00EB00EC016B08E9070318EA0A6C08EA0728
:101C0E00EA1F182E223083160313E1000030E20083
:101C1E00003083120313E6000030E7000030E800C6
:101C2E0008006A08803AFF0081307F02031D212ED2
:101C3E0000306902031C5E2E223083160313E1006E
:101C4E000030E200831203136608F0006708F1000B
:101C5E006808F2000030F3000030F4000030F500A8
:101C6E008A1599238A150318552EFF3083120313F4
:101C7E00ED007F30EE007F30EF006D08F0006E0853
:101C8E00F1006F08F2008A15CF207008831203133B
:101C9E00E6007108E7007208E8000800FF308312C2
:101CAE000313E6007F30E7007F30E8000800831260
:101CBE0003136A08EC006908EB006C0DEC0CEB0CDE
:101CCE0068086B0680396B06E80069080139EB007D
:101CDE00EB0CEB0C67086B067F396B06E700080010
:101CEE00831203134208C5004308C6004408C70008
:101CFE000310460D470DC8004808CD004D08031DC2
:101D0E008F2E0030BF000030C0000030C100080030
:101D1E003F08C5004008C6004108C7000310460D25
:101D2E00470DC8004808CE004E08031DA52E0030F2
:101D3E00BF000030C0000030C10008000030CA00F3
:101D4E000030CB000030CC0089304E07C50045086E
:101D5E00CD024208C5004308C6004408C700103033
:101D6E000310C70CC60CC50CFF3E031DB72E45084D
:101D7E00C8004808CE003F08C5004008C60041080C
:101D8E00C70010300310C70CC60CC50CFF3E031D58
:101D9E00C92E4508C8004808CE068030C500450843
:101DAE00CE05C317FF30C205FF30C3050030C40592
:101DBE00C017FF30BF05FF30C0050030C105183019
:101DCE00C5004508C90001300310CA0DCB0DCC0D5E
:101DDE00FF3E031DEB2E41084402031DFC2E40085E
:101DEE004302031DFC2E3F084202031C092F3F082D
:101DFE00C2024008031C400FC3024108031C410AE3
:101E0E00C4024A1401300310C20DC30DC40DFF3EAF
:101E1E00031D0A2F0130C902031DEA2E4A08F000E5
:101E2E004B08F1004C08F2004D08C5004508F300C0
:101E3E004E08C6004608F4008A155B24700883120B
:101E4E000313BF007108C0007208C100080083129E
:101E5E0003132F08B5003008B6003108B700031081
:101E6E00360D370DB8003808B9003908031D462F56
:101E7E000030AF000030B0000030B1000800320872
:101E8E00B5003308B6003408B7000310360D370D11
:101E9E00B8003808BE003E08031D5C2F0030AF00AE
:101EAE000030B0000030B10008003E087B3EB500A7
:101EBE003508B9072F08B5003008B6003108B7004D
:101ECE0010300310B70CB60CB50CFF3E031D682F77
:101EDE003508B8003808BE003208B5003308B60021
:101EEE003408B70010300310B70CB60CB50CFF3E1B
:101EFE00031D7A2F3508B8003808BE068030B500AD
:101F0E003508BE05B017B317FF30B205FF30B30565
:101F1E000030B4050030BA000030BB000030BC0009
:101F2E000730B5003508BD002F1CAB2F3208BA079D
:101F3E00330803110318330A031DBB0734080311BA
:101F4E000318340A031DBC0701300310B10CB00C8A
:101F5E00AF0CFF3E031DAC2F01300310B20DB30DBD
:101F6E00B40DFF3E031DB42F0130BD02031D9B2F88
:101F7E000930B5003508BD002F1CD32F3208BA0723
:101F8E00330803110318330A031DBB07340803116A
:101F9E000318340A031DBC0701300310B10CB00C3A
:101FAE00AF0CFF3E031DD42F01300310BC0CBB0C35
:101FBE00BA0CFF3E031DDC2F0130BD02031DC32FE3
:101FCE003A08F0003B08F1003C08F2003908B50071
:101FDE003508F3003E08B6003608F4008A155B2477
:101FEE00700883120313AF007108B0007208B100BD
:021FFE000800D9
:04400E00DCFFFFFFD5
:00000001FF
