:100000008A11EE2F831203133F083E043D040319A7
:100010000B288030BF064008B0004108B1004208FC
:10002000B2003D08B3003E08B4003F08B5008A1195
:100030005123831203133008BD003108BE0032087B
:10004000BF000800831203134008C3004108C40026
:100050004208C5000310440D450DC6004608CB00FC
:100060004B08031D3A280030BD000030BE000030B0
:10007000BF0008003D08C3003E08C4003F08C5009B
:100080000310440D450DC6004608CC004C08031D66
:1000900050280030BD000030BE000030BF00080016
:1000A0000030C8000030C9000030CA0089304C0759
:1000B000C3004308CB024008C3004108C400420803
:1000C000C50010300310C50CC40CC30CFF3E031D4B
:1000D00062284308C6004608CC003D08C3003E081D
:1000E000C4003F08C50010300310C50CC40CC30C7D
:1000F000FF3E031D74284308C6004608CC06803026
:10010000C3004308CC05C117FF30C005FF30C1054F
:100110000030C205BE17FF30BD05FF30BE05003000
:10012000BF051830C3004308C70001300310C80DD5
:10013000C90DCA0DFF3E031D96283F084202031D4C
:10014000A7283E084102031DA7283D084002031CC2
:10015000B4283D08C0023E08031C3E0FC1023F0800
:10016000031C3F0AC202481401300310C00DC10D28
:10017000C20DFF3E031DB5280130C702031D95289F
:100180004808F0004908F1004A08F2004B08C30093
:100190004308F3004C08C4004408F4008A155825AD
:1001A000700883120313BD007108BE007208BF00FF
:1001B0000800831203134708F0004808F1004908BB
:1001C000F2000030F3000030F4000030F5008A1532
:1001D00096248A110318FB28213083160313C600C6
:1001E0000030C700003083120313C7000030C8007E
:1001F0000030C9000800831203134908480447046B
:10020000031D1129223083160313C6000030C700D6
:10021000003083120313C7000030C8000030C9004B
:1002200008000030B0008030B100BF30B2000030B4
:10023000A0000030A1004030A2004B30CA004A08A4
:10024000F3004708F0004808F1004908F2008A1559
:10025000DD228A11700883120313A3007108A40021
:100260007208A5008A1198218A11831203132008AD
:10027000B3002108B4002208B5008A1151238A1165
:10028000831203133008C7003108C8003208C900C0
:10029000FF30CB070318CC0AFF30CC074708BD005E
:1002A0004808BE004908BF001F30CA004A08C00005
:1002B0000830C1000030C2008A15F3248A1183126D
:1002C00003133D08C7003E08C8003F08C90047089F
:1002D000B0004808B1004908B2007230A0003130C7
:1002E000A1003F30A2004C08F9004B08F8008A1525
:1002F000EA218A11780883120313A3007908A40065
:100300007A08A5008A1198218A1183120313200804
:10031000B3002108B4002208B5008A1151238312CA
:1003200003133008C7003108C8003208C9000800AC
:10033000831203132008A6002108A7002208A800A2
:100340000310270D280DA9002908AA002A08031D5B
:10035000B0290030A0000030A1000030A200080049
:100360002308A6002408A7002508A8000310270DCD
:10037000280DA9002908AF002F08031DC629003049
:10038000A0000030A1000030A20008002F087B3E32
:10039000A6002608AA072008A6002108A700220810
:1003A000A80010300310A80CA70CA60CFF3E031DDC
:1003B000D2292608A9002908AF002308A60024088E
:1003C000A7002508A80010300310A80CA70CA60C45
:1003D000FF3E031DE4292608A9002908AF06803046
:1003E000A6002608AF05A117A417FF30A305FF300C
:1003F000A4050030A5050030AB000030AC00003093
:10040000AD000730A6002608AE00201C152A2308E0
:10041000AB07240803110318240A031DAC072508A1
:1004200003110318250A031DAD0701300310A20CA8
:10043000A10CA00CFF3E031D162A01300310A30DD2
:10044000A40DA50DFF3E031D1E2A0130AE02031DA3
:10045000052A0930A6002608AE00201C3D2A2308E4
:10046000AB07240803110318240A031DAC07250851
:1004700003110318250A031DAD0701300310A20C58
:10048000A10CA00CFF3E031D3E2A01300310AD0C51
:10049000AC0CAB0CFF3E031D462A0130AE02031D1F
:1004A0002D2A2B08F0002C08F1002D08F2002A0854
:1004B000A6002608F3002F08A7002708F4008A15D5
:1004C0005825700883120313A0007108A100720858
:1004D000A200080083120313EB0160085F045E04AE
:1004E000031D922A0030F0000030F1000030F200CD
:1004F0006108F3006208F4006308F5008A15962489
:100500008A11031C892A213083160313C600003088
:10051000C700003083120313DE000030DF0000301C
:10052000E0000800630862046104031D9E2A003095
:10053000DE008030DF003F30E00008005E08F000A1
:100540005F08F1006008F2000030F3000030F400B2
:100550000030F5008A1596248A110318022B8312A5
:1005600003136108B0006208B1006308B2008A1585
:100570004E268A11831203133308EF003208EE006F
:100580003108ED003008EC006F08FB006E08FA003F
:100590006D08F9006C08F8008A1577228A11831219
:1005A000031363087A06031DDB2A62087906031D1C
:1005B000DB2A610878060319EC2A2130831603131D
:1005C000C6000030C700003083120313DE00003085
:1005D000DF000030E00008006C080139E400640826
:1005E000EB005E08F0005F08F1006008F2008A1579
:1005F00054218A11700883120313DE007108DF0092
:100600007208E000831203135E08C7005F08C80089
:100610006008C9008A11D9208A1183120313470880
:10062000E5004808E6004908E7006108A000620804
:10063000A1006308A2006508A3006608A40067087B
:10064000A5008A1198218A11831203132008E8005B
:100650002108E9002208EA006808D1006908D200F0
:100660006A08D3008A1159248A118312031351088E
:10067000DE005208DF005308E0006B080319080091
:100680005E08F0005F08F1006008F2008A1554214E
:10069000700883120313DE007108DF007208E000A7
:1006A0000800831203133008B6003108B70032087F
:1006B000B8000310370D380DB9003908BC003308F5
:1006C000B6003408B7003508B8000310370D380DF0
:1006D000B9003908BB003C0803197A2B3B083C02DF
:1006E0000318812B3C03FF3A3B07B6001930360252
:1006F000031C812B3308B0003408B1003508B20068
:1007000008003B08031908003C083B020318902B23
:100710003B03FF3A3C07B6001930360203180800C5
:100720000630B6003608BA00B21BBA17B51B3A1726
:10073000B117FF30B005FF30B1050030B205B41776
:10074000FF30B305FF30B4050030B5053B083C026F
:100750000318D02B01300310B30DB40DB50DFF3EBF
:10076000031DAB2B0130BB023B083C060319CB2B0E
:100770000130BA023A0807390319CB2BAA2B0130F2
:100780000310B20CB10CB00CFF3E031DC02B0130A6
:10079000B6003608BC073C083B060319F92BBF2BF3
:1007A0003C083B020318F92B01300310B00DB10DCA
:1007B000B20DFF3E031DD52B0130BC023B083C06A9
:1007C0000319F52B0130BA023A0807390319F52B42
:1007D000D42B01300310B50CB40CB30CFF3E031D39
:1007E000EA2B0130B6003608BB073C083B06031D68
:1007F000E92BBA1F0B2CFF30B006FF30B106FF30DB
:10080000B2060130B007003003180130B1070030E4
:1008100003180130B2073A1F1D2CFF30B306FF301A
:10082000B406FF30B5060130B307003003180130BD
:10083000B407003003180130B507BA013008B30718
:10084000310803110318310A031DB40732080311DC
:100850000318320A031DB507B51F402CFF30B3063D
:10086000FF30B406FF30B5060130B307003003187F
:100870000130B407003003180130B507BA01BA0AD5
:100880003308F0003408F1003508F2003C08B600E7
:100890003608F3003A08B7003708F4008A155825DF
:1008A000700883120313B0007108B1007208B2001F
:1008B000080083120313530852045104031D672CCC
:1008C0000030D1008030D2003F30D30008007230B9
:1008D000F0003130F1004430F2005108F3005208CA
:1008E000F4005308F5008A1596248A110318862C03
:1008F000223083160313C6000030C700FF30831276
:10090000D1007F30D2007F30D30008008312031360
:100910005108F0005208F1005308F2004930F3008A
:100920003A30F400C430F5008A1596248A11031871
:10093000A82C223083160313C6000030C7000030F5
:1009400083120313D1000030D2000030D30008001E
:10095000831203135108F0005208F1005308F2000B
:100960000030F3000030F4000030F5008A159624C2
:100970008A110318BD2C0130BE2C003083120313E2
:10098000D4005408DD005D080319D72C5108F0008D
:100990005208F1005308F2008A1554218A11700898
:1009A00083120313D1007108D2007208D300AA3059
:1009B000A000B830A1003F30A2005108A3005208A7
:1009C000A4005308A5008A1198218A1183120313E9
:1009D0002008D1002108D2002208D3005108C60007
:1009E0005208C7005308C8008A15DC268A118312F2
:1009F00003134608D5004708D6004808D700550815
:100A0000B0005608B1005708B2008A154E268A1168
:100A1000831203133108DC003008DB005C08F900A6
:100A20005B08F8008A15EA218A11780883120313FB
:100A3000BD007908BE007A08BF005108C000520806
:100A4000C1005308C2008A1102208A1183120313C5
:100A50003D08D1003E08D2003F08D3005108BD0038
:100A60005208BE005308BF000130D4005408C00033
:100A70000930C1000030C2008A15F3248A118312A4
:100A800003133D08C7003E08C8003F08C9005C08C2
:100A9000CB005B08CA008A156A278A1183120313E8
:100AA0004708D1004808D2004908D3005D0803195F
:100AB0000800FF30D8007F30D9007F30DA005308BB
:100AC0005A06031D692D52085906031D692D510848
:100AD0005806031D722D0030D1000030D2000030C6
:100AE000D30008005108BD005208BE005308BF00E3
:100AF0000030C0008030C1003F30C2008A11222087
:100B0000831203133D08D1003E08D2003F08D300F2
:100B100008008A15EE238A11003083160313AD00F6
:100B20000030AE000030AF0000308A154E228A112E
:100B3000710883160313AA007008A90001308A15F2
:100B40004E228A11710883160313AC007008AB00A3
:100B5000003083120313DE002030DF004130E0005C
:100B60000A30F6000030F700831603132A08F1005C
:100B70002908F0004830F200E830F3008A150A2214
:100B80008A11700883160313A0007108A1000A30AF
:100B90000310A10CA00CFF3E031DC82D2008363EFB
:100BA000F80021080318013E003EF9008A15A12231
:100BB0008A11770883120313A1007608A0008A1512
:100BC000B5218A11831203132008E1002108E200F5
:100BD0002208E3008A116A228A11831203135E0835
:100BE00083160313B600831203135F0883160313DF
:100BF000B70083120313600883160313B800003094
:100C000083120313DE002030DF004130E0000A30A1
:100C1000F6000030F700831603132C08F1002B08B0
:100C2000F0004830F200E830F3008A150A228A11F9
:100C3000700883160313A0007108A1000A30031086
:100C4000A10CA00CFF3E031D1F2E2008363EF8000D
:100C500021080318013E003EF9008A15A1228A11DD
:100C6000770883120313A1007608A0008A15B52126
:100C70008A11831203132008E1002108E2002208F0
:100C8000E3008A116A228A11831203135E08831615
:100C90000313B900831203135F0883160313BA000A
:100CA00083120313600883160313BB000030B600E1
:100CB000C830B7004230B8000030B9002030BA0068
:100CC0004130BB00360883120313DE008316031382
:100CD000370883120313DF008316031338088312C7
:100CE0000313E0000030E1000030E2003F30E30099
:100CF0008A116A228A11831203135E088316031372
:100D0000B000831203135F0883160313B10083122C
:100D10000313600883160313B20039088312031308
:100D2000DE00831603133A0883120313DF008316D1
:100D300003133B0883120313E0000030E10000308E
:100D4000E2003F30E3008A116A228A118312031302
:100D50005E0883160313B300831203135F08831620
:100D60000313B40083120313600883160313B50042
:100D7000300883120313B000831603133108831263
:100D80000313B10083160313320883120313B20056
:100D9000831603133308F0003408F1003508F2001D
:100DA0008A1554218A11700883120313B300710845
:100DB000B4007208B5008A1151238A1183120313FB
:100DC0003008BD003108BE003208BF00831603138F
:100DD000330883120313B0008316031334088312FD
:100DE0000313B10083160313350883120313B200F3
:100DF00083160313300883120313B30083160313FF
:100E0000310883120313B4008316031332088312CC
:100E10000313B5008A1151238A118312031330087A
:100E2000C0003108C1003208C2008A1122208A1194
:100E3000831203133D0883160313AD0083120313BB
:100E40003E0883160313AE00831203133F08831674
:100E50000313AF0000308A155C218A1121308316FC
:100E60000313A000A00B322F043083120313BE0023
:100E70000030BF0083160313360883120313B0003B
:100E800083160313370883120313B1008316031369
:100E9000380883120313B2008A154E268A11831272
:100EA00003133108C1003008C000A3308A15C425DF
:100EB0008A11213083160313A000A00B5D2F62302E
:100EC000F3008030F4008A15CC218A11213083167A
:100ED0000313A000A00B6A2F043083120313BE007B
:100EE0000030BF0083160313390883120313B000C8
:100EF000831603133A0883120313B10083160313F6
:100F00003B0883120313B2008A154E268A118312FE
:100F100003133108C1003008C000A3308A15C4256E
:100F20008A11213083160313A000A00B952F4030A7
:100F30008A155C218A11213083160313A000A00BAF
:100F40009F2F5C30F3008030F4008A15CC218A1189
:100F5000053083120313BE000030BF008316031355
:100F60002D0883120313A300831603132E08831284
:100F70000313A400831603132F0883120313A50081
:100F80000030A000C830A1004230A2008A11982190
:100F90008A11831203132008B0002108B10022082F
:100FA000B2008A154E268A11831203133108C1003C
:100FB0003008C000A3308A15C4258A110230831678
:100FC0000313A2000430A100BA30A000A00BE62F4A
:100FD000A10BE62FA20BE62F0000942D831603131E
:100FE000C601C7018313C630FD000930FE0065301D
:100FF000FF00BC3084008A15732183018A11892D7A
:10100000FF1B0A2883137F1883170008840A03191B
:10101000FF0A080008308A000408840A82070034A6
:10102000003480343F34723431343F34FE3475340C
:101030003E34583463343D3495341D343C34C53427
:10104000AE343A34793421343934943480343734FA
:101050009334A734353456341534343400340034E2
:101060000034003480343F34F034FF34BE34E23492
:10107000A9343E3483347634BE34AE342B343E341B
:101080003C34C334BD34D23413343D347834D33497
:10109000BB342034203420342034203420344D34E8
:1010A00045345434453452342034203420342034F0
:1010B000203400342034203450344F3457344534F5
:1010C00052342034263420342034533457345234AC
:1010D0002034203400345334573452343A342034DA
:0A10E000003420342F342034003493
:1012A800720871047004031908008030F2060800FF
:1012B800F3008312031306127308803E8A152B224B
:1012C800080030343134323433343434353436343D
:1012D8003734383439347E088A007F0882006F2119
:1012E8008A158000840A04087D0603190034FF0A61
:1012F8000319FE0A732983120313061201308A1593
:101308002B228A150630F4003030F300F30B8A29BB
:10131800F40B8A2900000800F300F201731C9829D5
:101328007008F1007108F2070310F00D0310F30CB8
:101338007308031D9229720808000530F000700830
:10134800831203139F051F083F3980389F008316B7
:1013580003139F171F13CF309F05831203131F1406
:101368000800831203132008F0002108F100F2019D
:101378008E30A3002308F300F4018A15582570085D
:1013880083120313A0007108A1007208A2000800CC
:10139800831203130616740883120313FF007308DD
:1013A80084008A1500208A15003A03190800740879
:1013B800FF00730884008A1500208A158A152B22DD
:1013C8008A150130F3070318F40ACF29FD01F91F24
:1013D800F429F809F909F80A0319F90AFD01FD0ABF
:1013E8007808F0007908F100F2018E30FB007B08E4
:1013F800F3007D08FC007C08F4008A155825700865
:10140800F8007108F9007208FA000800F401F50103
:10141800701C142A7208F4070318F50A7308F507F4
:1014280001300310F20DF30DFF3E031D152A0130A4
:101438000310F10CF00CFF3E031D1C2A7008710408
:10144800031D0C2A7508F1007408F0000800F2006A
:101458001A30F000F00B2E2A0000F030831203132C
:101468000605F0007208F10004300310F10CFF3E8D
:10147800031D392A71080F397004860006170613F0
:10148800F0300605F00072080F3970048600061760
:1014980006130800F4000730F2007208F405C5309E
:1014A800F2007208831203139F057408F2000230D9
:1014B8000310F20DFF3E031D5C2A0310720DF300AA
:1014C80073089F040630F200F20B682A00008312AA
:1014D80003131F151F196E2A1E08F1008316031324
:1014E8001E08F00008008E30FC007C08FD00FF306C
:1014F8007B0503198D2A01300310FB0CFA0CF90C3B
:10150800F80CFF3E031D802A0130FC007C08FD0713
:101518007B2A7808F0007908F1007A08F2007D0843
:10152800FC007C08F300F4018A1558257008F800BF
:101538007108F9007208FA000800FB01FC0176083E
:1015480077040319D82AFD01FD0AF71BB72A0130D1
:101558000310F60DF70DFF3E031DAC2A0130FA000B
:101568007A08FD07A92A01300310FB0DFC0DFF3E88
:10157800031DB82A77087902031DC42A7608780261
:10158800031CCD2A7608F8027708031CF903F90230
:101598007B1401300310F70CF60CFF3E031DCE2A16
:1015A8000130FD02031DB72A7C08F7007B08F6000E
:1015B8000800720871047004031DEF2A7308840080
:1015C80083138001840A80010030F0000030F100AC
:1015D8000030F200080072087F39F400F5010310AA
:1015E800F40DF50D73088400740883138000840AD1
:1015F80075088000710D710D0139F400F50173084B
:10160800840074088004840A7508800473088400C0
:1016180082308007840F00080318000AFF00FF309B
:101628007F0780008403720880393F38F200F11385
:10163800080083120313C5018E30C2004208C4009B
:10164800C11F332BBE09BF09C009C109BE0A03194E
:10165800BF0A0319C00A0319C10AC501C50AFF3028
:1016680041050319452B01300310C10CC00CBF0CF8
:10167800BE0CFF3E031D382B0130C2004208C407D0
:10168800332B3E08F0003F08F1004008F200440800
:10169800C2004208F3004508C3004308F4008A1555
:1016A8005825700883120313BE007108BF00720822
:1016B800C00008000330F5007508F7008312031313
:1016C8000612061386122730F600F530F500F50BE2
:1016D8006B2BF60B6B2B7708831203138600061708
:1016E80006130D30F600FB30F500F50B792BF60BE1
:1016F800792B7E2B83120313061706138530F5000A
:10170800F50B842B83120313061706138530F50097
:10171800F50B8C2B02308312031386000617061371
:1017280028308A152B228A150C308A152B228A1507
:101738008A157F218A1506308A152B220800F601A2
:10174800F31FAD2BF209F309F20A0319F30AF601A4
:10175800F60AF11FB42BF009F109F00A0319F10A8E
:10176800700871040319E12BF501F50AF11BC82B68
:1017780001300310F00DF10DFF3E031DBD2B0130AC
:10178800F4007408F507BA2B71087302031DCE2BF9
:1017980070087202031CD62B7008F2027108031C31
:1017A800F303F30201300310F10CF00CFF3E031DAC
:1017B800D72B0130F502031DC82B76080319E92B36
:1017C800F209F309F20A0319F30A7308F10072081F
:1017D800F00008000730831603139C008B017A3051
:1017E8008F0003308500860183120313850186016B
:1017F8000330831603139B008A155E238A158A1506
:10180800A1218A150630F9003030F800F80B0A2CAF
:10181800F90B0A2C000000308A155C218A1521304A
:10182800F800F80B152C4B30F3008030F4008A15C3
:10183800CC218A1540308A155C218A152130F800A0
:10184800F80B242C3A30F3008030F4008A15CC21B0
:101858008A151030FA003930F9001B30F800F80BFF
:10186800332CF90B332CFA0B332C3A2C8A157F21A5
:101878000800F601F11F472CF009F109F00A0319D5
:10188800F10AF601F60AF31F522CF209F309F20ADB
:101898000319F30A0130F4007408F606F701F80199
:1018A800700871040319892CF501F50AF11B682CDD
:1018B80001300310F00DF10DFF3E031D5D2C0130CA
:1018C800F4007408F5075A2C01300310F70DF80DD1
:1018D800FF3E031D692C71087302031D752C7008E7
:1018E8007202031C7E2C7008F2027108031CF303B9
:1018F800F302771401300310F10CF00CFF3E031DC6
:101908007F2C0130F502031D682C76080319912CF1
:10191800F709F809F70A0319F80A7808F1007708AF
:10192800F0000800F21FBD2C0030F6000030F70070
:101938008030F8007009F9007109FA007209FB009B
:10194800F90A0319FA0A0319FB0A7908F6077A084B
:1019580003187A0FB02CB12CF7077B0803187B0FFC
:10196800B62CB72CF8077608F0007708F10078084D
:10197800F200F51FE42C0030F6000030F70080304C
:10198800F8007309F9007409FA007509FB00F90AEF
:101998000319FA0A0319FB0A7908F6077A080318E3
:1019A8007A0FD72CD82CF7077B0803187B0FDD2C70
:1019B800DE2CF8077608F3007708F4007808F500BD
:1019C8008030F2068030F50675087202031D0800A3
:1019D80074087102031D08007308700208000330C0
:1019E80083120313C3004308F00041088A159021AD
:1019F8008A1583120313400784008A150A208A1562
:101A0800C4008A150A208A15C5008A150A208A1575
:101A1800C600410842040319512D0330C30043088E
:101A2800F000FF30C1070318C20AFF30C20741089F
:101A38008A1590218A1583120313400784008A159A
:101A48000A208A15B0008A150A208A15B1008A155D
:101A58000A208A15B2004408A0004508A1004608DB
:101A6800A2003D08A3003E08A4003F08A5008A1173
:101A780098218A15831203132008B3002108B400A3
:101A88002208B5008A1151238A15831203133008DE
:101A9800C4003108C50032080C2D4408BD004508B3
:101AA800BE004608BF00080073080319602D7208BD
:101AB80071047004031D732D0030F0000030F10034
:101AC8000030F20008000130F5007508F307013016
:101AD8000310F20CF10CF00CFF3E031D6C2DFE30D0
:101AE800720503198E2D672D0130F5007508F3076F
:101AF8000130F007003003180130F10700300318F7
:101B08000130F20701300310F20CF10CF00CFF3E2B
:101B1800031D872DFF3072050319A12D782D023082
:101B28007302031CA32D0130F30201300310F00DE2
:101B3800F10DF20DFF3E031D9A2DF11F932D731821
:101B4800AB2DFF30F0057F30F105FF30F2050310B3
:101B5800F30C7308F500F601F70110300310F50DCA
:101B6800F60DF70DFF3E031DB22D7508F00476083B
:101B7800F1047708F204740803190800F217080042
:101B880083120313D20046308400BC30C20004081C
:101B9800C3000A30C4004208840083130008C5004B
:101BA800C20A4308840045088000C30AC40BCF2D2D
:101BB800D101D0013E08FF3E5207C200420884000E
:101BC8008001FF30BE070318BF0AFF30BF073F0878
:101BD800803AFF0080307F02031DF42D01303E0261
:101BE800031C452E831203135108031D162E0A30B9
:101BF800F0000030F1004108F3004008F2008A15B7
:101C0800A3238A157008463E8400831300088312B4
:101C18000313C2003E08FF3E5207C3004308840076
:101C28004208202E2030C2003E08FF3E5207C30063
:101C3800430884004208831380000A30F000003013
:101C4800F1004108F3004008F2008A153D248A1586
:101C5800710883120313C1007008C000FF30BE076B
:101C68000318BF0AFF30BF070130C2004208D0077F
:101C780040084104031D432ED101D10AEB2DD101A7
:101C8800EB2D831203135208F3000030F4008A1579
:101C9800CC210800831203133008B4003108B500C2
:101CA8003208B6000310350D360DB7003708BD00F1
:101CB8003D08031D682E0030B3000030B20000302C
:101CC800B1000030B00008003008B4003108B50099
:101CD8003208B60017300310B60CB50CB40CFF3E32
:101CE800031D6F2E3408B7003708B800B117FF304E
:101CF800B005FF30B1050030B2053008B900310831
:101D0800BA003208BB00BC018E30BD02BD1FAA2E2E
:101D18003D08803A8F3E03189A2E0030B3000030F9
:101D2800B2000030B1000030B000080001300310EC
:101D3800BC0CBB0CBA0CB90CFF3E031D9B2E01302A
:101D4800B4003408BD070319C52E9A2E18303D0279
:101D5800031CC22E0030B3000030B2000030B100C6
:101D68000030B00008000130B4000310B90DBA0DFE
:101D7800BB0DBC0DB40BB92E0130BD023D08031DCF
:101D8800B72E38080319D32EB909BA09BB09BC09FB
:101D9800B90A0319BA0A0319BB0A0319BC0A3C0891
:101DA800B3003B08B2003A08B1003908B000080097
:101DB800831203134608F0004708F1004808F200B0
:101DC8004D30C9004908F3008A15DD228A158312AF
:101DD8000313CE1F122F4608F0004708F1004808E9
:101DE800F2000030F3000030F4000030F5008A15EE
:101DF80096248A150318092F003083120313C6008E
:101E08008030C700BF30C8000800003083120313B9
:101E1800C6000030C7000030C800080000304E027D
:101E2800153003194D02031808004608B00047088A
:101E3800B1004808B2008A154E268A15831203138A
:101E48003308C1003208C0003108BF003008BE00A6
:101E58008A151D238A15831203133E08CA003F08FA
:101E6800CB004008CC004608F0004708F1004808BD
:101E7800F2004A08F3004B08F4004C08F5008A15F4
:101E880096248A150318612F003083120313B000BB
:101E98008030B100BF30B2004A08B3004B08B4002C
:101EA8004C08B5008A115123831203133008C60069
:101EB8003108C7003208C8000800831203134A0813
:101EC800C6004B08C7004C08C8000800831203135B
:101ED800490848044704031D782F0030C700003024
:101EE800C8000030C900080049087F39CC00CD017E
:101EF8000310CC0DCD0D4C08CA070318CB0A4D08AA
:101F0800CB07480D480D0139CC00CD014C08CA0754
:101F18000318CB0A4D08CB07CB1FA12F22308316FD
:101F28000313C6000030C700003083120313C70034
:101F38000030C8000030C90008004B08803AFF0094
:101F480081307F02031DAA2F00304A02031CE72FAD
:101F5800223083160313C6000030C7008312031310
:101F68004708F0004808F1004908F2000030F30083
:101F78000030F4000030F5008A1596248A150318FD
:101F8800DE2FFF3083120313CE007F30CF007F3067
:101F9800D0004E08F0004F08F1005008F2008A15F2
:101FA8005421700883120313C7007108C80072080F
:101FB800C9000800FF3083120313C7007F30C80030
:101FC8007F30C9000800831203134B08CD004A086C
:101FD800CC004D0DCD0CCC0C49084C0680394C0674
:101FE800C9004A080139CC00CC0CCC0C48084C0676
:081FF8007F394C06C800080007
:04400E0050FFFFFF61
:00000001FF
