:040000008A11EE2F44
:1000060030343134323433343434353436343734AE
:1000160038343934831203134708F0004808F100D6
:100026004908F2000030F3000030F4000030F5001B
:100036008A15E1238A1103182F282130831603130A
:10004600C9000030CA00003083120313C700003015
:10005600C8000030C9000800831203134908480489
:100066004704031D4528223083160313C9000030B8
:10007600CA00003083120313C7000030C8000030E6
:10008600C90008000030B0008030B100BF30B200B7
:100096000030A0000030A1004030A2004B30CA0062
:1000A6004A08F3004708F0004808F1004908F20042
:1000B6008A151E228A11700883120313A300710881
:1000C600A4007208A5008A11CC208A11831203139A
:1000D6002008B3002108B4002208B5008A11852241
:1000E6008A11831203133008C7003108C80032088A
:1000F600C900FF30CB070318CC0AFF30CC074708EE
:10010600BD004808BE004908BF001F30CA004A08A3
:10011600C0000830C1000030C2008A153E248A1192
:10012600831203133D08C7003E08C8003F08C900F4
:100136004708B0004808B1004908B2007230A00074
:100146003130A1003F30A2004C08F9004B08F800FE
:100156008A1568218A11780883120313A300790887
:10016600A4007A08A5008A11CC208A1183120313F1
:100176002008B3002108B4002208B5008A118522A0
:10018600831203133008C7003108C8003208C900BB
:100196000800831203132008A6002108A7002208DE
:1001A600A8000310270D280DA9002908AA002A086F
:1001B600031DE4280030A0000030A1000030A2009A
:1001C60008002308A6002408A7002508A800031095
:1001D600270D280DA9002908AF002F08031DFA28AE
:1001E6000030A0000030A1000030A20008002F0857
:1001F6007B3EA6002608AA072008A6002108A7001D
:100206002208A80010300310A80CA70CA60CFF3E6D
:10021600031D06292608A9002908AF002308A60001
:100226002408A7002508A80010300310A80CA70C66
:10023600A60CFF3E031D18292608A9002908AF06AB
:100246008030A6002608AF05A117A417FF30A30526
:10025600FF30A4050030A5050030AB000030AC002F
:100266000030AD000730A6002608AE00201C492944
:100276002308AB07240803110318240A031DAC073F
:10028600250803110318250A031DAD0701300310C5
:10029600A20CA10CA00CFF3E031D4A29013003103D
:1002A600A30DA40DA50DFF3E031D52290130AE027C
:1002B600031D39290930A6002608AE00201C712925
:1002C6002308AB07240803110318240A031DAC07EF
:1002D600250803110318250A031DAD070130031075
:1002E600A20CA10CA00CFF3E031D722901300310C5
:1002F600AD0CAC0CAB0CFF3E031D7A290130AE02EF
:10030600031D61292B08F0002C08F1002D08F200CE
:100316002A08A6002608F3002F08A7002708F400DD
:100326008A15A324700883120313A0007108A10084
:100336007208A200080083120313EB0160085F0431
:100346005E04031DC6290030F0000030F1000030C5
:10035600F2006108F3006208F4006308F5008A15EC
:10036600E1238A11031CBD29213083160313C9001A
:100376000030CA00003083120313DE000030DF00B5
:100386000030E0000800630862046104031DD229FE
:100396000030DE008030DF003F30E00008005E08FD
:1003A600F0005F08F1006008F2000030F300003052
:1003B600F4000030F5008A15E1238A110318362A65
:1003C600831203136108B0006208B1006308B2002B
:1003D6008A1599258A11831203133308EF00320810
:1003E600EE003108ED003008EC006F08FB006E08E7
:1003F600FA006D08F9006C08F8008A15F4218A11D4
:100406008312031363087A06031D0F2A620879060E
:10041600031D0F2A610878060319202A2130831646
:100426000313C9000030CA00003083120313DE0034
:100436000030DF000030E00008006C080139E400FD
:100446006408EB005E08F0005F08F1006008F20047
:100456008A15E0208A11700883120313DE007108E2
:10046600DF007208E000831203135E08C7005F080E
:10047600C8006008C9008A110D208A11831203136F
:100486004708E5004808E6004908E7006108A000BB
:100496006208A1006308A2006508A3006608A4001C
:1004A6006708A5008A11CC208A118312031320083D
:1004B600E8002108E9002208EA006808D100690876
:1004C600D2006A08D3008A118D238A11831203137E
:1004D6005108DE005208DF005308E0006B080319DC
:1004E60008005E08F0005F08F1006008F2008A1557
:1004F600E020700883120313DE007108DF00720823
:10050600E0000800831203133008B6003108B70074
:100516003208B8000310370D380DB9003908BC0091
:100526003308B6003408B7003508B8000310370D95
:10053600380DB9003908BB003C080319AE2A3B0840
:100546003C020318B52A3C03FF3A3B07B6001930B4
:100556003602031CB52A3308B0003408B10035084A
:10056600B20008003B08031908003C083B020318C8
:10057600C42A3B03FF3A3C07B6001930360203187B
:1005860008000630B6003608BA00B21BBA17B51B0B
:100596003A17B117FF30B005FF30B1050030B2058C
:1005A600B417FF30B305FF30B4050030B5053B087E
:1005B6003C020318042B01300310B30DB40DB50D26
:1005C600FF3E031DDF2A0130BB023B083C06031930
:1005D600FF2A0130BA023A0807390319FF2ADE2A30
:1005E60001300310B20CB10CB00CFF3E031DF42A0F
:1005F6000130B6003608BC073C083B0603192D2B14
:10060600F32A3C083B0203182D2B01300310B00DD2
:10061600B10DB20DFF3E031D092B0130BC023B0894
:100626003C060319292B0130BA023A080739031987
:10063600292B082B01300310B50CB40CB30CFF3E6C
:10064600031D1E2B0130B6003608BB073C083B06CF
:10065600031D1D2BBA1F3F2BFF30B006FF30B1061E
:10066600FF30B2060130B007003003180130B10781
:10067600003003180130B2073A1F512BFF30B30682
:10068600FF30B406FF30B5060130B307003003185B
:100696000130B407003003180130B507BA0130083D
:1006A600B307310803110318310A031DB4073208D2
:1006B60003110318320A031DB507B51F742BFF304B
:1006C600B306FF30B406FF30B5060130B30700307D
:1006D60003180130B407003003180130B507BA011A
:1006E600BA0A3308F0003408F1003508F2003C0875
:1006F600B6003608F3003A08B7003708F4008A1542
:10070600A324700883120313B0007108B1007208A5
:10071600B200080083120313530852045104031D48
:100726009B2B0030D1008030D2003F30D300080030
:100736007230F0003130F1004430F2005108F3001D
:100746005208F4005308F5008A15E1238A110318AC
:10075600BA2B223083160313C9000030CA00FF30BB
:100766008312D1007F30D2007F30D300080083127D
:1007760003135108F0005208F1005308F200493003
:10078600F3003A30F400C430F5008A15E1238A11EB
:100796000318DC2B223083160313C9000030CA006D
:1007A600003083120313D1000030D2000030D30092
:1007B6000800831203135108F0005208F100530891
:1007C600F2000030F3000030F4000030F5008A1526
:1007D600E1238A110318F12B0130F22B003083122A
:1007E6000313D4005408DD005D0803190B2C5108CF
:1007F600F0005208F1005308F2008A15E0208A1131
:10080600700883120313D1007108D2007208D30056
:10081600AA30A000B830A1003F30A2005108A300C2
:100826005208A4005308A5008A11CC208A1183120D
:1008360003132008D1002108D2002208D300510852
:10084600C6005208C7005308C8008A1527268A1111
:10085600831203134608D5004708D6004808D70078
:100866005508B0005608B1005708B2008A159925F8
:100876008A11831203133108DC003008DB005C08A0
:10088600F9005B08F8008A1568218A117808831236
:100896000313BD007908BE007A08BF005108C000E6
:1008A6005208C1005308C2008A1588218A11831292
:1008B60003133D08D1003E08D2003F08D30051087B
:1008C600BD005208BE005308BF000130D4005408D2
:1008D600C0000930C1000030C2008A153E248A11CA
:1008E600831203133D08C7003E08C8003F08C9002D
:1008F6005C08CB005B08CA008A15B5268A118312EC
:1009060003134708D1004808D2004908D3005D0800
:1009160003190800FF30D8007F30D9007F30DA0095
:1009260053085A06031D9D2C52085906031D9D2C7B
:1009360051085806031DA62C0030D1000030D20005
:100946000030D30008005108F8005208F900530897
:10095600FA000030FB008030FC003F30FD008A15B5
:100966004B27780883120313D1007908D2007A083E
:10097600D30008008A152F238A110030831603132B
:10098600AD000030AE000030AF0001308A15CB213B
:100996008A11710883160313AA007008A900003093
:1009A6008A15CB218A11710883160313AC007008CF
:1009B600AB00F03083120313A0001B30A1004030BF
:1009C600A200831603132A08F9002908F8008A15DD
:1009D60023218A11780883120313A3007908A4003F
:1009E6007A08A5008A11CC208A11831203132008E5
:1009F60083160313B9008312031321088316031306
:100A0600BA0083120313220883160313BB00F030C7
:100A160083120313A0001B30A1004030A2008316EE
:100A260003132C08F9002B08F8008A1523218A11D4
:100A3600780883120313A3007908A4007A08A50096
:100A46008A11CC208A1183120313200883160313FC
:100A5600BC0083120313210883160313BD008312FF
:100A66000313220883160313BE0071308312031387
:100A7600B0001930B100C230B2000030F800C83002
:100A8600F9004130FA00831603133908FB003A08CF
:100A9600FC003B08FD008A154B278A117808831253
:100AA6000313B3007908B4007A08B5008A118522C9
:100AB6008A1183120313300883160313B9008312B5
:100AC6000313310883160313BA0083120313320883
:100AD60083160313BB00713083120313B000193061
:100AE600B100C230B2000030F800C830F900413021
:100AF600FA00831603133C08FB003D08FC003E0881
:100B0600FD008A154B278A11780883120313B30058
:100B16007908B4007A08B5008A1185228A118312F1
:100B26000313300883160313BC0083120313310822
:100B360083160313BD0083120313320883160313AF
:100B4600BE000030F8002030F9004130FA003908C4
:100B5600FB003A08FC003B08FD008A154B278A116A
:100B6600780883160313B6007908B7007A08B80028
:100B7600003083120313DE002030DF004130E00036
:100B860083160313360883120313E1008316031337
:100B9600370883120313E2008316031338088312FF
:100BA6000313E3008A119E218A11831203135E0840
:100BB60083160313B900831203135F088316031306
:100BC600BA0083120313600883160313BB000030B8
:100BD600F8002030F9004130FA003C08FB003D08DF
:100BE600FC003E08FD008A154B278A1178088316FB
:100BF6000313B6007908B7007A08B80000308312EC
:100C06000313DE002030DF004130E00083160313BB
:100C1600360883120313E100831603133708831281
:100C26000313E20083160313380883120313E30049
:100C36008A119E218A11831203135E0883160313F9
:100C4600BC00831203135F0883160313BD008312CF
:100C56000313600883160313BE000030F8007A30D1
:100C6600F9004430FA003908FB003A08FC003B085A
:100C7600FD008A154B278A11780883160313B900DD
:100C86007908BA007A08BB000030F8007A30F9001B
:100C96004430FA003C08FB003D08FC003E08FD001D
:100CA6008A154B278A11780883160313BC00790826
:100CB600BD007A08BE00390883120313DE008316CE
:100CC60003133A0883120313DF00831603133B084A
:100CD60083120313E0000030E1000030E2003F30F1
:100CE600E3008A119E218A11831203135E0883167C
:100CF6000313B000831203135F0883160313B100B6
:100D060083120313600883160313B2003C08831290
:100D16000313DE00831603133D0883120313DF005B
:100D2600831603133E0883120313E0000030E1002C
:100D36000030E2003F30E3008A119E218A118312BF
:100D460003135E0883160313B300831203135F08AD
:100D560083160313B4008312031360088316031368
:100D6600B500300883120313B0008316031331084D
:100D760083120313B100831603133208831203137D
:100D8600B200831603133308F0003408F100350867
:100D9600F2008A15E0208A11700883120313B3004B
:100DA6007108B4007208B5008A1185228A1183126F
:100DB60003133008F8003108F9003208FA008316E8
:100DC6000313330883120313B00083160313340886
:100DD60083120313B100831603133508831203131A
:100DE600B20083160313300883120313B30083166D
:100DF6000313310883120313B40083160313320856
:100E060083120313B5008A1185228A1183120313F4
:100E16003008FB003108FC003208FD008A154B271C
:100E26008A11780883160313AD007908AE007A0894
:100E3600AF0000308A15E8208A112130831603138B
:100E4600A000A00B242F5C30F3008030F4008A153C
:100E56004A218A1101308A15E8208A112130831629
:100E66000313A000A00B352F053083120313BE0019
:100E76000030BF0083160313390883120313B00032
:100E8600831603133A0883120313B1008316031360
:100E96003B0883120313B2008A1599258A1183121F
:100EA60003133108C1003008C000A3308A150F258E
:100EB6008A11213083160313A000A00B602F0A307D
:100EC6008A15E8208A11213083160313A000A00B8F
:100ED6006A2F053083120313BE000030BF0083164D
:100EE60003133C0883120313B000831603133D0853
:100EF60083120313B100831603133E0883120313F0
:100F0600B2008A1599258A11831203133108C1008C
:100F16003008C000A3308A150F258A1121308316A8
:100F26000313A000A00B952F40308A15E8208A11E4
:100F3600213083160313A000A00B9F2F6D30F30002
:100F46008030F4008A154A218A1105308312031372
:100F5600BE000030BF00831603132D08831203134F
:100F6600A300831603132E0883120313A40083160B
:100F760003132F0883120313A5000030A000C83006
:100F8600A1004230A2008A11CC208A1183120313D9
:100F96002008B0002108B1002208B2008A15992560
:100FA6008A11831203133108C1003008C000A33030
:100FB6008A150F258A11023083160313A200043006
:100FC600A100BA30A000A00BE62FA10BE62FA20BC2
:100FD600E62F0000C82C83160313C901CA01831328
:100FE600C930FD000030FE000330FF00BF30840032
:100FF6008A15F52083018A11BD2CFF1B0A2883134D
:101006007F1883170008840A0319FF0A08000830AE
:101016008A000408840A82070034003480343F348E
:10102600723431343F34FE3475343E3458346334CC
:101036003D3495341D343C34C534AE343A347934B9
:10104600213439349434803437349334A7343534E6
:1010560056341534343400340034003400348034CB
:101066003F34F034FF34BE34E234A9343E348334A2
:101076007634BE34AE342B343E343C34C334BD34C3
:10108600D23413343D347834D334BB342034203452
:1010960020342034203420344D34453454344534FF
:1010A6005234203420342034203420340034203488
:1010B600203450344F345734453452342034263497
:1010C60020342034533457345234203420340034FE
:1010D6002034203420342034203420345734203433
:1010E6002F34203420342034203420342034573414
:0E10F60000345334573452343A34203400342A
:1011C000720871047004031908008030F2060800E8
:1011D000F3008312031306127308803E8A15A821B8
:1011E00008007E088A007F088200F1208A158000AE
:1011F000840A04087D0603190034FF0A0319FE0A55
:10120000F52883120313061201308A15A8218A15C6
:101210000630F4003030F300F30B0C29F40B0C29EA
:1012200000000800F300F201731C1A297008F10095
:101230007108F2070310F00D0310F30C7308031D7F
:101240001429720808007808F0007908F100F2010A
:101250008E30FB007B08F300F4018A15A32470088C
:10126000F8007108F9007208FA0008000530F00073
:101270007008831203139F051F083F3980389F00B1
:10128000831603139F171F1330309F048312031319
:101290001F14080083120313061674088312031325
:1012A000FF00730884008A1500208A15003A03198C
:1012B00008007408FF00730884008A1500208A154E
:1012C0008A15A8218A150130F3070318F40A4D295D
:1012D000FD01F91F7229F809F909F80A0319F90A39
:1012E000FD01FD0A7808F0007908F100F2018E3066
:1012F000FB007B08F3007D08FC007C08F4008A15E5
:10130000A3247008F8007108F9007208FA000800B8
:10131000831203133F083E043D04031991298030D2
:10132000BF064008B0004108B1004208B2003D08C5
:10133000B3003E08B4003F08B5008A11852283122D
:1013400003133008BD003108BE003208BF0008009A
:10135000F2001A30F000F00BAB290000F0308312DD
:1013600003130605F0007208F10004300310F10CBD
:10137000FF3E031DB62971080F3970048600061759
:101380000613F0300605F00072080F39700486006D
:10139000061706130800F4000730F2007208F4057F
:1013A000C530F2007208831203139F057408F2001F
:1013B00002300310F20DFF3E031DD9290310720DF8
:1013C000F30073089F040630F200F20BE5290000D9
:1013D000831203131F151F19EB291E08F100831632
:1013E00003131E08F00008008E30FC007C08FD008E
:1013F000FF307B0503190A2A01300310FB0CFA0C9D
:10140000F90CF80CFF3E031DFD290130FC007C089F
:10141000FD07F8297808F0007908F1007A08F20051
:101420007D08FC007C08F300F4018A15A3247008F1
:10143000F8007108F9007208FA00080072087104D7
:101440007004031D302A7308840083138001840A0A
:1014500080010030F0000030F1000030F2000800A0
:1014600072087F39F400F5010310F40DF50D7308CF
:101470008400740883138000840A75088000710D4D
:10148000710D0139F400F5017308840074088004BB
:10149000840A750880047308840082308007840FF2
:1014A00000080318000AFF00FF307F078000840354
:1014B000720880393F38F200F113080083120313D9
:1014C000C5018E30C2004208C400C11F742ABE0983
:1014D000BF09C009C109BE0A0319BF0A0319C00A1E
:1014E0000319C10AC501C50AFF3041050319862A3F
:1014F00001300310C10CC00CBF0CBE0CFF3E031D1D
:10150000792A0130C2004208C407742A3E08F0005C
:101510003F08F1004008F2004408C2004208F3000E
:101520004508C3004308F4008A15A32470088312F9
:101530000313BE007108BF007208C000080003302A
:10154000F5007508F70083120313061206138612BE
:101550002730F600F530F500F50BAC2AF60BAC2A77
:101560007708831203138600061706130D30F60062
:10157000FB30F500F50BBA2AF60BBA2ABF2A831204
:101580000313061706138530F500F50BC52A8312E1
:101590000313061706138530F500F50BCD2A02302C
:1015A0008312031386000617061328308A15A82114
:1015B0008A150C308A15A8218A158A1501218A15E9
:1015C00006308A15A8210800F601F31FEE2AF20959
:1015D000F309F20A0319F30AF601F60AF11FF52AD4
:1015E000F009F109F00A0319F10A700871040319EE
:1015F000222BF501F50AF11B092B01300310F00D28
:10160000F10DFF3E031DFE2A0130F4007408F507BA
:10161000FB2A71087302031D0F2B70087202031C52
:10162000172B7008F2027108031CF303F302013058
:101630000310F10CF00CFF3E031D182B0130F502D6
:10164000031D092B760803192A2BF209F309F20A64
:101650000319F30A7308F1007208F000080007305C
:10166000831603139C008B017A308F000F308500A6
:10167000860183120313850186010F30831603133D
:101680009B008A159F228A158A1536218A150630F5
:10169000F9003030F800F80B4B2BF90B4B2B000006
:1016A00000308A15E8208A152130F800F80B562BF7
:1016B0004B30F3008030F4008A154A218A154030FF
:1016C0008A15E8208A152130F800F80B652B3A308E
:1016D000F3008030F4008A154A218A151030FA0090
:1016E0003930F9001B30F800F80B742BF90B742B10
:1016F000FA0B742B7B2B8A1501218A150330F90014
:101700009730F800F80B822BF90B822B872B0800FF
:10171000F601F11F922BF009F109F00A0319F10A01
:10172000F601F60AF31F9D2BF209F309F20A0319D9
:10173000F30A0130F4007408F606F701F8017008A6
:1017400071040319D42BF501F50AF11BB32B0130F9
:101750000310F00DF10DFF3E031DA82B0130F40026
:101760007408F507A52B01300310F70DF80DFF3EA7
:10177000031DB42B71087302031DC02B7008720285
:10178000031CC92B7008F2027108031CF303F30257
:10179000771401300310F10CF00CFF3E031DCA2B2F
:1017A0000130F502031DB32B76080319DC2BF70972
:1017B000F809F70A0319F80A7808F1007708F00029
:1017C0000800F21F082C0030F6000030F7008030CF
:1017D000F8007009F9007109FA007209FB00F90AB2
:1017E0000319FA0A0319FB0A7908F6077A0803189D
:1017F0007A0FFB2BFC2BF7077B0803187B0F012CC0
:10180000022CF8077608F0007708F1007808F2005B
:10181000F51F2F2C0030F6000030F7008030F80064
:101820007309F9007409FA007509FB00F90A031934
:10183000FA0A0319FB0A7908F6077A0803187A0FDF
:10184000222C232CF7077B0803187B0F282C292C2C
:10185000F8077608F3007708F4007808F500803080
:10186000F2068030F50675087202031D0800740840
:101870007102031D08007308700208000330831210
:101880000313C3004308F00041088A1512218A158A
:1018900083120313400784008A150A208A15C400A6
:1018A0008A150A208A15C5008A150A208A15C600DD
:1018B0004108420403199C2C0330C3004308F00084
:1018C000FF30C1070318C20AFF30C20741088A155A
:1018D00012218A1583120313400784008A150A20F7
:1018E0008A15B0008A150A208A15B1008A150A20C7
:1018F0008A15B2004408A0004508A1004608A200CD
:101900003D08A3003E08A4003F08A5008A11CC2092
:101910008A15831203132008B3002108B40022089B
:10192000B5008A1185228A15831203133008C4007A
:101930003108C5003208572C4408BD004508BE00D8
:101940004608BF00080073080319AB2C7208710425
:101950007004031DBE2C0030F0000030F100003098
:10196000F20008000130F5007508F307013003109C
:10197000F20CF10CF00CFF3E031DB72CFE3072058B
:101980000319D92CB22C0130F5007508F30701308A
:10199000F007003003180130F10700300318013060
:1019A000F20701300310F20CF10CF00CFF3E031DA6
:1019B000D22CFF3072050319EC2CC32C02307302B9
:1019C000031CEE2C0130F30201300310F00DF10D79
:1019D000F20DFF3E031DE52CF11FDE2C7318F62CD3
:1019E000FF30F0057F30F105FF30F2050310F30CF6
:1019F0007308F500F601F70110300310F50DF60D30
:101A0000F70DFF3E031DFD2C7508F0047608F10468
:101A10007708F204740803190800F217080083120B
:101A20000313D20046308400BF30C2000408C30054
:101A30000A30C4004208840083130008C500C20AAB
:101A40004308840045088000C30AC40B1A2DD10145
:101A5000D0013E08FF3E5207C200420884008001C8
:101A6000FF30BE070318BF0AFF30BF073F08803AA8
:101A7000FF0080307F02031D3F2D01303E02031C1A
:101A8000902D831203135108031D612D0A30F000BD
:101A90000030F1004108F3004008F2008A15E4220A
:101AA0008A157008463E84008313000883120313CE
:101AB000C2003E08FF3E5207C300430884004208AC
:101AC0006B2D2030C2003E08FF3E5207C300430882
:101AD00084004208831380000A30F0000030F100D7
:101AE0004108F3004008F2008A1588238A1571081E
:101AF00083120313C1007008C000FF30BE07031833
:101B0000BF0AFF30BF070130C2004208D0074008BB
:101B10004104031D8E2DD101D10A362DD101362D60
:101B2000831203135208F3000030F4008A154A218F
:101B30000800831203133008B4003108B5003208DE
:101B4000B6000310350D360DB7003708BD003D084F
:101B5000031DB32D0030B3000030B2000030B100DF
:101B60000030B00008003008B4003108B500320879
:101B7000B60017300310B60CB50CB40CFF3E031DB5
:101B8000BA2D3408B7003708B800B117FF30B005D8
:101B9000FF30B1050030B2053008B9003108BA0095
:101BA0003208BB00BC018E30BD02BD1FF52D3D08C3
:101BB000803A8F3E0318E52D0030B3000030B200AC
:101BC0000030B1000030B000080001300310BC0C40
:101BD000BB0CBA0CB90CFF3E031DE62D0130B4005E
:101BE0003408BD070319102EE52D18303D02031CE3
:101BF0000D2E0030B3000030B2000030B1000030D4
:101C0000B00008000130B4000310B90DBA0DBB0DCF
:101C1000BC0DB40B042E0130BD023D08031D022E85
:101C2000380803191E2EB909BA09BB09BC09B90A3B
:101C30000319BA0A0319BB0A0319BC0A3C08B3000A
:101C40003B08B2003A08B1003908B000080083121E
:101C500003134608F0004708F1004808F2004D3031
:101C6000C9004908F3008A151E228A15831203133E
:101C7000CE1F5D2E4608F0004708F1004808F2002C
:101C80000030F3000030F4000030F5008A15E12345
:101C90008A150318542E003083120313C6008030B7
:101CA000C700BF30C8000800003083120313C6000D
:101CB0000030C7000030C800080000304E02153068
:101CC00003194D02031808004608B0004708B10088
:101CD0004808B2008A1599258A1583120313330820
:101CE000C1003208C0003108BF003008BE008A15AC
:101CF0005E228A15831203133E08CA003F08CB00F8
:101D00004008CC004608F0004708F1004808F200FF
:101D10004A08F3004B08F4004C08F5008A15E1234B
:101D20008A150318AC2E003083120313B0008030E4
:101D3000B100BF30B2004A08B3004B08B4004C08F1
:101D4000B5008A118522831203133008C6003108BA
:101D5000C7003208C8000800831203134A08C600EF
:101D60004B08C7004C08C800080083120313490839
:101D700048044704031DC32E0030C7000030C800CC
:101D80000030C900080049087F39CC00CD0103109C
:101D9000CC0DCD0D4C08CA070318CB0A4D08CB0754
:101DA000480D480D0139CC00CD014C08CA07031875
:101DB000CB0A4D08CB07CB1FEC2E22308316031322
:101DC000C9000030CA00003083120313C70000307E
:101DD000C8000030C90008004B08803AFF0081307D
:101DE0007F02031DF52E00304A02031C322F2230E1
:101DF00083160313C9000030CA0083120313470877
:101E0000F0004808F1004908F2000030F30000300B
:101E1000F4000030F5008A15E1238A150318292FF4
:101E2000FF3083120313CE007F30CF007F30D0000D
:101E30004E08F0004F08F1005008F2008A15E0202B
:101E4000700883120313C7007108C8007208C90024
:101E50000800FF3083120313C7007F30C8007F30B3
:101E6000C9000800831203134B08CD004A08CC00B8
:101E70004D0DCD0CCC0C49084C0680394C06C900E0
:101E80004A080139CC00CC0CCC0C48084C067F39F0
:101E90004C06C80008007B0883120313A0007C08CE
:101EA000A1007D08A2000310210D220DA30023082C
:101EB000A8002808031D632F0030F8000030F90047
:101EC0000030FA0008007808A0007908A1007A081C
:101ED000A2000310210D220DA3002308A900290848
:101EE000031D792F0030F8000030F9000030FA00AF
:101EF00008000030A5000030A6000030A70089309F
:101F00002907A0002008A8027B08A0007C08A100E7
:101F10007D08A20010300310A20CA10CA00CFF3E03
:101F2000031D8B2F2008A3002308A9007808A00018
:101F30007908A1007A08A20010300310A20CA10CAD
:101F4000A00CFF3E031D9D2F2008A3002308A90617
:101F50008030A0002008A905FC17FF30FB05FF30EA
:101F6000FC050030FD05F917FF30F805FF30F905D5
:101F70000030FA051830A0002008A400013003103A
:101F8000A50DA60DA70DFF3E031DBF2F7A087D02EC
:101F9000031DD02F79087C02031DD02F78087B0207
:101FA000031CDD2F7808FB027908031C790FFC0263
:101FB0007A08031C7A0AFD02251401300310FB0D78
:101FC000FC0DFD0DFF3E031DDE2F0130A402031D9D
:101FD000BE2F2508F0002608F1002708F200280887
:101FE000A0002008F3002908A1002108F4008A15A8
:101FF000A3247008F8007108F9007208FA000800BC
:04400E0050FFFFFF61
:00000001FF
