:100000008A11FD2F00308A000408840A8207003418
:10001000493443342D3437343534363420342034A5
:100020002034203420342034203420342034203430
:1000300000342A342A342A342A34203449344334CC
:100040002D3437343534363420342A342A342A34A3
:100050002A3400342D342D344634723465347134EE
:10006000203444346934733470346C3461347934FA
:100070002D342D34003446347234653471343D34BB
:0400800020340034F4
:100E10008A11A7278A110B2FF300831203130610E0
:100E20007308803E8A113F270800831203130610BF
:100E300001308A113F278A110630F4003030F30068
:100E4000F30B202FF40B202F00000800F400831276
:100E500003130614740884008A1102208A110038D2
:100E600003190800740884008A1102208A118A116B
:100E70003F278A110130F3007308F4072A2FF2008C
:100E80001A30F000F00B422F0000F03083120313F1
:100E90000605F0007208F10004300310F10CFF3E6B
:100EA000031D4D2F71080F397004860086158611B9
:100EB000F0300605F00072080F39700486008615C0
:100EC000861108000330F5007508F700831203133C
:100ED0000610861186102730F600F530F500F50B68
:100EE0006F2FF60B6F2F770883120313860086157A
:100EF00086110D30F600FB30F500F50B7D2FF60B5B
:100F00007D2F822F83120313861586118530F500FD
:100F1000F50B882F83120313861586118530F50093
:100F2000F50B902F0230831203138600861586116D
:100F300028308A113F278A110C308A113F278A11E5
:100F40008A1115278A1106308A113F2708000730B9
:100F5000831603139C008501860183120313850108
:100F60008601831603139B018B018A1162278A1164
:100F70000D30F900FB30F800F80BBC2FF90BBC2F3B
:100F8000C12F00308A110C278A115330F800F80B5A
:100F9000C72F12308A1126278A1140308A110C2758
:100FA0008A115330F800F80BD32F23308A112627EB
:100FB0008A11C330F900CD30F800F80BDD2FF90BA2
:100FC000DD2F00308A110C278A115330F800F80BFE
:100FD000E72F01308A1126278A115330F800F80BC9
:100FE000EF2F40308A110C278A115330F800F80B8C
:100FF000F72F34308A112627080083018A11082F21
:04400E00DCFFFFFFD5
:00000001FF
