:040000008A11F92F39
:10000600831203130616740883120313FF00730882
:1000160084008A1500208A11003A03190800740822
:10002600FF00730884008A1500208A118A15AA2207
:100036008A110130F3070318F40A06288312031302
:10004600580857045604031D2F280030D6000030E8
:10005600D7000030D800080058087F39DB00DC01E3
:100066000310DB0DDC0D5B08D9070318DA0A5C0800
:10007600DA07570D570D0139DB00DC015B08D9079C
:100086000318DA0A5C08DA07DA1F582822308316C2
:100096000313CA000030CB00003083120313D600CE
:1000A6000030D7000030D80008005A08803AFF0018
:1000B60081307F02031D612800305902031C9E28EF
:1000C600223083160313CA000030CB0083120313B9
:1000D6005608F0005708F1005808F2000030F30007
:1000E6000030F4000030F5008A1501258A11031846
:1000F6009528FF3083120313DD007F30DE007F304A
:10010600DF005D08F0005E08F1005F08F2008A1566
:100116004322700883120313D6007108D7007208B1
:10012600D8000800FF3083120313D6007F30D700B3
:100136007F30D8000800831203135A08DC005908E0
:10014600DB005C0DDC0CDB0C58085B0680395B06BB
:10015600D80059080139DB00DB0CDB0C57085B06BD
:100166007F395B06D7000800831203135608F00098
:100176005708F1005808F2000030F3000030F40090
:100186000030F5008A1501258A110318D928213077
:1001960083160313CA000030CB000030831203130A
:1001A600D6000030D7000030D800080083120313B1
:1001B600580857045604031DEF28223083160313EC
:1001C600CA000030CB00003083120313D600003083
:1001D600D7000030D80008000030BF008030C000D3
:1001E600BF30C1000030AF000030B0004030B10079
:1001F6005A30D9005908F3005608F0005708F100A4
:100206005808F2008A1544238A11700883120313D2
:10021600B2007108B3007208B4008A1176218A11FF
:10022600831203132F08C2003008C3003108C4002C
:100236008A111D238A11831203133F08D600400832
:10024600D7004108D800FF30DA070318DB0AFF3071
:10025600DB075608CC005708CD005808CE001F30E3
:10026600D9005908CF000830D0000030D1008A15D7
:100276005E258A11831203134C08D6004D08D70059
:100286004E08D8005608BF005708C0005808C100DD
:100296007230AF003130B0003F30B1005B08AA00C9
:1002A6005A08A9008A15CD228A1183120313290838
:1002B600B2002A08B3002B08B4008A1176218A11ED
:1002C600831203132F08C2003008C3003108C4008C
:1002D6008A111D23831203133F08D6004008D70056
:1002E6004108D8000800831203132F08B500300810
:1002F600B6003108B7000310360D370DB8003808C0
:10030600B9003908031D8E290030AF000030B00057
:100316000030B10008003208B5003308B6003408D2
:10032600B7000310360D370DB8003808BE003E087A
:10033600031DA4290030AF000030B0000030B1002A
:1003460008003E087B3EB5003508B9072F08B50002
:100356003008B6003108B70010300310B70CB60CE1
:10036600B50CFF3E031DB0293508B8003808BE009D
:100376003208B5003308B6003408B7001030031051
:10038600B70CB60CB50CFF3E031DC2293508B800E4
:100396003808BE068030B5003508BE05B017B3175D
:1003A600FF30B205FF30B3050030B4050030BA00A7
:1003B6000030BB000030BC000730B5003508BD007A
:1003C6002F1CF3293208BA07330803110318330A1E
:1003D600031DBB07340803110318340A031DBC07A9
:1003E60001300310B10CB00CAF0CFF3E031DF42915
:1003F60001300310B20DB30DB40DFF3E031DFC29F1
:100406000130BD02031DE3290930B5003508BD00E2
:100416002F1C1B2A3208BA07330803110318330AA4
:10042600031DBB07340803110318340A031DBC0758
:1004360001300310B10CB00CAF0CFF3E031D1C2A9B
:1004460001300310BC0CBB0CBA0CFF3E031D242A62
:100456000130BD02031D0B2A3A08F0003B08F100EB
:100466003C08F2003908B5003508F3003E08B6002E
:100476003608F4008A15C325700883120313AF00EB
:100486007108B0007208B100080083120313CA0095
:10049600C801C901CB01CC014C08803AC600450809
:1004A600803A4602031D592A44084B0203187B2A48
:1004B600003083120313AF002030B0004130B1008A
:1004C6004108B2004208B3004308B4008A117621FD
:1004D6008A11831203132F08C1003008C2003108A5
:1004E600C3000130CB070318CC0A0030CC074F2AD3
:1004F600831203133F084A07C6004608FF3E8400DE
:1005060083138001FF30BF070318C00AFF30C007FE
:100516004008CC003F08CB004C08803AFF008030F2
:100526007F02031D982A01304B02031C0800831228
:10053600031344084504031DAC2A2E30C6004B089D
:100546004A07C7004708FF3E840046088313800019
:10055600102B4308420441040319DA2A48084904C7
:10056600031DDA2A0A30A0000030A1004108F0007D
:100576004208F1004308F2008A152F268A117108F5
:1005860083120313A3007008A2008A150A248A1195
:10059600831203132008303EC6004B084A07C700E3
:1005A6004708FF3E8400460883138000E92A20306E
:1005B600C6004B084A07C7004708FF3E84004608A6
:1005C600831380000130C8000030C9000A30A00043
:1005D6000030A1004108F0004208F1004308F20093
:1005E6008A152F268A11710883120313A300700837
:1005F600A2008A15A6248A11831203132108AA00D1
:100606002008A9008A15CD228A118312031329080E
:10061600C1002A08C2002B08C300FF30C407031814
:10062600C50AFF30C507FF30CB070318CC0AFF30D9
:10063600CC078F2A831203133F08C5004008C60063
:100646004108C7000310460D470DC8004808CB00F7
:100656004208C5004308C6004408C7000310460DFB
:10066600470DC8004808CA004B080319462B4A081C
:100676004B0203184D2B4B03FF3A4A07C5001930AE
:100686004502031C4D2B4208BF004308C000440826
:10069600C10008004A08031908004B084A0203185B
:1006A6005C2B4A03FF3A4B07C50019304502031875
:1006B60008000630C5004508C900C11BC917C41B80
:1006C6004917C017FF30BF05FF30C0050030C10510
:1006D600C317FF30C205FF30C3050030C4054A0802
:1006E6004B0203189C2B01300310C20DC30DC40D21
:1006F600FF3E031D772B0130CA024A084B06031939
:10070600972B0130C902490807390319972B762B15
:1007160001300310C10CC00CBF0CFF3E031D8C2B17
:100726000130C5004508CB074B084A060319C52BFF
:100736008B2B4B084A020318C52B01300310BF0D43
:10074600C00DC10DFF3E031DA12B0130CB024A088F
:100756004B060319C12B0130C90249080739031991
:10076600C12BA02B01300310C40CC30CC20CFF3EDE
:10077600031DB62B0130C5004508CA074B084A06BB
:10078600031DB52BC91FD72BFF30BF06FF30C00690
:10079600FF30C1060130BF07003003180130C00723
:1007A600003003180130C107491FE92BFF30C2068C
:1007B600FF30C306FF30C4060130C20700300318FD
:1007C6000130C307003003180130C407C9013F08D0
:1007D600C207400803110318400A031DC307410856
:1007E60003110318410A031DC407C41F0C2CFF3054
:1007F600C206FF30C306FF30C4060130C207003010
:1008060003180130C307003003180130C407C901BB
:10081600C90A4208F0004308F1004408F2004B08F8
:10082600C5004508F3004908C6004608F4008A15C5
:10083600C325700883120313BF007108C000720835
:10084600C100080083160313AC012208210420040A
:10085600031D4D2C0030F0000030F1000030F20096
:100866002308F3002408F4002508F5008A1501255D
:100876008A11031C442C213083160313CA0000304E
:10088600CB00003083160313A0000030A100003017
:10089600A2000800250824042304031D592C003057
:1008A600A0008030A1003F30A20008002008F00020
:1008B6002108F1002208F2000030F3000030F400B5
:1008C6000030F5008A1501258A110318BD2C831600
:1008D60003132308F0002408F1002508F2008A1506
:1008E6002F268A11730883160313B0007208AF000F
:1008F6007108AE007008AD003008FB002F08FA0042
:100906002E08F9002D08F8008A151A238A11831675
:10091600031325087A06031D962C24087906031D61
:10092600962C230878060319A32C2130CA00003020
:10093600CB000030A0000030A1000030A20008006B
:100946002D08013983120313ED006D088316031376
:10095600AC002008F0002108F1002208F2008A15F8
:1009660043228A11700883160313A0007108A100A0
:100976007208A20083160313200883120313D600FD
:1009860083160313210883120313D7008316031358
:10099600220883120313D8008A11B7208A11831202
:1009A6000313560883160313A6008312031357086E
:1009B60083160313A7008312031358088316031321
:1009C600A800230883120313AF0083160313240819
:1009D60083120313B000831603132508831203132F
:1009E600B10083160313260883120313B20083167D
:1009F6000313270883120313B3008316031328086F
:100A060083120313B4008A1176218A118312031309
:100A16002F0883160313A9008312031330088316C5
:100A26000313AA0083120313310883160313AB00C2
:100A3600290883120313E000831603132A0883127E
:100A46000313E100831603132B0883120313E2003A
:100A56008A1154258A11831203136008831603131F
:100A6600A00083120313610883160313A1008312E7
:100A76000313620883160313A2002C080319080047
:100A86002008F0002108F1002208F2008A1543220E
:100A9600700883160313A0007108A1007208A20053
:100AA600080083120313620861046004031D622DAB
:100AB6000030E0008030E1003F30E2000800723094
:100AC600F0003130F1004430F2006008F3006108B4
:100AD600F4006208F5008A1501258A110318812D94
:100AE600223083160313CA000030CB00FF30831276
:100AF600E0007F30E1007F30E2000800831203133C
:100B06006008F0006108F1006208F2004930F30065
:100B16003A30F400C430F5008A1501258A1103180D
:100B2600A32D223083160313CA000030CB000030F9
:100B360083120313E0000030E1000030E2000800F9
:100B4600831203136008F0006108F1006208F200E6
:100B56000030F3000030F4000030F5008A1501255E
:100B66008A110318B82D0130B92D003083120313F2
:100B7600E3006308EC006C080319D22D6008F0004E
:100B86006108F1006208F2008A1543228A11700892
:100B960083120313E0007108E1007208E200AA3034
:100BA600AF00B830B0003F30B1006008B200610855
:100BB600B3006208B4008A1176218A1183120313E6
:100BC6002F08E0003008E1003108E2006008CC00A0
:100BD6006108CD006208CE008A15BB268A118312F1
:100BE60003134C08E4004D08E5004E08E6006408CF
:100BF600F0006508F1006608F2008A152F268A11B2
:100C0600710883120313EB007008EA006B08AA0050
:100C16006A08A9008A15CD228A11831203132908AE
:100C2600CC002A08CD002B08CE006008CF00610852
:100C3600D0006208D1008A158A228A118312031312
:100C46004C08E0004D08E1004E08E2006008CC00C8
:100C56006108CD006208CE000130E3006308CF00D2
:100C66000930D0000030D1008A155E258A11831222
:100C760003134C08D6004D08D7004E08D8006B0861
:100C8600DA006A08D9008A1121208A118312031317
:100C96005608E0005708E1005808E2006C080319FE
:100CA6000800FF30E7007F30E8007F30E900620887
:100CB6006906031D642E61086806031D642E60081C
:100CC6006706031D6D2E0030E0000030E1000030A5
:100CD600E20008006008CC006108CD006208CE0082
:100CE6000030CF008030D0003F30D1008A15492730
:100CF600831203134C08E0004D08E1004E08E200A1
:100D060008008A1557248A11003083160313BB0086
:100D16000030BC000030BD0000308A15F1228A1177
:100D2600710883160313B2007008B10001308A15EA
:100D3600F1228A11710883160313B4007008B300F8
:100D46000030BE00C830BF004230C0000030C100D5
:100D56002030C2004130C3003E08A0003F08A10079
:100D66004008A2000030A3000030A4003F30A500D8
:100D76008A1125248A11831603132008C40021082A
:100D8600C5002208C6004108A0004208A100430889
:100D9600A2000030A3000030A4003F30A5008A1155
:100DA60025248A11831603132008C7002108C800CA
:100DB6002208C900440883120313BF0083160313D5
:100DC600450883120313C0008316031346088312D3
:100DD6000313C100831603134708F0004808F10007
:100DE6004908F2008A1543228A11700883120313F8
:100DF600C2007108C3007208C4008A111D238A113B
:100E0600831203133F08CC004008CD004108CE00F2
:100E160083160313470883120313BF0083160313B5
:100E2600480883120313C00083160313490883126C
:100E36000313C10083160313440883120313C2006D
:100E460083160313450883120313C3008316031383
:100E5600460883120313C4008A111D238A118312C4
:100E660003133F08CF004008D0004108D1008A157F
:100E760049278A11831203134C0883160313BB00F8
:100E8600831203134D0883160313BC008312031346
:100E96004E0883160313BD0000308A154B228A11B3
:100EA600213083120313EE00EE0B572F0630831208
:100EB6000313BF000030C000831603133E088312DD
:100EC6000313C100831603133F0883120313C200E2
:100ED60083160313400883120313C3000130C400B2
:100EE6000030C500B5308A1148228A11B530F300AA
:100EF6000030F4008A1103208A1121308312031373
:100F0600EE00EE0B842F6230F3008030F4008A117D
:100F160003208A11213083120313EE00EE0B912F6A
:100F2600063083120313BF000030C000831603137C
:100F3600410883120313C100831603134208831268
:100F46000313C20083160313430883120313C3005B
:100F56000130C4000030C500B5308A1148228A111C
:100F6600B530F3000030F4008A1103208A112130D5
:100F760083120313EE00EE0BBE2F40308A154B2270
:100F86008A11213083120313EE00EE0BC82F5C305A
:100F9600F3008030F4008A1103208A110630831290
:100FA6000313BF000030C000831603133B088312EF
:100FB6000313C100831603133C0883120313C200F4
:100FC600831603133D0883120313C3000230C400C3
:100FD6000030C500B5308A1148228A11B530F300B9
:100FE6000030F4008A1103208A118F2E8316031312
:100FF600CA01CB0183018A11842EFF1B0A288313A1
:101006007F1883170008840A0319FF0A08000830AE
:101016008A000408840A82070034003480343F348E
:10102600723431343F34FE3475343E3458346334CC
:101036003D3495341D343C34C534AE343A347934B9
:10104600213439349434803437349334A7343534E6
:1010560056341534343400340034003400348034CB
:101066003F34F034FF34BE34E234A9343E348334A2
:101076007634BE34AE342B343E343C34C334BD34C3
:10108600D23413343D347834D334BB342034203452
:1010960020342034203420344D34453454344534FF
:1010A6005234203420342034203420340034203488
:1010B600203450344F345734453452342034263497
:1010C60020342034533457345234203420340034FE
:1010D6005334573452343A342034003420342F34C5
:0410E600203400347E
:10148600720871047004031908008030F20608001F
:10149600F3008312031306127308803E8A15AA22EC
:1014A600080083120313061201308A15AA228A1530
:1014B6000630F4003030F300F30B5F2AF40B5F2A9A
:1014C60000000800F300F201731C6D2A7008F10099
:1014D6007108F2070310F00D0310F30C7308031DD7
:1014E600672A720808000530F0007008831203139B
:1014F6009F051F083F3980389F00831603139F17E7
:101506001F13CF309F05831203131F140800831285
:1015160003134E084D044C040319932A8030CE065B
:101526004F08BF005008C0005108C1004C08C20057
:101536004D08C3004E08C4008A111D2383120313ED
:101546003F08CC004008CD004108CE000800F2005C
:101556001A30F000F00BAD2A0000F03083120313AE
:101566000605F0007208F10004300310F10CFF3E8E
:10157600031DB82A71080F39700486000617061372
:10158600F0300605F00072080F3970048600061761
:101596000613080083120313AE01AA1FD92AA9094C
:1015A600AA09A90A0319AA0AAE01AE0A2908F00077
:1015B6002A08F100F2018E30AC002C08F3002E0848
:1015C600AD002D08F4008A15C32570088312031395
:1015D600A9007108AA007208AB000800F4000730E1
:1015E600F2007208F405C530F20072088312031384
:1015F6009F057408F20002300310F20DFF3E031D32
:10160600FF2A0310720DF30073089F040630F200E0
:10161600F20B0B2B0000831203131F151F19112B3E
:101626001E08F100831603131E08F00008008E3012
:10163600FC007C08FD00FF307B050319302B0130D0
:101646000310FB0CFA0CF90CF80CFF3E031D232BC0
:101656000130FC007C08FD071E2B7808F000790895
:10166600F1007A08F2007D08FC007C08F300F40122
:101676008A15C3257008F8007108F9007208FA0087
:101686000800720871047004031D562B7308840049
:1016960083138001840A80010030F0000030F100DD
:1016A6000030F200080072087F39F400F5010310DB
:1016B600F40DF50D73088400740883138000840A02
:1016C60075088000710D710D0139F400F50173087C
:1016D600840074088004840A7508800473088400F2
:1016E60082308007840F00080318000AFF00FF30CD
:1016F6007F0780008403720880393F38F200F113B7
:10170600080083120313A7018E30A4002408A60044
:10171600A31F9A2BA009A109A209A309A00A0319CC
:10172600A10A0319A20A0319A30AA701A70AFF30EF
:1017360023050319AC2B01300310A30CA20CA10C3A
:10174600A00CFF3E031D9F2B0130A4002408A60712
:101756009A2B2008F0002108F1002208F200260842
:10176600A4002408F3002708A5002508F4008A151C
:10177600C325700883120313A0007108A100720824
:10178600A20008000330F5007508F7008312031362
:101796000612061386122730F600F530F500F50B13
:1017A600D22BF60BD22B770883120313860006176B
:1017B60006130D30F600FB30F500F50BE02BF60BAB
:1017C600E02BE52B83120313061706138530F5006D
:1017D600F50BEB2B83120313061706138530F50062
:1017E600F50BF32B0230831203138600061706133C
:1017F60028308A15AA228A150C308A15AA228A153B
:101806008A1554228A1506308A15AA2208008312E0
:101816000313A601A31F162CA209A309A20A0319E2
:10182600A30AA601A60AA11F1D2CA009A109A00AA8
:101836000319A10A2008210403194A2CA501A50AA7
:10184600A11B312C01300310A00DA10DFF3E031D7D
:10185600262C0130A4002408A507232C21082302E6
:10186600031D372C20082202031C3F2C2008A2024D
:101876002108031CA303A30201300310A10CA00C32
:10188600FF3E031D402C0130A502031D312C260806
:101896000319522CA209A309A20A0319A30A2308B1
:1018A600A1002208A00008000730831603139C003D
:1018B6008B017A308F000330850086018312031373
:1018C600850186010330831603139B008A15C52301
:1018D6008A158A1576228A150630F9003030F80006
:1018E600F80B732CF90B732C000000308A154B2271
:1018F6008A152130F800F80B7E2C4B30F30080302F
:10190600F4008A1103208A1540308A154B228A1565
:101916002130F800F80B8D2C3A30F3008030F400BB
:101926008A1103208A151030FA003930F9001B306D
:10193600F800F80B9C2CF90B9C2CFA0B9C2CA32C76
:101946008A155422080083120313A601A11FB22C84
:10195600A009A109A00A0319A10AA601A60AA31FA4
:10196600BD2CA209A309A20A0319A30A0130A400E7
:101976002408A606A701A801200821040319F42CAF
:10198600A501A50AA11BD32C01300310A00DA10DA2
:10199600FF3E031DC82C0130A4002408A507C52C52
:1019A60001300310A70DA80DFF3E031DD42C2108FE
:1019B6002302031DE02C20082202031CE92C200828
:1019C600A2022108031CA303A3022714013003105B
:1019D600A10CA00CFF3E031DEA2C0130A502031D3D
:1019E600D32C26080319FC2CA709A809A70A031952
:1019F600A80A2808A1002708A0000800F21F282D21
:101A06000030F6000030F7008030F8007009F90069
:101A16007109FA007209FB00F90A0319FA0A031997
:101A2600FB0A7908F6077A0803187A0F1B2D1C2D76
:101A3600F7077B0803187B0F212D222DF807760860
:101A4600F0007708F1007808F200F51F4F2D0030FE
:101A5600F6000030F7008030F8007309F9007409C9
:101A6600FA007509FB00F90A0319FA0A0319FB0AB9
:101A76007908F6077A0803187A0F422D432DF707DF
:101A86007B0803187B0F482D492DF8077608F300CD
:101A96007708F4007808F5008030F2068030F50605
:101AA60075087202031D080074087102031D080000
:101AB600730870020800033083120313D200520821
:101AC600F00050088A1565228A15831203134F0702
:101AD60084008A150A208A15D3008A150A208A15D9
:101AE600D4008A150A208A15D50050085104031916
:101AF600BC2D0330D2005208F000FF30D007031887
:101B0600D10AFF30D10750088A1565228A1583123B
:101B160003134F0784008A150A208A15BF008A1509
:101B26000A208A15C0008A150A208A15C1005308A2
:101B3600AF005408B0005508B1004C08B2004D087B
:101B4600B3004E08B4008A1176218A158312031356
:101B56002F08C2003008C3003108C4008A111D23B3
:101B66008A15831203133F08D3004008D4004108A6
:101B7600772D5308CC005408CD005508CE00080038
:101B860073080319CB2D720871047004031DDE2D32
:101B96000030F0000030F1000030F20008000130A3
:101BA600F5007508F30701300310F20CF10CF00C88
:101BB600FF3E031DD72DFE3072050319F92DD22DD8
:101BC6000130F5007508F3070130F00700300318FF
:101BD6000130F107003003180130F207013003101D
:101BE600F20CF10CF00CFF3E031DF22DFF307205D6
:101BF60003190C2EE32D02307302031C0E2E013046
:101C0600F30201300310F00DF10DF20DFF3E031D3E
:101C1600052EF11FFE2D7318162EFF30F0057F30AE
:101C2600F105FF30F2050310F30C7308F500F60119
:101C3600F70110300310F50DF60DF70DFF3E031DED
:101C46001D2E7508F0047608F1047708F20474086E
:101C560003190800F21708007008F4007108F5006F
:101C66007208F6000310750D760DF7007708FD0073
:101C76007D08031D472E0030F3000030F2000030CF
:101C8600F1000030F00008007008F4007108F5005B
:101C96007208F60017300310F60CF50CF40CFF3E34
:101CA600031D4E2E7408F7007708F800F117FF3071
:101CB600F005FF30F1050030F2057008F9007108F3
:101CC600FA007208FB00FC018E30FD02FD1F892E12
:101CD6007D08803A8F3E0318792E0030F3000030DD
:101CE600F2000030F1000030F0000800013003106F
:101CF600FC0CFB0CFA0CF90CFF3E031D7A2E01308E
:101D0600F4007408FD070319A42E792E18307D02FD
:101D1600031CA12E0030F3000030F2000030F10069
:101D26000030F00008000130F4000310F90DFA0D40
:101D3600FB0DFC0DF40B982E0130FD027D08031DF2
:101D4600962E78080319B22EF909FA09FB09FC093F
:101D5600F90A0319FA0A0319FB0A0319FC0A7C0893
:101D6600F3007B08F2007A08F1007908F000080019
:101D7600831203134C08F0004D08F1004E08F200E0
:101D86005330CF004F08F3008A1544238A15831277
:101D96000313D41FF12E4C08F0004D08F1004E0835
:101DA600F2000030F3000030F4000030F5008A1530
:101DB60001258A150318E82E003083120313CC0080
:101DC6008030CD00BF30CE000800003083120313F0
:101DD600CC000030CD000030CE00080000305402A8
:101DE600153003195302031808004C08F0004D087B
:101DF600F1004E08F2008A152F268A157308831201
:101E06000313A3007208A2007108A1007008A000C5
:101E16008A1584238A15831203132008D00021080B
:101E2600D1002208D2004C08F0004D08F1004E08FF
:101E3600F2005008F3005108F4005208F5008A1524
:101E460001258A150318402F003083120313BF00A3
:101E56008030C000BF30C1005008C2005108C30026
:101E66005208C4008A111D23831203133F08CC00B5
:101E76004008CD004108CE00080083120313500825
:101E8600CC005108CD005208CE000800831203137F
:101E96004F08D2005008D3005108D4000310530D48
:101EA600540DD5005508DA005A08031D612F00307D
:101EB600CC000030CD000030CE0008004C08D20027
:101EC6004D08D3004E08D4000310530D540DD50011
:101ED6005508DB005B08031D772F0030CC0000306F
:101EE600CD000030CE0008000030D7000030D8000A
:101EF6000030D90089305B07D2005208DA024F0859
:101F0600D2005008D3005108D40010300310D40C6E
:101F1600D30CD20CFF3E031D892F5208D50055085D
:101F2600DB004C08D2004D08D3004E08D400103018
:101F36000310D40CD30CD20CFF3E031D9B2F52086A
:101F4600D5005508DB068030D2005208DB05D017D5
:101F5600FF30CF05FF30D0050030D105CD17FF305B
:101F6600CC05FF30CD050030CE051830D200520822
:101F7600D60001300310D70DD80DD90DFF3E031D35
:101F8600BD2F4E085102031DCE2F4D085002031DD2
:101F9600CE2F4C084F02031CDB2F4C08CF024D08F6
:101FA600031C4D0FD0024E08031C4E0AD1025714D3
:101FB60001300310CF0DD00DD10DFF3E031DDC2FD8
:101FC6000130D602031DBC2F5708F0005808F10057
:101FD6005908F2005A08D2005208F3005B08D300F1
:101FE6005308F4008A15C325700883120313CC0026
:0A1FF6007108CD007208CE0008004B
:04400E0050FFFFFF61
:00000001FF
