:100000008A11EE2F831203134D08F0004E08F10001
:100010004F08F2005430D0005008F3008A15F52143
:100020008A1183120313D51F38284D08F0004E089B
:10003000F1004F08F2000030F3000030F40000300F
:10004000F5008A15AE238A1103182F280030831279
:100050000313CD008030CE00BF30CF000800003049
:1000600083120313CD000030CE000030CF00080013
:1000700000305502153003195402031808004D08CA
:10008000B0004E08B1004F08B2008A1566258A11EB
:10009000831203133308C1003208C0003108BF00C7
:1000A0003008BE008A1535228A11831203133E08D8
:1000B000D1003F08D2004008D3004D08F0004E08A0
:1000C000F1004F08F2005108F3005208F400530801
:1000D000F5008A15AE238A11031887280030831291
:1000E0000313C0008030C100BF30C2005108C300FC
:1000F0005208C4005308C5008A11622183120313F9
:100100004008CD004108CE004208CF00080083120D
:1001100003135108CD005208CE005308CF00080049
:10012000831203132008A6002108A7002208A800B4
:100130000310270D280DA9002908AA002A08031D6D
:10014000A8280030A0000030A1000030A200080064
:100150002308A6002408A7002508A8000310270DDF
:10016000280DA9002908AF002F08031DBE28003064
:10017000A0000030A1000030A20008002F087B3E44
:10018000A6002608AA072008A6002108A700220822
:10019000A80010300310A80CA70CA60CFF3E031DEE
:1001A000CA282608A9002908AF002308A6002408A9
:1001B000A7002508A80010300310A80CA70CA60C57
:1001C000FF3E031DDC282608A9002908AF06803061
:1001D000A6002608AF05A117A417FF30A305FF301E
:1001E000A4050030A5050030AB000030AC000030A5
:1001F000AD000730A6002608AE00201C0D292308FC
:10020000AB07240803110318240A031DAC072508B3
:1002100003110318250A031DAD0701300310A20CBA
:10022000A10CA00CFF3E031D0E2901300310A30DED
:10023000A40DA50DFF3E031D16290130AE02031DBE
:10024000FD280930A6002608AE00201C3529230809
:10025000AB07240803110318240A031DAC07250863
:1002600003110318250A031DAD0701300310A20C6A
:10027000A10CA00CFF3E031D362901300310AD0C6C
:10028000AC0CAB0CFF3E031D3E290130AE02031D3A
:1002900025292B08F0002C08F1002D08F2002A086F
:1002A000A6002608F3002F08A7002708F4008A15E7
:1002B0007024700883120313A0007108A100720853
:1002C000A2000800831203134008C6004108C700BB
:1002D0004208C8000310470D480DC9004908CC006A
:1002E0004308C6004408C7004508C8000310470D6E
:1002F000480DC9004908CB004C0803198B294B084D
:100300004C02031892294C03FF3A4B07C6001930E0
:100310004602031C92294308C0004408C100450856
:10032000C20008004B08031908004C084B020318D0
:10033000A1294B03FF3A4C07C600193046020318A7
:1003400008000630C6004608CA00C21BCA17C51BF3
:100350004A17C117FF30C005FF30C1050030C20584
:10036000C417FF30C305FF30C4050030C5054B0876
:100370004C020318E12901300310C30DC40DC50D53
:10038000FF3E031DBC290130CB024B084C0603196C
:10039000DC290130CA024A0807390319DC29BB29C4
:1003A00001300310C20CC10CC00CFF3E031DD1294B
:1003B0000130C6004608CC074C084B0603190A2A30
:1003C000D0294C084B0203180A2A01300310C00D33
:1003D000C10DC20DFF3E031DE6290130CC024B08C2
:1003E0004C060319062A0130CA024A0807390319C4
:1003F000062AE52901300310C50CC40CC30CFF3ECE
:10040000031DFB290130C6004608CB074C084B06EC
:10041000031DFA29CA1F1C2AFF30C006FF30C1067F
:10042000FF30C2060130C007003003180130C10799
:10043000003003180130C2074A1F2E2AFF30C306BE
:10044000FF30C406FF30C5060130C3070030031873
:100450000130C407003003180130C507CA01400845
:10046000C307410803110318410A031DC4074208CA
:1004700003110318420A031DC507C51F512AFF3087
:10048000C306FF30C406FF30C5060130C307003085
:1004900003180130C407003003180130C507CA0132
:1004A000CA0A4308F0004408F1004508F2004C086D
:1004B000C6004608F3004A08C7004708F4008A153A
:1004C0007024700883120313C0007108C100720801
:1004D000C200080083120313630862046104031D51
:1004E000782A0030E1008030E2003F30E30008006D
:1004F0007230F0003130F1004430F2006108F30056
:100500006208F4006308F5008A15AE238A11031807
:10051000972A223083160313E0000030E100FF30F9
:100520008312E1007F30E2007F30E3000800831295
:1005300003136108F0006208F1006308F20049301B
:10054000F3003A30F400C430F5008A15AE238A1166
:100550000318B92A223083160313E0000030E100AB
:10056000003083120313E1000030E2000030E300AA
:100570000800831203136108F0006208F1006308A9
:10058000F2000030F3000030F4000030F5008A156E
:10059000AE238A110318CE2A0130CF2A00308312ED
:1005A0000313E4006408ED006D080319E82A6108EC
:1005B000F0006208F1006308F2008A15AD208A118C
:1005C000700883120313E1007108E2007208E3006F
:1005D000AA30A000B830A1003F30A2006108A300FB
:1005E0006208A4006308A5008A1190208A11831272
:1005F00003132008E1002108E2002208E30061085B
:10060000CD006208CE006308CF008A1102208A1153
:10061000831203134D08E5004E08E6004F08E7007B
:100620006508B0006608B1006708B2008A15662543
:100630008A11831203133108EC003008EB006C08B8
:10064000F9006B08F8008A153F218A117808831297
:100650000313CD007908CE007A08CF006108D000DE
:100660006208D1006308D2008A155F218A118312C3
:1006700003134D08E1004E08E2004F08E300610853
:10068000CD006208CE006308CF000130E4006408AA
:10069000D0000930D1000030D2008A150B248A1115
:1006A000831203134D08D7004E08D8004F08D90015
:1006B0006C08DB006B08DA008A15F4258A118312B6
:1006C00003135708E1005808E2005908E3006D08D9
:1006D00003190800FF30E8007F30E9007F30EA00AE
:1006E00063086A06031D7A2B62086906031D7A2BCC
:1006F00061086806031D832B0030E1000030E20032
:100700000030E30008006108B0006208B10063082F
:10071000B2000030B3008030B4003F30B5008A151D
:100720008A26831203133008E1003108E200320800
:10073000E300080083160313AC01220821042004FF
:10074000031DC22B0030F0000030F1000030F20039
:100750002308F3002408F4002508F5008A15AE23C9
:100760008A11031CB92B213083160313E0000030DB
:10077000E100003083160313A0000030A100003018
:10078000A2000800250824042304031DCE2B0030FA
:10079000A0008030A1003F30A20008002008F00037
:1007A0002108F1002208F2000030F3000030F400CC
:1007B0000030F5008A15AE238A1103184A2C8316DF
:1007C0000313230883120313B000831603132408B2
:1007D00083120313B1008316031325088312031336
:1007E000B2008A1566258A11831203133308831613
:1007F0000313B00083120313320883160313AF00F0
:1008000083120313310883160313AE0083120313FC
:10081000300883160313AD003008FB002F08FA00E0
:100820002E08F9002D08F8008A15CB218A118316AD
:10083000031325087A06031D232C24087906031DBB
:10084000232C230878060319302C2130E0000030D7
:10085000E1000030A0000030A1000030A20008003C
:100860002D08013983120313EE006E08831603135B
:10087000AC002008F0002108F1002208F2008A15DF
:10088000AD208A11700883160313A0007108A1001F
:100890007208A20083160313200883120313D700E3
:1008A00083160313210883120313D800831603133E
:1008B000220883120313D9008A1541278A11831253
:1008C0000313570883160313A60083120313580853
:1008D00083160313A7008312031359088316031307
:1008E000A800230883120313A0008316031324080F
:1008F00083120313A1008316031325088312031325
:10090000A20083160313260883120313A300831681
:100910000313270883120313A40083160313280864
:1009200083120313A5008A1190208A1183120313E6
:10093000200883160313A9008312031321088316CA
:100940000313AA0083120313220883160313AB00B8
:10095000290883120313E100831603132A08831264
:100960000313E200831603132B0883120313E3001F
:100970008A116A228A1183120313610883160313F2
:10098000A00083120313620883160313A1008312CD
:100990000313630883160313A2002C08031908002D
:1009A0002008F0002108F1002208F2008A15AD208D
:1009B000700883160313A0007108A1007208A2003A
:1009C00008008A1506238A11003083160313BE001F
:1009D0000030BF000030C00000308A15A2218A110B
:1009E000710883160313BB007008BA0001308A1522
:1009F000A2218A11710883160313BD007008BC0080
:100A0000713083120313C0001930C100C230C2001C
:100A10000030B000C830B1004130B2004030A0001A
:100A20009C30A1004030A200831603133B08F9005C
:100A30003A08F8008A15FA208A11780883120313FD
:100A4000A3007908A4007A08A5008A1190208A11D1
:100A5000831203132008B3002108B4002208B50054
:100A60008A158A268A11831203133008C3003108BD
:100A7000C4003208C5008A1162218A11831203134F
:100A8000400883160313CD00831203134108831615
:100A90000313CE0083120313420883160313CF00FF
:100AA000003083120313B0002030B1004130B20097
:100AB000831603134D0883120313B3008316031325
:100AC0004E0883120313B400831603134F088312D6
:100AD0000313B5008A158A268A118312031330087E
:100AE00083160313D00083120313310883160313F4
:100AF000D10083120313320883160313D200500867
:100B0000A3005108A4005208A5000030A000203026
:100B1000A1004130A2008A119A238A11831603137F
:100B20002008D3002108D4002208D5000030831209
:100B30000313B0007A30B1004430B20083160313BF
:100B4000530883120313B30083160313540883124C
:100B50000313B40083160313550883120313B5005F
:100B60008A158A268A118312031330088316031309
:100B7000C10083120313310883160313C2008312CA
:100B80000313320883160313C30071308312031357
:100B9000C0001930C100C230C2000030B000C830FF
:100BA000B1004130B2004030A0009C30A100403084
:100BB000A200831603133D08F9003C08F8008A15CB
:100BC000FA208A11780883120313A3007908A4007D
:100BD0007A08A5008A1190208A1183120313200835
:100BE000B3002108B4002208B5008A158A268A11AC
:100BF000831203133008C3003108C4003208C50053
:100C00008A1162218A118312031340088316031389
:100C1000CD0083120313410883160313CE00831201
:100C20000313420883160313CF000030831203130B
:100C3000B0002030B1004130B200831603134D08DC
:100C400083120313B300831603134E088312031396
:100C5000B400831603134F0883120313B5008A15DB
:100C60008A268A1183120313300883160313D000D7
:100C700083120313310883160313D1008312031365
:100C8000320883160313D2005008A3005108A400B1
:100C90005208A5000030A0002030A1004130A20081
:100CA0008A119A238A11831603132008D30021087E
:100CB000D4002208D500003083120313B0007A302C
:100CC000B1004430B2008316031353088312031398
:100CD000B30083160313540883120313B40083165E
:100CE0000313550883120313B5008A158A268A1147
:100CF00083120313300883160313C40083120313F3
:100D0000310883160313C5008312031332088316B8
:100D10000313C6004108A0004208A1004308A20036
:100D20000030A3000030A4003F30A5008A119A23B0
:100D30008A11831603132008C7002108C80022085F
:100D4000C9004408A0004508A1004608A2000030E0
:100D5000A3000030A4003F30A5008A119A238A1115
:100D6000831603132008CA002108CB002208CC00F8
:100D7000470883120313C000831603134808831225
:100D80000313C10083160313490883120313C2001F
:100D9000831603134A08F0004B08F1004C08F200D8
:100DA0008A15AD208A11700883120313C3007108DD
:100DB000C4007208C5008A1162218A1183120313CC
:100DC0004008B0004108B1004208B2008316031386
:100DD0004A0883120313C000831603134B088312BF
:100DE0000313C100831603134C0883120313C200BC
:100DF00083160313470883120313C30083160313D8
:100E0000480883120313C40083160313490883128E
:100E10000313C5008A1162218A118312031340084B
:100E2000B3004108B4004208B5008A158A268A1129
:100E300083120313300883160313BE0083120313B7
:100E4000310883160313BF0083120313320883167D
:100E50000313C00000308A15B5208A112130831693
:100E60000313B100B10B322F053083120313BE0000
:100E70000030BF0083160313410883120313B00030
:100E800083160313420883120313B100831603135E
:100E9000430883120313B2008A1566258A11831250
:100EA00003133108C1003008C000B4308A15DC24B7
:100EB0008A11213083160313B100B10B5D2F62300C
:100EC000F3008030F4008A1521218A112130831625
:100ED0000313B100B10B6A2F053083120313BE0058
:100EE0000030BF0083160313440883120313B000BD
:100EF00083160313450883120313B10083160313EB
:100F0000460883120313B2008A1566258A118312DC
:100F100003133108C1003008C000B4308A15DC2446
:100F20008A11213083160313B100B10B952F403085
:100F30008A15B5208A11213083160313B100B10B35
:100F40009F2F5C30F3008030F4008A1521218A1134
:100F5000053083120313BE000030BF008316031355
:100F60003E0883120313A300831603133F08831262
:100F70000313A40083160313400883120313A50070
:100F80000030A000C830A1004230A2008A11902099
:100F90008A11831203132008B0002108B10022082F
:100FA000B2008A1566258A11831203133108C10025
:100FB0003008C000B4308A15DC248A110230831650
:100FC0000313B3000430B200BA30B100B10BE62F06
:100FD000B20BE62FB30BE62F0000EC2C83160313A5
:100FE000E001E1018313E030FD000830FE00BE3077
:100FF000FF00D63084008A15CC2083018A11E12CB1
:10100000FF1B0A2883137F1883170008840A03191B
:10101000FF0A080008308A000408840A82070034A6
:10102000003480343F34723431343F34FE3475340C
:101030003E34583463343D3495341D343C34C53427
:10104000AE343A34793421343934943480343734FA
:101050009334A734353456341534343400340034E2
:101060000034003480343F34F034FF34BE34E23492
:10107000A9343E3483347634BE34AE342B343E341B
:101080003C34C334BD34D23413343D347834D33497
:10109000BB342034203420342034203420344D34E8
:1010A00045345434453452342034203420342034F0
:1010B000203400342034203450344F3457344534F5
:1010C00052342034263420342034533457345234AC
:1010D0002034203400345334573452343A342034DA
:0A10E000003420342F342034003493
:10115A00720871047004031908008030F20608004E
:10116A00F3008312031306127308803E8A157F2147
:10117A00080030343134323433343434353436348C
:10118A003734383439347E088A007F088200C82010
:10119A008A158000840A04087D0603190034FF0AB0
:1011AA000319FE0ACC2883120313061201308A158A
:1011BA007F218A150630F4003030F300F30BE32860
:1011CA00F40BE32800000800F300F201731CF12875
:1011DA007008F1007108F2070310F00D0310F30C08
:1011EA007308031DEB28720808007808F0007908D4
:1011FA00F100F2018E30FB007B08F300F4018A153E
:10120A0070247008F8007108F9007208FA000800E2
:10121A000530F0007008831203139F051F083F3939
:10122A0080389F00831603139F171F13CF309F0523
:10123A00831203131F14080083120313061674087B
:10124A0083120313FF00730884008A1500208A158D
:10125A00003A031908007408FF00730884008A150D
:10126A0000208A158A157F218A150130F307031891
:10127A00F40A2429FD01F91F4929F809F909F80A8C
:10128A000319F90AFD01FD0A7808F0007908F1004E
:10129A00F2018E30FB007B08F3007D08FC007C081D
:1012AA00F4008A1570247008F8007108F9007208B1
:1012BA00FA000800831203134F084E044D04031961
:1012CA0068298030CF065008C0005108C100520872
:1012DA00C2004D08C3004E08C4004F08C5008A1159
:1012EA006221831203134008CD004108CE00420850
:1012FA00CF000800F2001A30F000F00B822900003B
:10130A00F030831203130605F0007208F10004306E
:10131A000310F10CFF3E031D8D2971080F3970046B
:10132A00860006170613F0300605F00072080F391A
:10133A0070048600061706130800F4000730F2004E
:10134A007208F405C530F2007208831203139F0570
:10135A007408F20002300310F20DFF3E031DB0299B
:10136A000310720DF30073089F040630F200F20BAB
:10137A00BC290000831203131F151F19C2291E0856
:10138A00F100831603131E08F00008008E30FC00DB
:10139A007C08FD00FF307B050319E12901300310A9
:1013AA00FB0CFA0CF90CF80CFF3E031DD429013092
:1013BA00FC007C08FD07CF297808F0007908F100C5
:1013CA007A08F2007D08FC007C08F300F4018A1513
:1013DA0070247008F8007108F9007208FA00080011
:1013EA00720871047004031D072A730884008313AA
:1013FA008001840A80010030F0000030F1000030E2
:10140A00F200080072087F39F400F5010310F40DA8
:10141A00F50D73088400740883138000840A750824
:10142A008000710D710D0139F400F5017308840013
:10143A0074088004840A7508800473088400823062
:10144A008007840F00080318000AFF00FF307F0797
:10145A0080008403720880393F38F200F1130800D3
:10146A0083120313C5018E30C2004208C400C11F93
:10147A004B2ABE09BF09C009C109BE0A0319BF0A1E
:10148A000319C00A0319C10AC501C50AFF3041057B
:10149A0003195D2A01300310C10CC00CBF0CBE0C2D
:1014AA00FF3E031D502A0130C2004208C4074B2ADE
:1014BA003E08F0003F08F1004008F2004408C2006C
:1014CA004208F3004508C3004308F4008A15702453
:1014DA00700883120313BE007108BF007208C000AF
:1014EA0008000330F5007508F7008312031306128B
:1014FA00061386122730F600F530F500F50B832A1D
:10150A00F60B832A7708831203138600061706133D
:10151A000D30F600FB30F500F50B912AF60B912AF7
:10152A00962A83120313061706138530F500F50B66
:10153A009C2A83120313061706138530F500F50B50
:10154A00A42A0230831203138600061706132830D2
:10155A008A157F218A150C308A157F218A158A15EA
:10156A00D8208A1506308A157F210800F601F31F54
:10157A00C52AF209F309F20A0319F30AF601F60A6F
:10158A00F11FCC2AF009F109F00A0319F10A7008CF
:10159A0071040319F92AF501F50AF11BE02A013051
:1015AA000310F00DF10DFF3E031DD52A0130F400A2
:1015BA007408F507D22A71087302031DE62A700817
:1015CA007202031CEE2A7008F2027108031CF3036C
:1015DA00F30201300310F10CF00CFF3E031DEF2A59
:1015EA000130F502031DE02A76080319012BF209DE
:1015FA00F309F20A0319F30A7308F1007208F000FA
:10160A0008000730831603139C008B017A308F0081
:10161A000330850086018312031385018601033096
:10162A00831603139B008A1576228A158A150D21C3
:10163A008A150630F9003030F800F80B222BF90B26
:10164A00222B000000308A15B5208A152130F800B7
:10165A00F80B2D2B4B30F3008030F4008A15212132
:10166A008A1540308A15B5208A152130F800F80B02
:10167A003C2B3A30F3008030F4008A1521218A1578
:10168A001030FA003930F9001B30F800F80B4B2BF8
:10169A00F90B4B2BFA0B4B2B522B8A15D82008002F
:1016AA00F601F11F5F2BF009F109F00A0319F10A9B
:1016BA00F601F60AF31F6A2BF209F309F20A031973
:1016CA00F30A0130F4007408F606F701F80170080D
:1016DA0071040319A12BF501F50AF11B802B0130C6
:1016EA000310F00DF10DFF3E031D752B0130F400C0
:1016FA007408F507722B01300310F70DF80DFF3E41
:10170A00031D812B71087302031D8D2B7008720251
:10171A00031C962B7008F2027108031CF303F302F0
:10172A00771401300310F10CF00CFF3E031D972BC8
:10173A000130F502031D802B76080319A92BF7093E
:10174A00F809F70A0319F80A7808F1007708F0008F
:10175A000800F21FD52B0030F6000030F700803069
:10176A00F8007009F9007109FA007209FB00F90A18
:10177A000319FA0A0319FB0A7908F6077A08031803
:10178A007A0FC82BC92BF7077B0803187B0FCE2BC0
:10179A00CF2BF8077608F0007708F1007808F200F6
:1017AA00F51FFC2B0030F6000030F7008030F800FF
:1017BA007309F9007409FA007509FB00F90A03199B
:1017CA00FA0A0319FB0A7908F6077A0803187A0F46
:1017DA00EF2BF02BF7077B0803187B0FF52BF62B63
:1017EA00F8077608F3007708F4007808F5008030E7
:1017FA00F2068030F50675087202031D08007408A7
:10180A007102031D08007308700208000330831276
:10181A000313D3005308F00051088A15E9208A15EA
:10182A0083120313500784008A150A208A15D400EC
:10183A008A150A208A15D5008A150A208A15D60023
:10184A00510852040319692C0330D3005308F000DD
:10185A00FF30D1070318D20AFF30D20751088A1580
:10186A00E9208A1583120313500784008A150A2077
:10187A008A15C0008A150A208A15C1008A150A200D
:10188A008A15C2005408A0005508A1005608A200F3
:10189A004D08A3004E08A4004F08A5008A11902005
:1018AA008A15831203132008C3002108C4002208E2
:1018BA00C5008A1162218A15831203134008D400D5
:1018CA004108D5004208242C5408CD005508CE0002
:1018DA005608CF00080073080319782C720871049F
:1018EA007004031D8B2C0030F0000030F100003032
:1018FA00F20008000130F5007508F3070130031003
:10190A00F20CF10CF00CFF3E031D842CFE30720524
:10191A000319A62C7F2C0130F5007508F307013056
:10192A00F007003003180130F107003003180130C6
:10193A00F20701300310F20CF10CF00CFF3E031D0C
:10194A009F2CFF3072050319B92C902C02307302B8
:10195A00031CBB2C0130F30201300310F00DF10D12
:10196A00F20DFF3E031DB22CF11FAB2C7318C32CD2
:10197A00FF30F0057F30F105FF30F2050310F30C5C
:10198A007308F500F601F70110300310F50DF60D96
:10199A00F70DFF3E031DCA2C7508F0047608F10402
:1019AA007708F204740803190800F2170800831272
:1019BA000313D20046308400D630C2000408C300A4
:1019CA000A30C4004208840083130008C500C20A12
:1019DA004308840045088000C30AC40BE72CD101E0
:1019EA00D0013E08FF3E5207C2004208840080012F
:1019FA00FF30BE070318BF0AFF30BF073F08803A0F
:101A0A00FF0080307F02031D0C2D01303E02031CB3
:101A1A005D2D831203135108031D2E2D0A30F00089
:101A2A000030F1004108F3004008F2008A15BB2299
:101A3A008A157008463E8400831300088312031334
:101A4A00C2003E08FF3E5207C30043088400420812
:101A5A00382D2030C2003E08FF3E5207C30043081B
:101A6A0084004208831380000A30F0000030F1003D
:101A7A004108F3004008F2008A1555238A157108B7
:101A8A0083120313C1007008C000FF30BE07031899
:101A9A00BF0AFF30BF070130C2004208D007400822
:101AAA004104031D5B2DD101D10A032DD101032D60
:101ABA00831203135208F3000030F4008A1521211F
:101ACA000800831203133008B4003108B500320845
:101ADA00B6000310350D360DB7003708BD003D08B6
:101AEA00031D802D0030B3000030B2000030B10079
:101AFA000030B00008003008B4003108B5003208E0
:101B0A00B60017300310B60CB50CB40CFF3E031D1B
:101B1A00872D3408B7003708B800B117FF30B00571
:101B2A00FF30B1050030B2053008B9003108BA00FB
:101B3A003208BB00BC018E30BD02BD1FC22D3D085C
:101B4A00803A8F3E0318B22D0030B3000030B20045
:101B5A000030B1000030B000080001300310BC0CA6
:101B6A00BB0CBA0CB90CFF3E031DB32D0130B400F7
:101B7A003408BD070319DD2DB22D18303D02031CB0
:101B8A00DA2D0030B3000030B2000030B10000306E
:101B9A00B00008000130B4000310B90DBA0DBB0D36
:101BAA00BC0DB40BD12D0130BD023D08031DCF2D54
:101BBA0038080319EB2DB909BA09BB09BC09B90AD6
:101BCA000319BA0A0319BB0A0319BC0A3C08B30071
:101BDA003B08B2003A08B1003908B0000800831285
:101BEA000313590858045704031D022E0030D70066
:101BFA000030D8000030D900080059087F39DC00CD
:101C0A00DD010310DC0DDD0D5C08DA070318DB0AC1
:101C1A005D08DB07580D580D0139DC00DD015C0851
:101C2A00DA070318DB0A5D08DB07DB1F2B2E2230DD
:101C3A0083160313E0000030E1000030831203131F
:101C4A00D7000030D8000030D90008005B08803A7D
:101C5A00FF0081307F02031D342E00305A02031C1C
:101C6A00712E223083160313E0000030E100831244
:101C7A0003135708F0005808F1005908F200003021
:101C8A00F3000030F4000030F5008A15AE238A15FF
:101C9A000318682EFF3083120313DE007F30DF0043
:101CAA007F30E0005E08F0005F08F1006008F20093
:101CBA008A15AD20700883120313D7007108D80063
:101CCA007208D9000800FF3083120313D7007F304F
:101CDA00D8007F30D9000800831203135B08DD00A7
:101CEA005A08DC005D0DDD0CDC0C59085C068039F5
:101CFA005C06D9005A080139DC00DC0CDC0C5808F7
:101D0A005C067F395C06D800080083120313330887
:101D1A00B6003408B7003508B8000310370D380D7F
:101D2A00B9003908BE003E08031DA22E0030B000DB
:101D3A000030B1000030B20008003008B6003108A7
:101D4A00B7003208B8000310370D380DB90039084A
:101D5A00BF003F08031DB82E0030B0000030B100AC
:101D6A000030B20008000030BB000030BC00003078
:101D7A00BD0089303F07B6003608BE023308B600F8
:101D8A003408B7003508B80010300310B80CB70C87
:101D9A00B60CFF3E031DCA2E3608B9003908BF002B
:101DAA003008B6003108B7003208B8001030031006
:101DBA00B80CB70CB60CFF3E031DDC2E3608B90072
:101DCA003908BF068030B6003608BF05B417FF30A1
:101DDA00B305FF30B4050030B505B117FF30B005C3
:101DEA00FF30B1050030B2051830B6003608BA0027
:101DFA0001300310BB0DBC0DBD0DFF3E031DFE2EB1
:101E0A0032083502031D0F2F31083402031D0F2F2C
:101E1A0030083302031C1C2F3008B3023108031C9C
:101E2A00310FB4023208031C320AB5023B140130E6
:101E3A000310B30DB40DB50DFF3E031D1D2F013068
:101E4A00BA02031DFD2E3B08F0003C08F1003D08D4
:101E5A00F2003E08B6003608F3003F08B70037081C
:101E6A00F4008A157024700883120313B0007108F5
:101E7A00B1007208B2000800831203135708F00079
:101E8A005808F1005908F2000030F3000030F4005D
:101E9A000030F5008A15AE238A150318632F213006
:101EAA0083160313E0000030E100003083120313AD
:101EBA00D7000030D8000030D9000800831203137D
:101ECA00590858045704031D792F22308316031327
:101EDA00E0000030E100003083120313D700003025
:101EEA00D8000030D90008000030C0008030C1009E
:101EFA00BF30C2000030A0000030A1004030A20074
:101F0A005B30DA005A08F3005708F0005808F1006D
:101F1A005908F2008A15F5218A15700883120313ED
:101F2A00A3007108A4007208A5008A1190208A15DE
:101F3A00831203132008C3002108C4002208C50025
:101F4A008A1162218A15831203134008D7004108B7
:101F5A00D8004208D900FF30DB070318DC0AFF303B
:101F6A00DC075708CD005808CE005908CF001F30AB
:101F7A00DA005A08D0000830D1000030D2008A15A1
:101F8A000B248A15831203134D08D7004E08D80074
:101F9A004F08D9005708C0005808C1005908C200A4
:101FAA007230A0003130A1003F30A2005C08F90075
:101FBA005B08F8008A153F218A15780883120313F3
:101FCA00A3007908A4007A08A5008A1190208A152E
:101FDA00831203132008C3002108C4002208C50085
:101FEA008A116221831203134008D7004108D800DE
:061FFA004208D9000800B6
:04400E0050FFFFFF61
:00000001FF
