:100000008A11FD2F8A113A298A113F298A11422922
:100010008A1145298A1148298A114B298A114E29AA
:0C0020008A1151298A1154298A1157298C
:10019600F300F201731CD3287008F1007108F2070E
:1001A6000310F00D0310F30C7308031DCD2872081D
:1001B60008000530F0007008831203139F051F081E
:1001C6003F3980389F00831603139F171F13CF30C4
:1001D6009F05831203131F140800FD01F91FFA2857
:1001E600F809F909F80A0319F90AFD01FD0A780860
:1001F600F0007908F100F2018E30FB007B08F30075
:100206007D08FC007C08F4008A1178227008F8004A
:100216007108F9007208FA000800F4000730F200CD
:100226007208F405C530F2007208831203139F05A5
:100236007408F20002300310F20DFF3E031D1E2962
:100246000310720DF30073089F040630F200F20BE0
:100256002A290000831203131F151F1930291E08AF
:10026600F100831603131E08F00008005D2977309D
:1002760083120313860008004430860008005B30B2
:10028600860008005E30860008006C308600080094
:100296003E30860008003F30860008005430860055
:1002A60008007F30860008007E30860008007F3018
:1002B60086000800831203132308003A03196429F1
:1002C6005A29220884000A30040203185A290030E9
:1002D6008A000310040D023E8200080083120313F5
:1002E600A101FC1F7D29FB09FC09FB0A0319FC0A75
:1002F600A101A10AFA1F8429F909FA09F90A0319C1
:10030600FA0A79087A040319B129A001A00AFA1B8E
:10031600982901300310F90DFA0DFF3E031D8D29B2
:100326000130FD007D08A0078A297A087C02031D9A
:100336009E2979087B02031CA6297908FB027A0804
:10034600031CFC03FC0201300310FA0CF90CFF3EFF
:10035600031DA7290130A002031D982921080319AE
:10036600B929FB09FC09FB0A0319FC0A7C08FA00F7
:100376007B08F9000800F601F11FC829F009F10908
:10038600F00A0319F10AF601F60AF31FD329F20956
:10039600F309F20A0319F30A0130F4007408F606A9
:1003A600F701F8017008710403190A2AF501F50A24
:1003B600F11BE92901300310F00DF10DFF3E031D7D
:1003C600DE290130F4007408F507DB29013003103B
:1003D600F70DF80DFF3E031DEA2971087302031D90
:1003E600F62970087202031CFF297008F2027108D0
:1003F600031CF303F302771401300310F10CF00C25
:10040600FF3E031D002A0130F502031DE929760887
:100416000319122AF709F809F70A0319F80A7808DE
:10042600F1007708F0000800F61F402A003083121A
:100436000313A0000030A1008030A2007409A300BD
:100446007509A4007609A500A30A0319A40A0319CD
:10045600A50A2308A00724080318240F332A342AE0
:10046600A10725080318250F392A3A2AA2072008CA
:10047600F4002108F5002208F600F91F692A003069
:1004860083120313A0000030A1008030A200770978
:10049600A3007809A4007909A500A30A0319A40AF0
:1004A6000319A50A2308A00724080318240F5C2AA9
:1004B6005D2AA10725080318250F622A632AA207C9
:1004C6002008F7002108F8002208F9008030F60617
:1004D6008030F90679087602031D0800780875024F
:1004E600031D080077087402080073080319802AA0
:1004F600720871047004031D932A0030F000003066
:10050600F1000030F20008000130F5007508F3072D
:1005160001300310F20CF10CF00CFF3E031D8C2A87
:10052600FE3072050319AE2A872A0130F5007508D8
:10053600F3070130F007003003180130F1070030EF
:1005460003180130F20701300310F20CF10CF00C25
:10055600FF3E031DA72AFF3072050319C12A982AF8
:1005660002307302031CC32A0130F3020130031068
:10057600F00DF10DF20DFF3E031DBA2AF11FB32A4D
:100586007318CB2AFF30F0057F30F105FF30F205F6
:100596000310F30C7308F500F601F7011030031091
:1005A600F50DF60DF70DFF3E031DD22A7508F00472
:1005B6007608F1047708F204740803190800F217A4
:1005C60008007008F4007108F5007208F6000310C0
:1005D600750D760DF7007708FD007D08031DFC2AD2
:1005E6000030F3000030F2000030F1000030F0007F
:1005F60008007008F4007108F5007208F60017305C
:100606000310F60CF50CF40CFF3E031D032B7408C7
:10061600F7007708F800F117FF30F005FF30F10515
:100626000030F2057008F9007108FA007208FB0044
:10063600FC018E30FD02FD1F3E2B7D08803A8F3E69
:1006460003182E2B0030F3000030F2000030F100CA
:100656000030F000080001300310FC0CFB0CFA0C13
:10066600F90CFF3E031D2F2B0130F4007408FD0723
:100676000319592B2E2B18307D02031C562B0030E4
:10068600F3000030F2000030F1000030F000080006
:100696000130F4000310F90DFA0DFB0DFC0DF40BFF
:1006A6004D2B0130FD027D08031D4B2B78080319E5
:1006B600672BF909FA09FB09FC09F90A0319FA0A71
:1006C6000319FB0A0319FC0A7C08F3007B08F200F5
:1006D6007A08F1007908F00008000A30F9000030C5
:1006E600FA00831203132508FC002408FB008A1174
:1006F60071218A117A0883120313A3007908A200D4
:100706008A1139218A118312031385150D30A7002A
:10071600FB30A600A60B8D2BA70B8D2B922B8312DD
:10072600031385110A30F9000030FA000A30F00090
:100736000030F1002508F3002408F2008A11BE21DA
:100746008A117108FC007008FB008A1171218A1158
:100756007A0883120313A3007908A2008A113921AB
:100766008A118312031305150D30A700FB30A6006E
:10077600A60BBB2BA70BBB2BC02B83120313051198
:100786000A30F9000030FA006430F0000030F10061
:100796002508F3002408F2008A11BE218A11710887
:1007A600FC007008FB008A1171218A117A088312F5
:1007B6000313A3007908A2008A1139218A11831232
:1007C600031385170D30A700FB30A600A60BE92BF7
:1007D600A70BE92BEE2B8312031385130A30F900BE
:1007E6000030FA00E830F0000330F1002508F3008D
:1007F6002408F2008A11BE218A117108FC007008D3
:10080600FB008A1171218A117A0883120313A3004F
:100816007908A2008A1139218A1183120313051758
:100826000D30A700FB30A600A60B172CA70B172C24
:100836001C2C8312031305130800831203133508B7
:10084600BB003608BC003708BD0003103C0D3D0D4B
:10085600BE003E08BF003F08031D382C0030B5001F
:100866000030B6000030B70008003808BB00390871
:10087600BC003A08BD0003103C0D3D0DBE003E080D
:10088600C4004408031D4E2C0030B5000030B600ED
:100896000030B700080044087B3EBB003B08BF079A
:1008A6003508BB003608BC003708BD001030031001
:1008B600BD0CBC0CBB0CFF3E031D5A2C3B08BE00F6
:1008C6003E08C4003808BB003908BC003A08BD0021
:1008D60010300310BD0CBC0CBB0CFF3E031D6C2C72
:1008E6003B08BE003E08C4068030BB003B08C4057A
:1008F600B617B917FF30B805FF30B9050030BA058D
:100906000030C0000030C1000030C2000730BB001C
:100916003B08C300351C9D2C3808C0073908031155
:100926000318390A031DC1073A08031103183A0AC6
:10093600031DC20701300310B70CB60CB50CFF3E01
:10094600031D9E2C01300310B80DB90DBA0DFF3EE4
:10095600031DA62C0130C302031D8D2C0930BB00DC
:100966003B08C300351CC52C3808C00739080311DD
:100976000318390A031DC1073A08031103183A0A76
:10098600031DC20701300310B70CB60CB50CFF3EB1
:10099600031DC62C01300310C20CC10CC00CFF3E57
:1009A600031DCE2C0130C302031DB52C4008F000F8
:1009B6004108F1004208F2003F08BB003B08F30083
:1009C6004408BC003C08F4008A117822700883129F
:1009D6000313B5007108B6007208B7000800831249
:1009E6000313B200B001B1013108803AFF00803034
:1009F6007F02031D002D083030020318CD2D83120F
:100A06000313B301B4013408803AFF0080307F023B
:100A1600031D0F2D083033020318BA2D033083123D
:100A26000313A6002608F0003308013E8A11CB20E6
:100A36008A11831203133207A70027088400831341
:100A46000008F400840A0008F500840A0008F6008D
:100A56000330A8002808F00033088A11CB208A1139
:100A6600831203133207A9002908840083130008A0
:100A7600F700840A0008F800840A0008F9008A11C1
:100A860017228A110318A72D033083120313A60019
:100A96002608F0003308013E8A11CB208A11831202
:100AA60003133207A7002708840083130008AD004C
:100AB600840A0008AE00840A0008AF000330A600CE
:100AC6002608F00033088A11CB208A1183120313FB
:100AD6003207A7002708840083130008A800840AA9
:100AE6000008A900840A0008AA000330AB002B08FE
:100AF600F0003308013E8A11CB208A1183120313BA
:100B06003207AC002C088400280883138000840A6E
:100B160029088000840A2A0880000330A6002608D7
:100B2600F00033088A11CB208A118312031332078F
:100B3600A700270884002D0883138000840A2E0846
:100B46008000840A2F088000013083120313B30744
:100B56000318B40A0030B4073408803AFF00803026
:100B66007F02031DB82D08303302031C112D0130FE
:100B760083120313B0070318B10A0030B107310816
:100B8600803AFF0080307F02031DCB2D08303002F3
:100B9600031C022D8312031332080C3E84008313B8
:100BA6000008FA00840A0008FB00840A0008FC001A
:100BB6000800831203134508CB004608CC004708FB
:100BC600CD0003104C0D4D0DCE004E08D100480847
:100BD600CB004908CC004A08CD0003104C0D4D0D42
:100BE600CE004E08D00051080319052E50085102B8
:100BF60003180C2E5103FF3A5007CB0019304B0255
:100C0600031C0C2E4808C5004908C6004A08C70040
:100C160008005008031908005108500203181B2E3B
:100C26005003FF3A5107CB0019304B020318080056
:100C36000630CB004B08CF00C71BCF17CA1B4F1778
:100C4600C617FF30C505FF30C6050030C705C917F2
:100C5600FF30C805FF30C9050030CA0550085102EB
:100C660003185B2E01300310C80DC90DCA0DFF3ED7
:100C7600031D362E0130D002500851060319562E98
:100C86000130CF024F0807390319562E352E013091
:100C96000310C70CC60CC50CFF3E031D4B2E0130BE
:100CA600CB004B08D107510850060319842E4A2E53
:100CB600510850020318842E01300310C50DC60DCD
:100CC600C70DFF3E031D602E0130D10250085106AC
:100CD6000319802E0130CF024F0807390319802EE1
:100CE6005F2E01300310CA0CC90CC80CFF3E031D51
:100CF600752E0130CB004B08D00751085006031D56
:100D0600742ECF1F962EFF30C506FF30C606FF3065
:100D1600C7060130C507003003180130C60700308A
:100D260003180130C7074F1FA82EFF30C806FF3033
:100D3600C906FF30CA060130C80700300318013063
:100D4600C907003003180130CA07CF014508C80794
:100D5600460803110318460A031DC907470803116D
:100D66000318470A031DCA07CA1FCB2EFF30C80641
:100D7600FF30C906FF30CA060130C8070030031825
:100D86000130C907003003180130CA07CF01CF0A66
:100D96004808F0004908F1004A08F2005108CB0063
:100DA6004B08F3004F08CC004C08F4008A11782257
:100DB600700883120313C5007108C6007208C700C5
:100DC60008000730831603139C007A308F008B01CE
:100DD60003309B00133085008601831203138501BF
:100DE60086018A11DC208A11003083160313BB00AA
:100DF6000030BC000030BD000030BE000030BF0037
:100E06000030C000C101C2017D2F831603134208C2
:100E1600803AFF0080307F02031D132F0930410204
:100E26000318402F033083120313D2005208F00038
:100E36008316031341088A11CB208A11A03E840031
:100E460000308A1110218A117108F9007008F80023
:100E56008A11F0208A11780883138000840A7908A1
:100E66008000840A7A088000013083160313C107C4
:100E76000318C20A0030C2076B2FCD30831203134A
:100E8600B500CC30B6003F30B700A0308A11F2244E
:100E96008A117A0883120313B8007B08B9007C080C
:100EA600BA008A1120248A11831203133508831687
:100EB6000313BB0083120313360883160313BC0007
:100EC60083120313370883160313BD00C101C20141
:100ED6003B08F0003C08F1003D08F2008A11E422CC
:100EE6008A11710883120313A5007008A4008A11E1
:100EF60070238A1183120313051A082F051A7D2FF2
:100F0600831603134208803AFF0080307F02031DD8
:100F16008E2F093041020318BB2F033083120313AF
:100F2600D2005208F0008316031341088A11CB2021
:100F36008A11A03E840001308A1110218A1171089D
:100F4600F9007008F8008A11F0208A1178088313D6
:100F56008000840A79088000840A7A0880000130BB
:100F660083160313C1070318C20A0030C207F72FFE
:100F7600003083120313C5000030C600C030C7001E
:100F86000030B500C030B6003F30B700A0308A113F
:100F9600F2248A117A0883120313B8007B08B90079
:100FA6007C08BA008A1120248A118312031335089B
:100FB600C8003608C9003708CA008A11DC258A111C
:100FC60083120313450883160313BE00831203130B
:100FD600460883160313BF008312031347088316BC
:100FE6000313C000C101C2013E08F0003F08F10032
:0A0FF6004008702F83018A11E42ED9
:04400E0010FFFCFFA4
:00000001FF
