:040000008A11112828
:10000800FE00030E83120313AC000408AD000A08B7
:10001800AE007F08AF008A11012B8A111328CD0189
:10002800CE0183018A11602A83120313C6003E3071
:10003800C0004008C300013083120313C607FF3015
:10004800460784008A11B6228A11C0004008C900F8
:1000580049080319080025304906031938284908B2
:100068008A1162238A111F2883120313C4010130E5
:10007800C607FF30460784008A11B6228A11C900D4
:10008800003A0319CC28643A03194E280D3A03198B
:100098004E281F284308840083130008C700840AD9
:1000A8000008C8000230C0004008C307C81F652800
:1000B8000330C0004008C404C709C809C70A0319A7
:1000C800C80AC901C90A0530490603198828490818
:1000D800C0004007013E84008A11B6228A11C1007F
:1000E8008A11B6228A11C20042084802031D7E28DE
:1000F80041084702031C88280130C0004008C9078E
:1001080005304906031D6B28440803390319902854
:100118002D308A1162238A11831203134908C00003
:100128004008C500FF3083120313C0004008C5070C
:10013800450A03191F280A30B8000030B9004508DD
:10014800C0004007013E84008A11B6228A11B0001F
:100158008A11B6228A11B1004808B3004708B200D4
:100168008A1180218A11831203133108BB003008D9
:10017800BA008A11FA218A11831203133808303E13
:10018800C1004108C90049088A1162238A119628CA
:10019800080083120313A5002030A2002208A6003D
:1001A800013083120313A507FF30250784008A1145
:1001B800B6228A11A2002208AB002B0803190800F6
:1001C80025302B060319ED282B088A116A238A117A
:1001D800D42883120313A7010130A507FF30250790
:1001E80084008A11B6228A11AB00003A03197F29CC
:1001F800643A031903290D3A03190329D428260858
:10020800840083130008A900840A0008AA000230A9
:10021800A2002208A607AA1F1A290330A200220852
:10022800A704A909AA09A90A0319AA0AAB01AB0AD2
:1002380005302B0603193D292B08A2002207013E91
:1002480084008A11B6228A11A3008A11B6228A1163
:10025800A40024082A02031D332923082902031CA9
:100268003D290130A2002208AB0705302B06031DEB
:10027800202927080339031945292D308A116A23B3
:100288008A11831203132B08A2002208A800FF304A
:1002980083120313A2002208A807280A0319D428E6
:1002A8000A30F8000030F9002808A2002207013EB1
:1002B80084008A11B6228A11F0008A11B6228A11A6
:1002C800F1002A08F3002908F2008A11BE218A11D8
:1002D8007108FB007008FA008A112E228A1178082A
:1002E800303E83120313A3002308AB002B088A11A6
:1002F8006A238A114B29080083120313B501B6013A
:10030800300831040319B929B701B70AB11B982974
:1003180001300310B00DB10DFF3E031D8D290130D2
:10032800B4003408B7078A2901300310B50DB60D9B
:10033800FF3E031D992931083302031DA529300802
:100348003202031CAE293008B2023108031CB30381
:10035800B302351401300310B10CB00CFF3E031D7D
:10036800AF290130B702031D98293608B1003508B6
:10037800B0000800F501F601700871040319F529A9
:10038800F701F70AF11BD42901300310F00DF10D24
:10039800FF3E031DC9290130F4007408F707C62978
:1003A80001300310F50DF60DFF3E031DD529710828
:1003B8007302031DE12970087202031CEA29700800
:1003C800F2027108031CF303F302751401300310E1
:1003D800F10CF00CFF3E031DEB290130F702031D61
:1003E800D4297608F1007508F00008008312031379
:1003F800380839040319292ABD01BD0AB91B102A76
:1004080001300310B80DB90DFF3E031D052A013058
:10041800BC003C08BD07022A39083B02031D162A06
:1004280038083A02031C1E2A3808BA023908031C85
:10043800BB03BB0201300310B90CB80CFF3E031D0F
:100448001F2A0130BD02031D102A3B08B9003A08D3
:10045800B80008007808790403195B2AFD01FD0A31
:10046800F91B422A01300310F80DF90DFF3E031D58
:10047800372A0130FC007C08FD07342A79087B0202
:10048800031D482A78087A02031C502A7808FA02C1
:100498007908031CFB03FB0201300310F90CF80C6C
:1004A800FF3E031D512A0130FD02031D422A7B082D
:1004B800F9007A08F80008008A11DF228A118A11E7
:1004C80037238A110B3083120313CC002630CB005C
:1004D8006630CA00CA0B6E2ACB0B6E2ACC0B6E2A6A
:1004E800752A831603130C1701308A1120238A11E9
:1004F80001308A118B228A11831203133108BF003D
:100508003008BE0018308A1118208A11752A831203
:100518000313B4000730B2003208B405C530B20086
:1005280032089F053408B20002300310B20DFF3EB6
:10053800031D992A0310320DB30033089F040630B7
:10054800B200B20BA52A0000831203131F151F194E
:10055800AB2A1E08B100831603131E088312031367
:10056800B000080002308A000408840A82070034B8
:10057800013400340A34003464340034E834033479
:100588001034273472346534733475346C347434ED
:100598003A342534643420340D340A340034723447
:1005A800653473347534203420343A342534643453
:1005B8000D340A3400340730831603139C007A3054
:1005C8008F008B0102309B000230850083120313D9
:1005D800850183160313061586160C309900903092
:1005E80083120313980020308316031398008A118E
:1005F80037238A118A11582308000C1F132B8316DE
:1006080003130C138A114B238A11710883120313E5
:10061800A1007008A0000B308A11CD208A11831226
:1006280003132F08FF002E088A002D0884002C0EC3
:100638008300FE0E7E0E090083120313B2000730FA
:10064800B0003008B2053208B00002300310B00D17
:10065800FF3E031D2A2B0310300DC538B1003108A9
:100668009F051F150800053083120313B0003008DA
:100678009F051F083F3980389F00831603139F1773
:100688001F13CF309F05831203131F14080083160E
:1006980003130C13831203130C131E08F1008316A3
:1006A80003131E08F00008008B01831603130C17B0
:1006B800831203130C130B178B17080083120313F1
:1006C800B0000C1E652B300899000800F00083125A
:0C06D80003130C1E6B2B70089900080027
:04400E0010FFFCFFA4
:00000001FF
