:020000001C28BA
:10000800803120007F08AE00111F1828210011132D
:100018000A302000A0008330A1008323710820004B
:10002800A3007008A200CF2020002E08FF000900BE
:100038001D28CE01CF012000232B3F302000C10016
:100048004108C50020003E08C2003D08C100BD0AA5
:100058000319BE0A41088400420885000008C3004D
:100068004308CA004A080319080025304A0603193C
:1000780040284A088D2326282000C6013E08C200D1
:100088003D08C100BD0A0319BE0A410884004208A0
:1000980085000008CA00003A0319CE28643A0319FB
:1000A80059280D3A0319592826284508860087013A
:1000B800403FC800413FC9000230C1004108C507A0
:1000C800C91F6F280330C1004108C604C809C909FF
:1000D800C80A0319C90ACA01CA0A05304A06031917
:1000E80094284A08C100C201C135C20D0030410739
:1000F80084008330423D8500003FC300013FC400B7
:1001080044084902031D8A2843084802031C94280E
:100118000130C1004108CA0705304A06031D752889
:100128004608033903199A282D308D2320004A08E0
:10013800C1004108C700FF302000C1004108C707BF
:10014800470A031926280A30B7000030B8004708C4
:10015800C100C201C135C20D00304107840083309F
:10016800423D8500003FAF00013FB0004908B200A2
:100178004808B1007C2120003008BA002F08B900D7
:10018800E52120003708303EC3004308CA004A086A
:100198008D239F28080022302000A4002408A800EE
:1001A80020002108A5002008A400A00A0319A10A1C
:1001B80024088400250885000008A6002608AD004C
:1001C8002D080319080025302D060319EE282D08DF
:1001D8009D23D4282000A9012108A5002008A400F7
:1001E800A00A0319A10A240884002508850000082C
:1001F800AD00003A03197B29643A031907290D3A1F
:1002080003190729D428280886008701403FAB0036
:10021800413FAC000230A4002408A807AC1F1D29E8
:100228000330A4002408A904AB09AC09AB0A0319DC
:10023800AC0AAD01AD0A05302D06031942292D0877
:10024800A400A501A435A50D00302407840083303F
:10025800253D8500003FA600013FA70027082C0286
:10026800031D382926082B02031C42290130A4004B
:100278002408AD0705302D06031D23292908033955
:10028800031948292D309D2320002D08A400240897
:10029800AA00FF302000A4002408AA072A0A03198C
:1002A800D4280A30F8000030F9002A08A400A50173
:1002B800A435A50D0030240784008330253D850032
:1002C800003FF000013FF1002C08F3002B08F2007A
:1002D800B1217108FB007008FA0012227808303E3C
:1002E8002000A6002608AD002D089D234D290800F2
:1002F8002000B401B5012F0830040319AC29B60158
:10030800B60AB01B91290130AF35B00D890B882989
:100318000130B3003308B60785290130B435B50D6F
:10032800890B922930083202031D9C292F083102BB
:10033800031CA3292F08B1023008B23B3414013042
:10034800B036AF0C890BA4290130B602031D9129E0
:100358003508B0003408AF000800F501F601700850
:1003680071040319E029F701F70AF11BC5290130C7
:10037800F035F10D890BBC290130F4007408F7073A
:10038800B9290130F535F60D890BC62971087302B4
:10039800031DD02970087202031CD7297008F202C5
:1003A8007108F33B75140130F136F00C890BD8292C
:1003B8000130F702031DC5297608F1007508F00021
:1003C800080020003708380403190D2ABC01BC0AAC
:1003D800B81BF8290130B735B80D890BEF29013062
:1003E800BB003B08BC07EC2938083A02031DFE296C
:1003F80037083902031C042A3708B9023808BA3BFF
:100408000130B836B70C890B052A0130BC02031D30
:10041800F8293A08B8003908B700080078087904BC
:100428000319392AFD01FD0AF91B242A0130F83580
:10043800F90D890B1B2A0130FC007C08FD07182ADE
:1004480079087B02031D2A2A78087A02031C302ABD
:100458007808FA027908FB3B0130F936F80C890B69
:10046800312A0130FD02031D242A7B08F9007A088D
:10047800F80008002000B3000730B1003108B305C8
:10048800C530B100310821009D0520003308B100B6
:100498000230B135FF3E031D4D2A3135B200320816
:1004A80021009D0406302000B100B10B592A00003C
:1004B80021009D149D185E2A1C082000B000210010
:0804C8001B082000AF00080032
:10060000013400340A34003464340034E8340334F0
:100610001034273472346534733475346C34743464
:100620003A342534643420340D340A3400347234BE
:10063000653473347534203420343A3425346434CA
:100640000D340A340034452373230B302000CD00D1
:100650002630CC006630CB00CB0B2C2BCC0B2C2BBC
:10066000CD0B2C2B00322100111701305E231730E7
:100670002000BD008330BE0002303E222000300842
:10068000C0002F08BF002120332B723021009900B9
:100690008B01063023008C00063021008C002000E6
:1006A0008C0121008C140C140C3023009B00903022
:1006B0009D0020309E007323952308002000B10088
:1006C0000730AF002F08B1053108AF000230AF3559
:1006D000FF3E031D672B2F35C538B00030082100C1
:1006E0009D059D14080005302000AF002F08210053
:1006F0009D051E088F3920389E009E171E13FC3062
:100700009E051D1408002100111320001113210063
:100710001C08F1001B08F00008002000AF00111EAB
:100720008F2B2F0823009A0008008B01210011173E
:10073000200011130B178B170800F0002000111E6A
:0A0740009E2B700823009A000800A9
:020000040001F9
:04000E00E4FFFFFF0D
:00000001FF
