:020000040000fa
:080000000002040000000000f2
:020000040000fa
:100008009c0200009c0200009c0200009c02000070
:100018009c0200009c0200009c0200009c02000060
:100028009c0200009c0200009c0200009c02000050
:100038009c0200009c0200009c0200009c02000040
:100048009c0200009c0200009c0200009c02000030
:100058009c0200009c0200009c0200009c02000020
:100068009c0200009c0200009c0200009c02000010
:100078009c0200009c0200009c0200009c02000000
:100088009c0200009c0200009c0200009c020000f0
:100098009c0200009c0200009c0200009c020000e0
:1000a8009c0200009c0200009c0200009c020000d0
:1000b8009c0200009c0200009c0200009c020000c0
:1000c8009c0200009c0200009c0200009c020000b0
:1000d8009c0200009c0200009c0200009c020000a0
:1000e8009c0200009c0200009c0200009c02000090
:1000f8009c0200009c0200009c0200009c02000080
:100108009c0200009c0200009c0200009c0200006f
:100118009c0200009c0200009c0200009c0200005f
:100128009c0200009c0200009c0200009c0200004f
:100138009c0200009c0200009c0200009c0200003f
:100148009c0200009c0200009c0200009c0200002f
:100158009c0200009c0200009c0200009c0200001f
:100168009c0200009c0200009c0200009c0200000f
:100178009c0200009c020000fe3900009c02000066
:100188009c0200009c0200009c0200009c020000ef
:100198009c0200009c0200009c0200009c020000df
:1001a8009c0200009c0200009c0200009c020000cf
:1001b8009c0200009c0200009c0200009c020000bf
:1001c8009c0200009c0200009c0200009c020000af
:1001d8009c0200009c0200009c0200009c0200009f
:1001e8009c0200009c0200009c0200009c0200008f
:0801f8009c0200009c020000c3
:020000040000fa
:100208009c0200009c0200009c0200009c0200006e
:100218009c0200009c0200009c0200009c0200005e
:100228009c0200009c0200009c0200009c0200004e
:100238009c0200009c0200009c0200009c0200003e
:100248009c0200009c0200009c0200009c0200002e
:100258009c0200009c0200009c0200009c0200001e
:100268009c0200009c0200009c0200009c0200000e
:100278009c0200009c0200009c0200009c020000fe
:100288009c0200009c0200009c0200009c020000ee
:100298009c0200009c0200009c0200009c020000de
:1002a8009c0200009c0200009c0200009c020000ce
:1002b8009c0200009c0200009c0200009c020000be
:1002c8009c0200009c0200009c0200009c020000ae
:1002d8009c0200009c0200009c0200009c0200009e
:1002e8009c0200009c0200009c0200009c0200008e
:1002f8009c0200009c0200009c0200009c0200007e
:100308009c0200009c0200009c0200009c0200006d
:100318009c0200009c0200009c0200009c0200005d
:100328009c0200009c0200009c0200009c0200004d
:100338009c0200009c0200009c0200009c0200003d
:100348009c0200009c0200009c0200009c0200002d
:100358009c0200009c0200009c0200009c0200001d
:100368009c0200009c0200009c0200009c0200000d
:100378009c0200009c020000fe3900009c02000064
:100388009c0200009c0200009c0200009c020000ed
:100398009c0200009c0200009c0200009c020000dd
:1003a8009c0200009c0200009c0200009c020000cd
:1003b8009c0200009c0200009c0200009c020000bd
:1003c8009c0200009c0200009c0200009c020000ad
:1003d8009c0200009c0200009c0200009c0200009d
:1003e8009c0200009c0200009c0200009c0200008d
:0803f8009c0200009c020000c1
:020000040000fa
:100400000f6121000e7f22000e0188000000000015
:1004100000012000200288000c00070000dc2500fd
:100420000100200011000700000020000000e00093
:10043000020032000000020000000000905602009e
:10044000000000000040da000000fe004440a90067
:10045000c05620000000e000030032000000200031
:10046000a00188004440a800000006009101880017
:10047000800078000000eb0015003700e2804000ab
:1004800032a0b4009101ba00e280400032a0b40072
:100490009102ba00e280400032a0b4000002eb00fa
:1004a000472bde00f507b200602ce10004003a00a3
:1004b0000059eb008301e900fdff3e000400370016
:1004c0006128e100010032000082eb000400070017
:1004d0001101ba000200e000e8ff3a000000060047
:1004e0003159ba008301e9000c0032002159ba00e9
:1004f0008301e900080032000400e00003003a0034
:10050000e280400032a0b400f5ff370011d9ba00f4
:100510008301e900faff3a008100e800e180400031
:1005200032a0b4000000060000000000000000003f
:1005300000000000000000000040da000000fe00a3
:10054000e4874700889fbe008a9fbe008c9fbe0044
:100550008e1f7800e4d82000756c8000e08f520078
:100560000b003a00e4024200756c8800c56c8800fc
:1005700024029800b46c8800a44290000504a000f6
:1005800025429800e44290000504a00065429800ce
:10059000670440004244de004244dd00b26c80004b
:1005a00004e120000961210084845400250020001a
:1005b000110009008504d80080bf9f000507440092
:1005c0000e0747000003eb00e40544003c612100f6
:1005d00004065600080646000200370016002000f8
:1005e0000d01780022429000610262000200320098
:1005f0000a00370015097800920278002542900021
:1006000061026200fbff320008024100848f520049
:1006100002003900e00f54003f003d0092067800d0
:100620000d00a100828f5600edff3e00e10f530048
:10063000eaff3a000fba9700840f54000200360018
:10064000890f5400100039006143b800614ab900b5
:10065000b0ff2f00010020000402500085825800e6
:10066000840f5300858f5b00020035000b05780076
:1006700006003700110009000986d8000982b90078
:1006800004057800010037000e0578000a007800a4
:1006900089000700e10f400005003a000b057800d3
:1006a0000b00780084000700e10f40002b003200af
:1006b000c46c8000000a7800c46c800064034200af
:1006c000a4429000860f5000020032000504a000f2
:1006d000010037000504a10025429800640555007b
:1006e0000a0540000a087800ca6c8800e4d8200097
:1006f000040d7800c56c8000254290000404a00021
:10070000a4429800204290000404a10024409800d4
:100710000003eb00b2ff3700b46c8800848f5200f6
:10072000070036001403be00d66c8800e76c880012
:10073000120a78008042eb00b46c800025429800d9
:10074000b76c800007097800224290000404a000e2
:100750002441980064004100010037000000eb00d4
:100760004f0778004f06be004f05be004f04be0085
:100770004f00b10000000600e00f500008003200fa
:1007800064005000b46c8000840f50000100310000
:10079000b06c8800204290000404a100244098001e
:1007a00000000600889fbe008a9fbe000004be00b5
:1007b000e08f540005003a00e00f54003200320090
:1007c00008007800ecff070030003700e00f54000d
:1007d00004003a000900780059ff070080047800ff
:1007e0002a003700640254009405780068fa9700e4
:1007f000610262000200320008007800deff07009c
:10080000090078004eff070080047800e08f540054
:100810001e003200888f54001b00320069bd970013
:100820000905550042d5de0088855500c2ddde0091
:100830000a0178008b0f5500010036000b0178008b
:100840004211dd00880078000900780013000700dd
:10085000888f54000d0031004255dd000a854400a8
:10086000880f5500090036000804550042c4de0018
:100870004244dd0008844400d46c8000e56c8000b4
:10088000048cbe000100370088047800090078005d
:100890004f05be004f04be000000060000027800b5
:1008a00002003700315a78000201e900e00f5100e0
:1008b000fcff3a0000000600889fbe00800478001c
:1008c000f06c8000e00f500004003a000e000700ba
:1008d0000084eb00e00f500008003500f86c800049
:1008e000e08f5400050032000900440006000700b4
:1008f000e00f500001003d000084eb00080078008c
:100900004f04be0000000600e00f500004003a0053
:1009100004e12000f46c8800000278000600370033
:100920000082eb0005612100850f500002003e00af
:10093000f06c88000002eb00040078000000060064
:020000040000fa
:10094000476500006e6500007269000063200000ca
:10095000646500006d6f0000206400006576000093
:10096000696300006520000061740000746100008c
:100970006368000065640000202d00002070000006
:100980006f6c00006c650000642c000020640000a7
:100990006576000069630000654100006464000042
:1009a00072650000737300003d0000000d0a000036
:1009b00000470000656e000065720000696300007a
:1009c00020640000656d00006f2000006465000079
:1009d0007669000063650000206400006574000013
:1009e0006163000068650000642000002d200000a5
:1009f000706f00006c6c0000656400000d0a000060
:100a000000480000434900005f4300004d440000df
:100a10005f52000045530000455400003a2000009a
:100a200000480000434900005f4300004d440000bf
:100a30005f52000045410000445f00004244000056
:100a40005f41000044440000523a000020000000d2
:100a500048430000495f0000434d0000445f000030
:100a60004c4f0000434100004c5f00004e4100002d
:100a70004d4500003a2000000048000043490000b6
:100a80005f4300004d4400005f4300004c41000004
:100a9000535300005f4400004556000049430000e6
:100aa000453a00002000000048430000495f000074
:100ab000434d0000445f000053430000414e0000de
:100ac0005f4500004e410000424c0000453a0000e6
:100ad0002000000048430000495f0000434d000033
:100ae000445f0000434f00004e4e000045430000ad
:100af000544900004f4e00005f4300004f4d00007e
:100b0000503a0000200000004c3200004341000039
:100b1000505f0000434f00004e5f00005245000050
:100b2000535000005f460000524f00004d2000006f
:100b30000d0a0000004c000032430000415000004c
:100b40005f4300004f4e000046490000475f000031
:100b50005245000051310000200d00000a00000045
:100b60004c32000043410000505f0000434f000042
:100b70004e460000494700005f520000455100000a
:100b80005f460000524f00004d2000000d0a00009b
:100b9000004c000032430000415000005f43000061
:100ba0004f4e000046490000475f000052450000dc
:100bb000535000005f4800004f530000545f000096
:100bc000465200004f4d0000200d00000a000000ba
:100bd00048430000495f0000434d0000445f0000af
:100be00057410000495400005f4300004f4e000091
:100bf0004e45000043540000494f00004e3a0000ab
:100c00002000000048430000495f0000434d000001
:100c1000445f0000434f00004e4e0000454300007b
:100c2000544900004f4e00005f4100004343000064
:100c300045500000543a0000200000004c320000f3
:100c400043410000505f0000434f00004e5f000032
:100c500052450000512000000d0a0000004c000029
:100c600032430000415000005f4300004f4e00003f
:100c700046490000475f0000524500005120000037
:100c80000d0a0000004c00003243000041500000fb
:100c90005f4300004f4e000046490000475f0000e0
:100ca00052450000515f0000484f000053540000bf
:100cb000200d00000a00000053440000505f0000b7
:100cc0005345000041520000434800005f520000bd
:100cd00045510000200d00000a00000053440000b0
:100ce000505f000041540000545200005f52000069
:100cf00045510000200d00000a0000003261000094
:100d00005f530000445000005f4100005454000055
:100d1000525f00005245000053500000200d0000bb
:100d20000a000000326200005f53000044500000df
:100d30005f41000054540000525f00005245000023
:100d400053500000200d00000a0000003263000034
:100d50005f530000445000005f4100005454000005
:100d6000525f00005245000053500000200d00006b
:100d70000a000000335f000053440000505f000091
:100d800041540000545200005f52000045530000df
:100d9000502000000d0a00000053000044500000e5
:100da0005f41000054540000525f000052450000b3
:100db00053500000346100005f52000045530000b2
:100dc000502000000d0a00000053000044500000b5
:100dd0005f41000054540000525f00005245000083
:100de00053500000346200005f5200004553000081
:100df000502000000d0a0000005300004450000085
:100e00005f41000054540000525f00005245000052
:100e100053500000346400005f520000455300004e
:100e2000502000000d0a0000005300004450000054
:100e30005f41000054540000525f00005245000022
:100e400053500000355f0000524500005350000031
:100e5000200d00000a000000484900004420000066
:100e60005354000041520000542000000d0a0000bd
:100e700000480000494400002052000045410000a5
:100e8000445f00004c450000442000000d0a0000b3
:100e900000480000434900005f4300004d4400004b
:100ea0005f530000434100004e5f000044490000d2
:100eb00053410000424c0000453a00002000000071
:100ec000577200006974000065200000436c000048
:100ed000617300007320000045720000726f000013
:100ee00072200000210d00000a000000446500008f
:100ef0007669000063650000205200006561000013
:100f00006420000045720000726f00007220000033
:100f1000210d00000a0000005772000069740000f3
:100f200065200000416300006c2000004572000055
:100f3000726f000072200000210d00000a00000006
:100f4000526500006164000020410000636c0000f5
:100f500020450000727200006f7200002021000026
:100f60000d0a000000470000656e00006572000079
:100f70006963000020640000656d00006f200000c0
:100f80006465000076690000636500002061000070
:100f90007474000061630000686500006420000054
:100fa0002d20000065760000656e0000742c0000a6
:100fb0002064000065760000696300006541000060
:100fc0006464000072650000737300003d0000005f
:100fd000476500006e650000726900006320000034
:100fe000646500006d6f00002064000065760000fd
:100ff0006963000065200000646500007461000002
:101000006368000065640000202d0000206500007a
:10101000766500006e7400000d0a0000000d0000ef
:101020000a2a00002a2a00002a2a0000205500006f
:101030005342000020450000727200006f720000f1
:10104000202d000020680000756200007320000061
:1010500061720000652000006e6f000074200000c7
:1010600073750000707000006f72000074650000fe
:10107000642000002a2a00002a2a00002a0d00000d
:101080000a0000000d0a00002a2a00002a2a000097
:101090002a20000055530000422000004572000045
:1010a000726f0000722000002d20000064650000b7
:1010b000766900006365000020690000732000006d
:1010c0006e6f0000742000007375000070700000e7
:1010d0006f72000074650000642000002a2a00007e
:1010e0002a2a00002a0d00000a0000000d0a000054
:1010f0002a2a00002a2a00002a2000005553000056
:101100004220000045720000726f00007220000053
:101110002d200000636100006e6e00006f740000ff
:10112000206500006e7500006d65000072610000b2
:1011300074650000206400006576000069630000ab
:10114000652000002a2a00002a2a00002a0d00003b
:101150000a0000000d0a00002a2a00002a2a0000c6
:101160002a20000055530000422000004572000074
:10117000726f0000722000002d200000636c0000e0
:10118000696500006e740000206400007269000050
:101190007665000072200000696e0000697400002e
:1011a000696100006c6900007a61000074690000e8
:1011b0006f6e000020650000727200006f72000008
:1011c000202a00002a2a00002a2a00000d0a000016
:1011d000000d00000a2a00002a2a00002a2a000026
:1011e00020550000534200002045000072720000ac
:1011f0006f720000202d0000206f00007574000049
:10120000206f00006620000068650000617000002b
:10121000206d0000656d00006f72000079200000f5
:101220002a2a00002a2a00002a0d00000a000000d5
:101230000d0a00002a2a00002a2a00002a200000a5
:10124000555300004220000045720000726f0000fc
:10125000722000002d200000756e000073700000e9
:101260006563000069660000696500006420000095
:101270002a2a00002a2a00002a0d00000a00000085
:101280000d0a00000d0a0000436f0000756c00009d
:10129000642000006e6f000074200000696e000082
:1012a00069740000696100006c6900007a650000e3
:1012b00020550000534200002043000075730000d9
:1012c000746f00006d200000446500006d6f000029
:1012d0002041000070700000202d000020730000ed
:1012e00079730000746500006d2e0000202000005e
:1012f000486100006c740000696e0000672e0000f9
:101300000d0a00000d0a0000000d00000a0d00008b
:101310000a2a00002a2a00002a2a0000205500007c
:10132000534200002043000075730000746f0000fa
:101330006d200000446500006d6f0000204100003a
:1013400070700000204900006e69000074690000a0
:10135000616c0000697a000065640000202a0000ca
:101360002a2a00002a2a00000d0a00000d0a0000a7
:10137000000d00000a0d00000a4300006f75000018
:101380006c640000206e00006f7400002069000093
:101390006e69000074690000616c0000697a0000e9
:1013a00065200000555300004220000043750000f6
:1013b000737400006f6d000020440000656d000034
:1013c0006f20000041700000702000002d20000000
:1013d00055530000422e000020200000486100000c
:1013e0006c740000696e0000672e00000d0a00009a
:1013f0000d0a000000000000303100003233000010
:101400003435000036370000383900004142000012
:081410004344000045460000c2
:020000040000fa
:101418000400fa00204798003147980035d2200090
:10142800954278002e42900084cf5200020032008c
:1014380064c0b300120037003e409000270b07003d
:1014480000027800040f78001e027800e00f5200b6
:101458000a0032009e027800150290000450a10094
:10146800940298009e027800150290000460a10082
:10147800940298000042eb000100370044c1b30019
:10148800044078000080fa00000006000200fa001c
:10149800004f7800746980004622de0061426200d5
:1014a8000482fb00040078000080fa0000000600b7
:1014b8000200fa00004f7800b568800004f02000b0
:1014c80004826200e00f520002003a0014c3b30025
:1014d80019003700b568800004f02000848262009b
:1014e80004402000848f520009003a00b56880004b
:1014f800040f200004826200f00f520002003a003c
:10150800a4c3b3000c00370004c3b3000a003700bb
:10151800b568800004f02000848262000450200036
:10152800848f520003003a0044d22000144278000d
:101538000100370024c3b300044078000080fa009b
:10154800000006000400fa00008fbe0064698000f5
:10155800e00f52000d003a0020022000f6fb0700c1
:10156800000278006469880064698000e00f520016
:1015780002003a000002eb0019003700646980009d
:101588008002eb00050a7800010037008b12070083
:1015980064698000946888000002eb00b4688800e1
:1015a8000082eb00c46888000042eb000440780029
:1015b80022edb7000042eb000440780023edb700ad
:1015c800660da800440020008469880044002000bb
:1015d800946988000002eb00a469880014002000c8
:1015e800040078000080fa00000006000800fa00f5
:1015f800881f780010079800414798003207980024
:10160800ce4090001e009000850007000042eb00cd
:10161800044f7800450037009e4278000582fb00a1
:101628001e0390000402e8006622b9000402780054
:1016380066027a00e00f52003b003a001e42780032
:101648000484fb003e009000bbfb0700000278000a
:10165800040378009e0390000802e8006622b9009f
:101668000402780004824300060a78009e4278004b
:101678000582fb001e0390000402e8006622b90000
:101688000402780066027a00e00f520026003a0051
:101698000042eb00144798001e0037001e429000dd
:1016a8000482fb001e0390000402e8006622b900d1
:1016b8000402780066027a00040078002cfc070017
:1016c8001e4290000482fb001e0390000402e80002
:1016d8006622b90004027800040243008002eb008d
:1016e800050a78001e4290000482fb001e03900049
:1016f8000402e8006622b9000402780004024300ec
:101708008002eb00050a78001e4290000442e800bf
:10171800144798001e4290009e4f5200dfff390088
:101728000002eb00060037001e4fe8004e42900012
:101738009e42780084cf5200b7ff39001400200081
:10174800040078004f0478000080fa0000000600ca
:101758000600fa001007980041479800ce40900014
:101768001e0090002e0007000042eb00044f780096
:10177800250037009e4278000582fb001e0390007a
:101788000402e8006622b9000402780066027a00c2
:10179800e00f52001b0032009e4278000582fb00d9
:1017a8001e0390000402e8006622b90004027800d3
:1017b80066027a0004007800edfb07009e4278007c
:1017c8000582fb001e0390000402e8006622b900af
:1017d80004027800040243008002eb00050a780046
:1017e8009e4278000582fb001e0390000402e80078
:1017f8006622b90004027800040243008002eb006c
:10180800050a78001e4fe8004e4290009e4278007c
:1018180084cf5200d7ff39000080fa00000006008c
:101828000600fa0010079800414798000042eb00b4
:10183800044f7800140037009e4278000582fb00b0
:101848001e0390006622b9000402780004024300d7
:10185800680242008002eb00050a78009e42780088
:101868000582fb001e0390006622b900040278007e
:1018780004024300ea024200150278000400a100b5
:10188800840a78001e4fe8004e4290009e4278007d
:1018980084cf5200e8ff39001e029000ce4290002b
:1018a800054a78009e0290000042eb00a44298008e
:1018b8009e0290000042eb00944298001e029000a5
:1018c8008002eb00250298000080fa000000060064
:1018d8001400fa006047980071479800024f98007a
:1018e800530798006407980075079800060f98003a
:1018f8002757980035d22000954278006e42900014
:1019080084cf52000200320064c0b300a600370042
:10191800b568800004f02000848262000440200042
:10192800848f52000200320014c0b3009e003700ba
:101938006469800094029000042020000482620000
:10194800e00f520002003a0004c1b30096003700cd
:101958000e4a9000eb4f520042003a005469800052
:1019680014079800030037001e02900094027800c4
:10197800150798001e029000e00f52000600320082
:101988001e029000644290008482fb006e02900068
:10199800848f5200f4ff3a001e029000e00f5200bc
:1019a800040032001e02900024029000e00f520052
:1019b80002003a0034c0b3007b0037001e029000da
:1019c80024029000a4029000050f78000a00370056
:1019d8001e02780094029000042020000482620015
:1019e800e00f520002003a0034c0b3006e00370026
:1019f8001e027800140f78001e027800e00f5200d3
:101a0800f3ff3a001e029000940290002507980008
:101a1800030037002e0290009402780025079800f2
:101a28002e029000e00f5200060032002e029000b5
:101a3800244290008482fb005e029000848f520052
:101a4800f4ff3a002e029000e00f520002003a0024
:101a580034c0b300540037001e029000ae0290005c
:101a6800250298000e4a9000e14f52000e003a00fd
:101a78005e029000e00f52000b003a007e42900098
:101a88000482fb0060024200e20f520005003e00a3
:101a98006e0290000442780004407800f8140700b1
:101aa8000100370000000000a4688000fe4290009a
:101ab800054a7800a46880000402e8008e4a900075
:101ac800054a7800a46880008482e8005e029000dd
:101ad80004427800844a7800a4688000e302420047
:101ae8005e0290004822de0004427800844a7800b2
:101af800a4688000e40242006e029000044278006c
:101b0800844a7800a4688000e50242006e029000d2
:101b18004822de0004427800844a7800a4688000e5
:101b2800e60242007e02900004427800844a78006f
:101b3800a4688000e70242007e0290004822de008e
:101b480004427800844a7800646980008efa97001d
:101b5800155a98002e529000e04f520009003a00a2
:101b6800a6688000656980007e0290008e0990005a
:101b780082002000860078000500780075110700b3
:101b880008003700a6688000656980007e02900022
:101b98008e099000820020008600780005007800f9
:101ba8002f1107000042eb00044078000080fa0083
:101bb800000006000a00fa00204798003147980004
:101bc80022079800340798004507980035d220006e
:101bd800954278002e42900084cf520002003200d5
:101be80064c0b3003d003700b568800004f02000f1
:101bf8008482620004402000848f52000200320078
:101c080014c0b300350037003e4090003309070088
:101c180000027800040f78001e027800e00f5200de
:101c28002d0032001e027800d40a900004302000f3
:101c380004826200e00f520002003a0084c1b3003f
:101c4800260037001e027800245a9000e04f520008
:101c58000200350054c1b300200037001e0278008e
:101c6800940290000402200004826200e00f5200f7
:101c78000200320014c1b300180037001e027800b9
:101c8800940290000404200004826200e00f5200d5
:101c98000200320024c1b300100037001e02780091
:101ca800940290000420200004826200e00f520099
:101cb80002003a0004c1b300080037003e02900059
:101cc80004017800ae0090001e007800651107003e
:101cd8000042eb000100370044c1b3000440780023
:101ce8000080fa00000006000200fa00004f7800a9
:101cf80034d22000144278009e4f52000200320075
:101d080064c0b3000a003700b568800004f0200002
:101d180004826200e00f520002003a0034c0b300af
:101d2800030037000002eb00b46888000042eb00b3
:101d3800044078000080fa00000006000200fa0063
:101d4800004f780034d22000144278009e4f520091
:101d58000200320064c0b3000a003700b568800092
:101d680004412000848f52000200320034c0b300c6
:101d780004003700b46880000402e800b4688800f2
:101d88000042eb00044078000080fa0000000600e2
:101d98000200fa00004f78001147980034d2200062
:101da800144278009e4f52000200320064c0b30013
:101db80016003700b568800004f0200084826200b5
:101dc80004402000848f52000200320014c0b30087
:101dd8000e0037005615070000027800e00f520089
:101de8000200320024c0b300080037001e409000f3
:101df80020edb7006569800000c2eb00945a980096
:101e080004332000b46888000042eb0004407800e6
:101e18000080fa00000006000800fa002047980039
:101e280031479800220798003307980035d22000e0
:101e3800954278002e42900084cf52000200320072
:101e480064c0b3001b0037003e409000a3080700a1
:101e580000027800040f78001e027800e00f52009c
:101e6800130032002e0290000442780061426200a2
:101e780061426200614262009e0278000482fb00b7
:101e8800610262004d22dd0095039000f6ff2d00ef
:101e98000683630004027300940298001e0278000f
:101ea800be029000051298000042eb0001003700c6
:101eb80044c1b300044078000080fa000000060026
:101ec8000200fa000002eb004424880034d220000b
:101ed80014427800e04f5200110032000042eb003b
:101ee800044f780036d220001643780024002000e2
:101ef800050020000e017800a106200006407800a9
:101f0800fe22070034d2200014427800130020007b
:101f180032d2200011072000044078006111070028
:101f28006000b80087fd07000080fa000000060086
:101f38000200fa00004f780034d2200014427800e2
:101f48009e4f52000200320064c0b3000a003700fe
:101f5800b568800004402000848f520002003200df
:101f680034c0b300040037009404a90004412000e1
:101f7800b46888000042eb00044078000080fa0052
:101f8800000006000c00fa00881f780039003700ae
:101f980094698000e20f520007003c0094698000b9
:101fa8000402e8006c22b9008402780064d320009f
:101fb800048242000100370064d3200024079800ff
:101fc8002e0290001402780025072000850f520089
:101fd80003003200f5ff2700850f52000c003a007d
:101fe8002e0290000483e8002e02900094027800ec
:101ff80034d2200014427800a300200006017800a3
:102008008500780004407800261107000100370099
:102018000000000060248000300798000002eb00f8
:1020280064248800a46980000402e900a469880087
:1020380094698000e20f520004003c00946980001b
:102048000402e80094698800020037000002eb00ef
:1020580094698800946980006c22b9008402780031
:1020680064d3200004824200240798003e029000b6
:1020780064248800a4698000e00f5200c4ff3a007d
:10208800c4688000e10f420004003200c468800088
:10209800b46888000082eb00c4688800b5688000d6
:1020a80004f020000482620005202000850f520001
:1020b8006602320005202000850f520006003e000f
:1020c800e00f52000e00320005102000850f52006c
:1020d800b90032001c06370005402000850f520069
:1020e8006605320005502000850f52009705320022
:1020f80005302000850f5200ba0232001206370060
:10210800b5688000040f200004826200f00f5200be
:1021180071003200f00f520003003e00e00f520041
:10212800080032000806370005022000850f52001b
:102138007400320005032000850f52009c00320015
:10214800010637005eff0700646980008002eb002b
:10215800050a7800646980008002eb001502980087
:10216800656980001502900004a0a0009402980000
:1021780065698000150290000490a0009402980000
:10218800656980001502900004d0a00094029800b0
:1021980064698000850c200005129800646980003d
:1021a8000504200045029800666980006022b80096
:1021b800040b9800150b9800656980000042eb003d
:1021c800a45a9800656980000042eb00845a980080
:1021d80065698000550a90000480a1000490a10060
:1021e800d40a98006569800000c2eb00945a9800f0
:1021f80034c0b300044078000eedb7000042eb0095
:102208000440780020edb7000042eb00044078005d
:1022180021edb7000042eb000440780022edb70042
:102228000002eb00746988000002eb005469880022
:102238000002eb00d46888000002eb0064248800e8
:10224800f40f20005424880015248000c4082000be
:102258000482620014248800d40720000424880023
:102268000002eb0084248800f40f20007424880006
:1022780004e020004822de00c424880084002000f6
:10228800a4248800a4002000a4248800840020003e
:10229800a42488000403200034248800240020009b
:1022a800342588000002eb00442588000002eb007a
:1022b800b4248800aae4a900a40420000425880006
:1022c800b568800004ff20000482620070024200aa
:1022d800b46888003700370064d6200014427800bc
:1022e80061426200e04f520005003200b56880008c
:1022f80004ff20000482620070024200b468880073
:102308002c0037000042eb00244f980024c3b30090
:10231800344f98006a03470024002000050020007d
:10232800060178009106200000c0eb00f3210700a9
:1023380000027800e00f520019003200140020005b
:102348004424880075048000f4fb2f000482620096
:102358007404880075068000f40f2f000482620060
:1023680074068800750680000460200004827200ec
:1023780074068800f50480000404200004827200ba
:10238800f4048800b568800004ff2000048262001d
:1023980070024200b46888008cc4a80003003700ab
:1023a800660da90004012000b46888000100370008
:1023b8000000000064053700b5688000040f2000a5
:1023c8000482620005022000850f5200ad00320031
:1023d80005022000850f520005003e00e00f520064
:1023e8000a003200f00f520025003200560537006f
:1023f80005032000850f5200330132000504200038
:10240800850f5200890132004f053700b4688000fb
:102418006f026200e10f520011003200e10f52001a
:1024280003003900e20f52000e003200130037009b
:1024380014002000542488008c04a800b40f200045
:1024480084688800040420000424880082c4a8004a
:10245800b46880000402e800b46888000700370008
:1024680006003700b568800004ff2000048262007f
:1024780070024200b4688800000000007201370052
:10248800b46880006f02620005002000460020004a
:1024980007002000860f5200878f5a0077003e0001
:1024a80004600100040037005d0037005d0037005c
:1024b8006700370067003700a4688000e00f52000b
:1024c80005003200a468800004007800a8f807001e
:1024d8000002eb00a46888008000200016f80700be
:1024e80000027800a4688800a4688000e00f520009
:1024f80006003a0034c3b3000440780024edb70066
:1025080004502000b46888005d0037000042eb00ea
:102518000440780020edb7000042eb00044078004a
:1025280021edb7000002eb007469880034c0b300e5
:10253800044078000dedb700d40020005425880031
:102548000002eb00642588000002eb007425880077
:102558000002eb00842588000002eb009425880027
:102568000002eb00a42588000002eb00b4258800d7
:102578000002eb00c42588000002eb00d425880087
:102588000002eb00e42588000002eb00f425880037
:102598000002eb00042688000002eb0014268800e5
:1025a8000002eb00242688000002eb003426880095
:1025b8000002eb0044268800a524800004082000bf
:1025c80004826200e00f520007003a002e0da800b6
:1025d80004c8b3000440780022edb70004082000c6
:1025e800b4248800aae4a8009424a8009424a9008c
:1025f8002e8da9002eada9009484a80034032000d4
:1026080084688800040420000424880082c4a80088
:10261800b46880000402e800b46888001800370035
:10262800170037009484a9009404a800b40020007f
:1026380084688800040420000424880082c4a80058
:10264800b46880000402e800b46888000c00370011
:102658000b003700f400200064248800f40f2000e9
:1026680084248800b568800004ff2000048262008a
:1026780070024200b46888000100370000000000c2
:10268800f1003700b46880006f026200e10f520069
:1026980039003200e10f520003003900e20f520006
:1026a8005200320087003700646c8000e00f52004f
:1026b80005003200646c8000040078002cf80700e4
:1026c8000002eb00646c8800a568800004c8b300b1
:1026d800844a7800a46880008402e80064c0b300db
:1026e800844a7800a46880008482e8000042eb00f5
:1026f800844a7800a4688000e302420014c0b30052
:10270800844a7800a4688000e40242000042eb009a
:10271800844a7800a4688000e50242000042eb0089
:10272800844a7800a4688000e602420084c0b300ae
:10273800844a7800a4688000e70242000042eb0067
:10274800844a7800a7688000a668800065698000d0
:10275800840020008701780082002000860078002d
:10276800050078003e0e0700b46880000402e80007
:10277800b4688800530037006469800094029000b0
:102788000420200004826200e00f5200160032008c
:1027980064698000940290000410200004826200a2
:1027a800e00f52000f003200a4688000640242006b
:1027b80014427800e94f520006003a0054c3b300af
:1027c8000440780024edb70004502000b468880065
:1027d80005003700b46880000402e800b468880087
:1027e800010037002f05070036003700a468800075
:1027f800144278000482fb00040078004ef70700ba
:1028080000027800646c8800646c8000e00f52005d
:1028180006003a0034c3b3000440780024edb70042
:1028280004502000b468880026003700656c8000da
:10283800a468800014427800844a780065698000a2
:10284800a4688000744290000482fb00c4029800cf
:10285800a468800004007800c5f707000002eb00b8
:10286800a46888006469800044029000040078002d
:1028780031f7070000027800a4688800a468800087
:10288800e00f520006003a0034c3b3000440780059
:1028980024edb70004502000b46888000900370010
:1028a80034c0b300044078000dedb700b56880006f
:1028b80004ff20000482620070024200b4688800ad
:1028c8000000000060003700b46880006f026200fa
:1028d800e10f520039003200e10f520003003900c5
:1028e800e20f5200470032004f003700d4688000e2
:1028f80070026200e00f5200010032004a00370007
:10290800a568800004c8b300844a7800a4688000e1
:102918008402e80064c0b300844a7800a468800098
:102928008482e8000042eb00844a7800a4688000b2
:10293800e302420014c0b300844a7800a46880000f
:10294800e40242000042eb00844a7800a468800058
:10295800e50242000042eb00844a7800a468800047
:10296800e6024200646c800014427800844a7800d1
:10297800a4688000e70242000042eb00844a780025
:10298800646c8000144278000482fb00676c80004d
:10299800a6688000656980008701780082002000b1
:1029a8008600780005007800ad0d0700b468800047
:1029b8000402e800b46888001b00370064698000de
:1029c800940290000420200004826200e00f52006c
:1029d8000b0032006469800094029000041020000b
:1029e80004826200e00f520004003200b4688000e4
:1029f8000402e800b468880001003700a904070051
:102a08000900370034c0b300044078000dedb7006a
:102a1800b568800004ff2000048262007002420052
:102a2800b46888000000000007003700260507008a
:102a3800b568800004f02000048262000410b00031
:102a4800b468880000000000bf033700b568800044
:102a5800040f200004826200e00f5200b7033a001e
:102a6800b46880006f026200e10f52003400320047
:102a7800e10f520003003900e20f52004200320019
:102a88005600370014c0b3000440780023edb700a7
:102a9800a56880000042eb00844a7800a4688000a2
:102aa8008402e80054c0b300844a7800a468800017
:102ab8008482e80034d2200014427800844a7800e6
:102ac800a4688000e30242000042eb00844a7800d8
:102ad800a4688000e40242000042eb00844a7800c7
:102ae800a4688000e50242000042eb00844a7800b6
:102af800a4688000e60242000042eb00844a7800a5
:102b0800a4688000e70242000042eb00844a780093
:102b1800a6688000656980000002eb008001eb0078
:102b2800820020008600780005007800890d0700e3
:102b3800b46880000402e800b46888002700370001
:102b480064698000940290000420200004826200de
:102b5800e00f520020003200646980009402900067
:102b68000410200004826200e00f520004003200ca
:102b7800b46880000402e800b468880017003700d1
:102b88004804070015003700746980000442780083
:102b9800614262000482fb004722dd008442780023
:102ba80034d220001442780004c272000440780035
:102bb80022edb70034c0b300044078000dedb70033
:102bc800b568800004f02000048262000410b000a0
:102bd800b468880001003700000000000000000011
:102be80059033700b5688000040f20000482620092
:102bf80005022000850f5200cd003200050220009a
:102c0800850f520005003e00e00f52000a00320016
:102c1800f00f5200270032004b0337000503200055
:102c2800850f52003001320005042000850f520044
:102c3800e901320044033700646c800014529000ac
:102c4800044078000cedb70011003700446980009b
:102c58001402900044079800446980001402780028
:102c680004007800c2f60700446980008002eb0087
:102c7800050a78004469800004007800bcf6070063
:102c88000002eb00446988004e0290004469880005
:102c980044698000e00f5200ecff3a00b5688000fc
:102ca80004ff20000482620070024200b4688800b9
:102cb80071023700b46880006f026200e10f5200b1
:102cc80033003200e10f520003003900e20f5200d6
:102cd8004100320095003700a568800004c8b300a1
:102ce800844a7800a46880008402e80064c0b300c5
:102cf800844a7800a46880008482e800c4d0200058
:102d0800144278000442e900844a7800a4688000ec
:102d1800e302420024c0b300844a7800a46880001b
:102d2800e40242000042eb00844a7800a468800074
:102d3800e50242000042eb00844a7800a468800063
:102d4800e602420084c0b300844a7800a468800088
:102d5800e70242000042eb00844a7800a76880003e
:102d6800a6688000656980008400200087017800db
:102d7800820020008600780005007800b80c070063
:102d8800b46880000402e800b4688800670037006f
:102d9800646980009402900004202000048262008c
:102da800e00f52000b00320064698000940290002a
:102db8000410200004826200e00f52000400320078
:102dc800b46880000402e800b46888000100370095
:102dd800b40307005500370060002000d6f507004f
:102de80000027800440798004e029000e00f52005d
:102df80006003a0034c3b3000440780024edb7005d
:102e080004502000b4688800480037004e04900041
:102e1800a468800063024200144278000482fb0028
:102e2800c822dd00a46880000482e800144278000b
:102e38000482fb000482420004007800bef507000b
:102e480000027800040c780018027800e00f5200a5
:102e58000a003a004e00900045f607000002eb0019
:102e68004407980034c3b3000440780024edb70049
:102e780004502000b46888002c0037004e029000ef
:102e880014027800a5688000e38242009542780029
:102e98008582fb00482bdd00a56880008582e8005c
:102ea800954278008582fb0005034300f50f20005a
:102eb80085036300a4429000e0c2620087c27200ea
:102ec800254298004833de00b4429000e0c2620018
:102ed80086c27200354298004e0290004569800013
:102ee800150298004e029000446988004e02900036
:102ef80014027800546c8800ce029000c4d02000e0
:102f080014427800c442980034c0b30004407800ea
:102f18000dedb700b568800004ff20000482620050
:102f280070024200b468880000000000d201370037
:102f3800b46880006f026200e10f52004200320064
:102f4800e10f520003003900e20f52005000320036
:102f580064003700a568800004c8b300844a78007c
:102f6800a46880008402e80064c0b300844a780042
:102f7800a46880008482e800c4d02000144278004d
:102f88000442e900844a7800a4688000e302420011
:102f980024c0b300844a7800a4688000e402420098
:102fa8000042eb00844a7800a4688000e5024200f1
:102fb8000042eb00844a7800a4688000e6024200e0
:102fc80044698000140278000482e8001442780002
:102fd800844a7800a4688000e702420044698000bf
:102fe800140278006302420014427800844a780090
:102ff8004469800014027800840278002542900019
:103008000483fb00354290000482fb004822dd0067
:10301800060272004569800095037800a668800062
:1030280065698000870178008200200086007800aa
:10303800050078000a0c0700b46880000402e80064
:10304800b468880027003700646980009402900003
:103058000420200004826200e00f52000b003200be
:1030680064698000940290000410200004826200c9
:10307800e00f520004003200b46880000402e80047
:10308800b468880001003700060307001500370000
:1030980034c0b300044078000dedb700c4d0200060
:1030a800144278000442e900044078000cedb700af
:1030b800c4d0200014427800e04f520003003200d0
:1030c80004312000b468880005003700b568800026
:1030d80004ff20000482620070024200b468880085
:1030e8000000000064013700b46880006f026200cd
:1030f800050020003600200007002000860f52003f
:10310800878f5a00b2003e000460010003003700b8
:103118004900370087003700980037006a0b07001e
:1031280004d2200014427800e04f520012003a0006
:1031380044698000546b88000b003700546b800092
:1031480014027800546c88002f0d070000027800e4
:10315800e00f520022003a005b0b0700546b80001e
:1031680014029000546b8800546b8000e00f5200ea
:10317800f2ff3a001b00370044698000546b880056
:1031880003003700546b800014029000546b8800d1
:10319800546b8000e00f520006003200546b800030
:1031a800c442900004d220001442780084cf520018
:1031b800f4ff3a00546b800014027800546c8800c5
:1031c800110d070000027800e00f520005003a00d8
:1031d8003d0b07000002eb00546b8800010037002c
:1031e800000000007469800064026200e00f520071
:1031f8000d003200546b8000e00f520006003a00c8
:1032080044c3b3000440780024edb7000450200004
:10321800b468880007003700b46880000402e8003a
:10322800b468880003003700b46880000402e8002e
:10323800b46888006700370074698000640262001f
:10324800e00f520035003a002e4da800a568800016
:103258000042eb00844a7800a46880008402e800f9
:1032680034c0b300844a7800746980006802620040
:10327800e00f520005003200a46880008482e80054
:1032880034c0b300844a780004003700a468800082
:103298008482e80044c0b300844a7800a4688000af
:1032a800e30242000042eb00844a7800a4688000f0
:1032b800e40242000042eb00844a7800a4688000df
:1032c800e50242000042eb00844a7800a4688000ce
:1032d800e60242000042eb00844a7800a4688000bd
:1032e800e70242000042eb00844a7800a6688000aa
:1032f800656980000002eb008001eb00820020007d
:103308008600780005007800920b0700b4688000fa
:103318000402e800b468880005003700b56880003a
:1033280004ff20000482620070024200b468880032
:10333800280037006469800094029000042020006f
:1033480004826200e00f52000b00320064698000c2
:10335800940290000410200004826200e00f5200e2
:1033680004003200b46880000402e800b4688800f1
:10337800010037004b0207001600370034c0b300c5
:10338800044078000dedb700546b8000e00f520048
:1033980006003a0044c3b3000440780024edb700a7
:1033a80004502000b46888000800370034c0b30017
:1033b800044078000dedb700b568800004ff2000d8
:1033c8000482620070024200b4688800010037007d
:1033d80000000000a8003700b46880006f02620097
:1033e800050020003600200007002000860f52004c
:1033f800878f5a009e003e000460010003003700da
:103408002e0037003f00370045003700a5688000d0
:103418000042eb00844a7800a46880008402e80037
:1034280094c0b300844a7800a46880008482e800cd
:1034380004d2200014427800844a7800a4688000ee
:10344800e30242000042eb00844a7800a46880004e
:10345800e40242000042eb00844a7800a46880003d
:10346800e50242000042eb00844a7800a46880002c
:10347800e60242000042eb00844a7800a46880001b
:10348800e70242000042eb00844a7800a668800008
:10349800656980000002eb008001eb0082002000db
:1034a80086007800050078002a0b0700b4688000c1
:1034b8000402e800b46888006e0037006469800080
:1034c800940290000420200004826200e00f520061
:1034d8000b00320064698000940290000410200000
:1034e80004826200e00f520004003200b4688000d9
:1034f8000402e800b468880001003700e901070009
:103508005c00370034c0b300044078000dedb7000c
:10351800b46880000402e800b468880055003700e9
:10352800b568800004f02000048262000410b00036
:10353800b468880075698000040420000482620071
:10354800e00f52002100320054d2200014427800cb
:10355800244798002e4290000482fb006a22b9009a
:1035680084027800c4d620000482420094037800c4
:103578002e4290000482fb006a22b90004027800ff
:10358800e6024200c4d62000048242001402be00b3
:1035980036d2200016437800ae4090000401be00e9
:1035a800064078000700010000027800e00f520092
:1035b8002e003a0094c3b3000440780024edb7000d
:1035c80004502000b468880028003700546980003f
:1035d800040f7800220037001e027800f4429000a1
:1035e800254798002e4290000482fb006a22b90009
:1035f80084027800c4d62000048242009403780034
:103608002e4290000482fb006a22b900040278006e
:10361800e6024200c4d62000048242001402be0022
:1036280036d2200016437800ae4090000401be0058
:10363800064078000700010000027800e00f520001
:1036480005003a0094c3b3000440780024edb700a5
:1036580004502000b46888001e027800140f780017
:103668001e027800e00f5200dbff3a00010037002d
:103678000000000000000000b3003700b5688000bb
:10368800040f200004826200e00f520003003200a1
:10369800f00f520002003200ab0037002a0037005a
:1036a800b46880006f026200050020005600200008
:1036b80007002000860f5200878f5a00a1003e00a5
:1036c8000460010005003700050037000e003700d0
:1036d8000e00370018003700180037001a003700ae
:1036e8009444a80054012000846888000404200041
:1036f8000424880082c4a800b46880000402e8009a
:10370800b4688800100037000f0037009444a900ff
:103718009404a800b40020008468880004042000f1
:103728000424880082c4a800b46880000402e80069
:10373800b468880004003700030037000440200004
:10374800b4688800000000007f003700b56880007a
:10375800040f200004826200e00f520074003a0057
:1037680084002000a42488000002eb006424880060
:10377800f40f20005424880015248000c408200079
:103788000482620014248800d407200004248800de
:103798000002eb0084248800f40f200074248800c1
:1037a8008c04a80044d22000144278000482fb0054
:1037b8006123b90094ff2f00f5ff2f000602420095
:1037c80087824a002603200007002000860f520047
:1037d800878f5a0043003e0004600100380037001c
:1037e800400037003f0037003e0037003d003700fb
:1037f8003c0037003b0037003a00370039003700fb
:1038080038003700370037003600370035003700fa
:1038180034003700330037003200370031003700fa
:10382800300037002f0037002e0037002d003700fa
:103838002c0037002b0037002a00370029003700fa
:1038480028003700270037002600370025003700fa
:1038580024003700230037002200370021003700fa
:10386800200037001f0037001e0037001d003700fa
:103878001c0037001b0037001a00370019003700fa
:1038880018003700170037001600370012003700fd
:103898000800370004003700120037001100370015
:1038a800100037000900370054c6b30024479800b9
:1038b8000f003700c4c6b300244798000c00370037
:1038c800d4c6b3002447980009003700e4c6b30003
:1038d8002447980006003700f4c6b3002447980030
:1038e8000300370004c7b300244798000000000015
:1038f8002e4290008483fb0036d2200016437800c5
:10390800140020000500200062d220008700780003
:1039180006407800791c0700b568800004ff200085
:103928000482620070024200b46888000100370017
:103938000000000000000000030037000000000045
:1039480001003700000000004f0478000080fa00f2
:10395800000006000400fa0020479800314798004c
:1039680035d22000954278002e42900084cf520034
:1039780010003a003e409000d8010700000278008d
:10398800040f78001e027800e00f52000a0032008f
:103998009e027800150290000470a000940298001e
:1039a8009e027800150290000490a00094029800ee
:1039b80001003700000000000080fa000000060047
:1039c8000a00fa00404798005147980032079800cb
:1039d8004307980035d22000954278004e42900067
:1039e80084cf520008003200be02900064c0b300c9
:1039f800844a78004e0390006022b800048bbe0011
:103a0800140020003a0037005e409000b301070020
:103a180000027800040f78001e027800e00f5200c0
:103a28002f0032001e027800140290004922de00a6
:103a380061426200244798001e02780094029000b8
:103a48000410200004826200e00f520009003200d6
:103a5800be0290000042eb00844a78001e02780003
:103a6800940a9000040a90004e039000048bbe0054
:103a7800180037001e02780094029000040220000b
:103a880004826200e00f520004003200be0290007f
:103a980014c1b300844a78000e0037001e02780073
:103aa800940290000404200004826200e00f520097
:103ab800050032001e027800445a9000be029000b1
:103ac800844a780003003700be02900094c1b30016
:103ad800844a78002e4290000482fb0004003700dc
:103ae800be02900044c1b300844a7800140020004c
:103af800040078000080fa00000006000400fa00c4
:103b0800000f780021479800324798002e42900015
:103b1800e14f420012003a003e429000e04f52004e
:103b28000f003a00840620009e027800848f52001d
:103b380004003a00e2f80700660da9000042eb0015
:103b480008003700b40620009e027800848f5200d7
:103b580003003a00660da8000042eb0001003700a0
:103b680034c0b300044078000080fa00000006006a
:103b78000a00fa0020479800314798002207980069
:103b8800340798004507980035d220009542780000
:103b98002e42900084cf52000200320064c0b3006d
:103ba8003d003700b568800004f020008482620080
:103bb80004402000848f52000200320014c0b30079
:103bc800350037003e4090004401070000027800ad
:103bd800040f78001e027800e00f52002d0032001a
:103be8001e027800d40a900004302000048262008b
:103bf800e00f520002003a0084c1b30026003700eb
:103c08001e027800245a9000e04f520002003d0046
:103c180054c1b300200037001e02780094029000bf
:103c28000402200004826200e00f52000200320009
:103c380014c1b300180037001e02780094029000e7
:103c48000404200004826200e00f520002003200e7
:103c580024c1b300100037001e02780094029000bf
:103c68000420200004826200e00f520002003a00a3
:103c780004c1b300080037003e0290000401780038
:103c8800ae0090001e007800be0907000042eb005d
:103c98000100370044c1b300044078000080fa00f6
:103ca800000006000000fa009568800015029000e8
:103cb8000460a100940298009568800015029000a5
:103cc8000450a10094029800d4d020001442780037
:103cd8000442e900044078000dedb700d4d020007c
:103ce80014427800e04f520005003200b5688000a9
:103cf80004ff2f0004826200b468880011003700b6
:103d0800e4d02000144278000442e900044078001e
:103d18000eedb700e4d0200014427800e04f5200c6
:103d28000300320004112000b46888000500370041
:103d380074c0b3000440780024edb700045020009c
:103d4800b46888000080fa00000006001200fa003b
:103d5800404f9800514f9800624f9800030f980009
:103d6800646c8000140798000002eb00040f7800d0
:103d78004e0037001e0278004322dd00e6024200b2
:103d880064d7200004824200140278000402d100a3
:103d980061426200e14f520043003a001e0278007f
:103da800c322dd0064d720000482420094427800d8
:103db8004e4a900084cf52003b003a001e02780021
:103dc800c322dd0064d720000482420094429000a0
:103dd8005e4a900084cf520033003a001e027800f9
:103de8004322dd008482e80064d720000482420078
:103df800944278006e4a900084cf52002a003a001c
:103e08009e029000054a90000483fb00154a90002a
:103e18000482fb004822dd00060272002407980095
:103e28009e029000254a90000483fb00354a9000ca
:103e38000482fb004822dd00060272003407980065
:103e48004e4a9000044f98005e4a9000144f980024
:103e58006e4a9000244f98006403470084002000b5
:103e680005002000060178009107200000c0eb0043
:103e7800221b070000027800e00f52000a003a00f7
:103e88001e0278004322dd00e402420064d72000cd
:103e980004824200144290008e0a9000844a7800fe
:103ea80014002000050037001e0fe8001e027800ed
:103eb800e00f5200afff34000002eb00040078006e
:103ec8000080fa00000006000400fa00646c80001c
:103ed800140798000002eb00040f78002ecda9000b
:103ee800770037001e0278004322dd00e602420018
:103ef80064d7200004824200140278000402d10032
:103f080061426200e04f52001e0032001e0278003b
:103f1800c322dd0064d72000048242009442780066
:103f28001e0290004442900084cf520042003a00a2
:103f38001e027800c322dd0064d7200004824200fc
:103f4800944290001e0290005442900084cf520088
:103f580039003a001e0278004322dd008482e8001e
:103f680064d7200004824200944278001e02900028
:103f78006442900084cf52002f003a002ecda80052
:103f88002d0037001e027800c322dd0064d7200010
:103f980004824200140378009e029000054a9000b3
:103fa8008483fb00154a90000482fb004822dd0050
:103fb80007027200840f53000f003a001e027800b7
:103fc8004322dd008482e80064d720000482420096
:103fd800140378009e029000254a90008483fb0019
:103fe800354a90000482fb004822dd000702720077
:103ff800840f53000f0032001e027800c322dd0038
:1040080064d720000482420014027800e10f4200c5
:1040180009003a001e0278004322dd008482e8008d
:1040280064d720000482420014027800e10f4200a5
:1040380001003a002ecda800756980000404200014
:1040480004826200e00f52001c0032001e02780059
:104058004322dd00e402420064d7200004824200cb
:10406800144290000440780025edb7001e02780045
:104078004322dd00e602420064d7200004824200a9
:10408800140278004222de0061426200e04f5200d2
:10409800080032001e0278004322dd00e4024200dc
:1040a80064d720000482420014427800044078005b
:1040b80020edb70014002000050037001e0fe800af
:1040c8001e027800e00f520086ff32000002eb006b
:1040d800040078000080fa00000006000600fa00dc
:1040e800404798004e429000e04f520002003a00cc
:1040f800646980001f003700546980001407980025
:10410800180037001e02900024029000e00f5200b1
:10411800110032001e02900024029000a4029000b8
:10412800050f7800090037001e027800a45a900095
:104138004e42900084cf520002003a001e027800de
:104148000c0037001e027800140f78001e02780059
:10415800e00f5200f4ff3a001e029000940278002b
:10416800150798001e029000e00f5200e5ff3a0084
:104178000002eb00040078000080fa00000006004e
:104188002200fa000002eb00040f7800b4688000f7
:10419800d468800070026200e00f5200a5063a0061
:1041a800d468800061026200e00f520056023a00b3
:1041b8000040eb00a406070000027800e00f520060
:1041c8005002320094688000045a90008482fb00f8
:1041d800040f20000482620005022000850f5200af
:1041e800bc00320005032000850f5200790132001f
:1041f800f00f520037023a0094688000045a900089
:104208000482fb006f026200cfa2de00f6002000ed
:1042180007002000860f5200878f5a00a9003e0031
:10422800046001000f0037001b0037002d00370025
:10423800a4003700a3003700a2003700a100370010
:10424800a00037009f0037009e0037009d00370010
:104258009c0037009b0037009a0037009900370010
:104268005d003700956880001502900004b0a10039
:1042780094029800d0c0b300630b070094688000d4
:10428800245a9000d1c0b300044078002f0b0700d7
:104298001a0da8006a0637009668800094688000a6
:1042a800940a9000040a900054039800650398004b
:1042b800956880001502900004b0a0009402980050
:1042c80090c0b300500b070094688000245a9000f7
:1042d80091c0b300044078001c0b07001a0da80019
:1042e80057063700956880000042eb00845a980012
:1042f80095688000150290000490a0009402980030
:10430800a4698000e30f52002f003c00a4698000dc
:104318000402e800a469880084698000e20f520062
:1043280004003c00846980000402e8008469880075
:10433800020037000002eb0084698800846980006d
:104348006c22b9008402780064d320000482420001
:10435800140798001e02900025072000050a78001f
:1043680094688000940a9000040a90001e0390004c
:10437800140398002503980094688000b40a9000fc
:104388001e029000350298009e0290000042eb0049
:10439800944a980094688000245a90009e029000e5
:1043a800844a980094688000345a90009e029000d5
:1043b800a44a980094688000145a90009e029000c5
:1043c800b44a9800030037009568800084c0b300a1
:1043d800b45a98003e003700956880000042eb0010
:1043e800845a980095688000150290000490a000f7
:1043f80094029800a4698000e30f52002d003c004d
:10440800a46980000402e800a46988008469800027
:10441800e20f520004003c00846980000402e800b6
:1044280084698800020037000002eb008469880074
:10443800846980006c22b9008402780064d320006b
:1044480004824200240798002e029000f5ff2700fe
:10445800050a78002e0390006022b8001403980023
:10446800250398002e0290008002eb003502980088
:1044780094688000445a9000ae029000944a9800d4
:1044880094688000245a9000ae029000844a9800f4
:1044980094688000345a9000ae029000a44a9800b4
:1044a80094688000145a9000ae029000b44a9800b4
:1044b800030037009568800084c0b300b45a9800a0
:1044c8000300370014002000040f780000000000eb
:1044d8008201370094688000045a90000482fb002f
:1044e8006f026200cfa2de00f60020000700200065
:1044f800860f5200878f5a00b2003e000460010008
:104508000f0037001b003700230037003500370045
:10451800ac003700ab003700aa003700a90037000d
:10452800a8003700a7003700a6003700a50037000d
:10453800a4003700a3003700a20037006600370048
:10454800956880001502900004b0a10094029800bc
:10455800d0c0b300ac0a070094688000245a9000c9
:10456800d1c0b30004407800780a07001a0da800eb
:10457800b305370090c0b300a30a07009468800011
:10458800245a900091c0b300044078006f0a0700d5
:104598001a0da800aa053700966880009468800064
:1045a800940a9000040a9000540398006503980048
:1045b800956880001502900004b0a000940298004d
:1045c80010c0b300900a070094688000245a900035
:1045d80011c0b300044078005c0a07001a0da80057
:1045e80097053700956880000042eb00845a9800d0
:1045f80095688000150290000490a000940298002d
:10460800a4698000e30f52002f003c00a4698000d9
:104618000402e800a469880084698000e20f52005f
:1046280004003c00846980000402e8008469880072
:10463800020037000002eb0084698800846980006a
:104648006c22b9008402780064d3200004824200fe
:10465800340798003e02900025072000050a7800dc
:1046680094688000940a9000040a90003e03900029
:10467800140398002503980094688000b40a9000f9
:104688003e02900035029800be0290000042eb0006
:10469800944a980094688000245a9000be029000c2
:1046a800844a980094688000345a9000be029000b2
:1046b800a44a980094688000145a9000be029000a2
:1046c800b44a9800030037009568800084c0b3009e
:1046d800b45a98003e003700956880000042eb000d
:1046e800845a980095688000150290000490a000f4
:1046f80094029800a4698000e30f52002d003c004a
:10470800a46980000402e800a46988008469800024
:10471800e20f520004003c00846980000402e800b3
:1047280084698800020037000002eb008469880071
:10473800846980006c22b9008402780064d3200068
:1047480004824200440798004e029000f5ff2700bb
:10475800050a78004e0390006022b8001403980000
:10476800250398004e0290008002eb003502980065
:1047780094688000445a9000ce029000944a9800b1
:1047880094688000245a9000ce029000844a9800d1
:1047980094688000345a9000ce029000a44a980091
:1047a80094688000145a9000ce029000b44a980091
:1047b800030037009568800084c0b300b45a98009d
:1047c8000300370014002000040f780000000000e8
:1047d800c200370094688000045a90000482fb00ed
:1047e8006f026200cfa2de00f60020000700200062
:1047f800860f5200878f5a00b2003e000460010005
:104808000f0037001b003700230037003500370042
:10481800ac003700ab003700aa003700a90037000a
:10482800a8003700a7003700a6003700a50037000a
:10483800a4003700a3003700a20037006600370045
:10484800956880001502900004b0a10094029800b9
:10485800d0c0b300ec09070094688000245a900087
:10486800d1c0b30004407800b80907001a0da800a9
:10487800f304370010c0b300e30907009468800010
:10488800245a900011c0b30004407800af09070013
:104898001a0da800ea043700966880009468800022
:1048a800940a9000040a9000540398006503980045
:1048b800956880001502900004b0a000940298004a
:1048c80090c0b300d009070094688000245a900073
:1048d80091c0b300044078009c0907001a0da80095
:1048e800d7043700956880000042eb00845a98008e
:1048f80095688000150290000490a000940298002a
:10490800a4698000e30f52002f003c00a4698000d6
:104918000402e800a469880084698000e20f52005c
:1049280004003c00846980000402e800846988006f
:10493800020037000002eb00846988008469800067
:104948006c22b9008402780064d3200004824200fb
:10495800540798005e02900025072000050a780099
:1049680094688000940a9000040a90005e03900006
:10497800140398002503980094688000b40a9000f6
:104988005e02900035029800de0290000042eb00c3
:10499800944a980094688000245a9000de0290009f
:1049a800844a980094688000345a9000de0290008f
:1049b800a44a980094688000145a9000de0290007f
:1049c800b44a9800030037009568800084c0b3009b
:1049d800b45a98003e003700956880000042eb000a
:1049e800845a980095688000150290000490a000f1
:1049f80094029800a4698000e30f52002d003c0047
:104a0800a46980000402e800a46988008469800021
:104a1800e20f520004003c00846980000402e800b0
:104a280084698800020037000002eb00846988006e
:104a3800846980006c22b9008402780064d3200065
:104a480004824200640798006e029000f5ff270078
:104a5800050a78006e0390006022b80014039800dd
:104a6800250398006e0290008002eb003502980042
:104a780094688000445a9000ee029000944a98008e
:104a880094688000245a9000ee029000844a9800ae
:104a980094688000345a9000ee029000a44a98006e
:104aa80094688000145a9000ee029000b44a98006e
:104ab800030037009568800084c0b300b45a98009a
:104ac8000300370014002000040f780000000000e5
:104ad8000200370014002000040f78001e0278003e
:104ae800e00f520007003200956880000042eb009a
:104af800845a980095688000150290000490a000e0
:104b0800940298001a0da800d4688000640262001c
:104b1800e00f5200ae013a0010c0b3004a0407008b
:104b280000027800e00f5200a8013200946880006b
:104b3800045a90008482fb00040f20000482620063
:104b480005062000850f52000400320005072000ea
:104b5800850f5200d70032008f013700946880001b
:104b6800045a90000482fb006f026200e10f5200b9
:104b780039003200ef0f520097003200e00f520068
:104b8800c8003a009468800034029000e00f520098
:104b980030003a009468800095688000a502900073
:104ba8003502980094688000340a90000403780065
:104bb80094688000340a9000144290000482fb003c
:104bc8006622b900040278006a02420066027a008e
:104bd80061426200e04f52001e003a009468800073
:104be800340a90000403780094688000340a900026
:104bf800144290000482fb006622b9000402780087
:104c080004024300ea024200150278000400a100f1
:104c1800840a7800966880006022b800040b980027
:104c2800150b9800956880001502900004b0a1004b
:104c38009402980090c0b300f308070094688000bd
:104c4800245a900091c0b30004407800bf080700c0
:104c5800fb033700960037009568800004c6b30050
:104c6800845a980094688000340a9000840378007d
:104c780094688000340a9000144290000480fb007d
:104c880094688000940a9000040a90000403780055
:104c98006602b900040278000482430068024200f8
:104ca800060a780094688000340a900004037800ab
:104cb80094688000340a9000144290000482fb003b
:104cc8006622b9000402780004024300ea024200a6
:104cd800150278000400a000840a78009468800017
:104ce800145a90000482fb006a22b900040278007a
:104cf800e4024200c4d620000482420094017800f5
:104d080094688000940a9000040a900096688000d5
:104d1800360b90000600780096688000360b9000ed
:104d2800164390000683fb000603e8006633b900cb
:104d380006037800e0037b0036d220001643780093
:104d48000701780071072000064078000300010081
:104d580094688000340a9000040378009468800006
:104d6800340a9000144290000482fb006622b900c5
:104d78000402780004024300ea02420015027800a7
:104d88000400a100840a780094688000340a900026
:104d980084027800154290000442e800944298008a
:104da80094688000340a90009442900094688000cf
:104db800340a90001442780084cf5200050039006c
:104dc80094688000340a9000840278000042eb0066
:104dd80094429800360037009568800004c6b300f6
:104de800845a9800a4698000e30f520029003c000f
:104df800a46980000402e800a4698800846980002e
:104e0800e20f520004003c00846980000402e800bc
:104e180084698800020037000002eb00846988007a
:104e2800846980006c22b9008402780064d3200071
:104e380004824200740798007e029000f5ff270064
:104e4800050a78007e0390006022b80014039800d9
:104e5800250398007e0290008002eb00350298003e
:104e680094688000245a9000fe029000844a9800ba
:104e780094688000445a9000fe029000944a98007a
:104e880094688000345a9000fe029000a44a98006a
:104e9800030037009568800084c0b300b45a9800b6
:104ea8000300370014002000040f78000000000001
:104eb800bc00370094688000045a90000482fb000c
:104ec8006f026200e10f520036003200ef0f52000d
:104ed80076003200e00f5200ab003a009468800080
:104ee80034029000e00f52002d003a0094688000d0
:104ef80095688000a50290003502980094688000ab
:104f0800340a90000403780094688000340a900002
:104f1800144290000482fb006622b9000402780063
:104f28006a02420066027a0061426200e04f520063
:104f38001b0032009668800094688000340a900054
:104f48008403780094688000340a9000144290002a
:104f58000482fb006622b90004027800680242005d
:104f680067027a0005002000040b9800150b9800d2
:104f7800956880001502900004b0a1009402980082
:104f880010c0b3002008070094688000245a9000dd
:104f980011c0b30004407800ec070700280337006d
:104fa8007c0037009568800004c7b300845a9800d5
:104fb80094688000340a90000403780094688000a4
:104fc800340a9000144290000482fb006622b90063
:104fd8000402780004024300ea0242001502780045
:104fe8000400a100840a780094688000145a900094
:104ff8000482fb006a22b90004027800e40242003d
:10500800c4d620000482420094017800946880008d
:10501800940a9000040a900096688000360b90006d
:105028000600780096688000360b900016439000c2
:105038000683fb000603e8006633b9000603780020
:10504800e0037b0036d22000164378000701780081
:105058008107200006407800030001009468800062
:10506800340a900084027800154290000442e80057
:105078009442980094688000340a9000944290000a
:1050880094688000340a90001442780084cf52005b
:105098000500390094688000340a90008402780082
:1050a8000042eb00944298003a003700956880006f
:1050b80004c7b300845a9800a4698000e30f520023
:1050c8002d003c00a46980000402e800a46988005f
:1050d80084698000e20f520004003c00846980006b
:1050e8000402e80084698800020037000002eb002f
:1050f80084698800846980006c22b9008402780081
:1051080064d3200004824200040f98000e0a900025
:10511800f5ff2700050a78000e0b90006022b80002
:1051280014039800250398000e0a90008002eb00f3
:105138003502980094688000445a90008e0a9000c6
:10514800944a980094688000245a90008e0a90002f
:10515800844a980094688000345a90008e0a90001f
:10516800a44a980094688000145a90008e0a90000f
:10517800b44a9800030037009568800084c0b300e3
:10518800b45a98000300370014002000040f780078
:10519800000000000300370014002000040f78000e
:1051a800000000001e027800e00f520007003200e5
:1051b800956880000042eb00845a9800956880004a
:1051c800150290000490a000940298001a4da800bf
:1051d800d468800062026200e00f52004d013a007c
:1051e80030c0b3009802070000027800e00f5200b8
:1051f8004701320094688000045a90008482fb00c2
:10520800040f20000482620005042000850f52006c
:105218000400320005052000850f52009800320076
:105228002e01370094688000045a90000482fb0025
:105238006f026200e10f520015003200ef0f5200ba
:1052480050003200e00f520089003a009468800054
:1052580034029000e00f52000c003a00946880007d
:1052680095688000a50290003502980090c0b300b0
:105278006507070094688000245a900091c0b30025
:1052880004407800310707006d0237007b003700c3
:10529800956880000042eb00845a98009568800069
:1052a800150290000490a00094029800a469800060
:1052b800e30f52002f003c00a46980000402e800bc
:1052c800a469880084698000e20f520004003c0051
:1052d800846980000402e8008469880002003700bd
:1052e8000002eb0084698800846980006c22b900a0
:1052f8008402780064d3200004824200140f9800ce
:105308001e0a900025072000050a7800946880008e
:10531800940a9000040a90001e0b90001403980051
:105328002503980094688000b40a90001e0a900033
:10533800350298009e0a90000042eb00944a9800bb
:1053480094688000245a90009e0a9000844a98002d
:1053580094688000345a90009e0a9000a44a9800ed
:1053680094688000145a90009e0a9000b44a9800ed
:10537800030037009568800084c0b300b45a9800d1
:105388003e003700956880000042eb00845a980080
:1053980095688000150290000490a000940298007f
:1053a800a4698000e30f52002d003c00a46980002e
:1053b8000402e800a469880084698000e20f5200b2
:1053c80004003c00846980000402e80084698800c5
:1053d800020037000002eb008469880084698000bd
:1053e8006c22b9008402780064d320000482420051
:1053f800240f98002e0a9000f5ff2700050a780070
:105408002e0b90006022b800140398002503980022
:105418002e0a90008002eb00350298009468800004
:10542800445a9000ae0a9000944a9800946880000c
:10543800245a9000ae0a9000844a9800946880002c
:10544800345a9000ae0a9000a44a980094688000ec
:10545800145a9000ae0a9000b44a9800030037002e
:105468009568800084c0b300b45a980003003700e0
:1054780014002000040f7800000000009a00370094
:1054880094688000045a90000482fb006f02620056
:10549800e10f520015003200ef0f520050003200a9
:1054a800e00f520089003a009468800034029000ae
:1054b800e00f52000c003a00946880009568800064
:1054c800a50290003502980010c0b300ce06070070
:1054d80094688000245a900011c0b30004407800fa
:1054e8009a060700d60137007b00370095688000d0
:1054f8000042eb00845a98009568800015029000dd
:105508000490a00094029800a4698000e30f520060
:105518002f003c00a46980000402e800a469880008
:1055280084698000e20f520004003c008469800016
:105538000402e80084698800020037000002eb00da
:1055480084698800846980006c22b900840278002c
:1055580064d3200004824200340f98003e0a900071
:1055680025072000050a780094688000940a9000b6
:10557800040a90003e0b900014039800250398003d
:1055880094688000b40a90003e0a900035029800a2
:10559800be0a90000042eb00944a9800946880008c
:1055a800245a9000be0a9000844a980094688000ab
:1055b800345a9000be0a9000a44a9800946880006b
:1055c800145a9000be0a9000b44a980003003700ad
:1055d8009568800084c0b300b45a98003e00370034
:1055e800956880000042eb00845a98009568800016
:1055f800150290000490a00094029800a46980000d
:10560800e30f52002d003c00a46980000402e8006a
:10561800a469880084698000e20f520004003c00fd
:10562800846980000402e800846988000200370069
:105638000002eb0084698800846980006c22b9004c
:105648008402780064d3200004824200440f98004a
:105658004e0a9000f5ff2700050a78004e0b9000cf
:105668006022b80014039800250398004e0a9000a1
:105678008002eb003502980094688000445a90003c
:10568800ce0a9000944a980094688000245a9000aa
:10569800ce0a9000844a980094688000345a90009a
:1056a800ce0a9000a44a980094688000145a90008a
:1056b800ce0a9000b44a980003003700956880002d
:1056c80084c0b300b45a98000300370014002000c7
:1056d800040f7800000000000300370014002000c9
:1056e800040f7800000000001e027800e00f52004e
:1056f8000700320095688000150290000490a00011
:1057080094029800956880000042eb00845a980043
:105718001a2da800d468800068026200e00f5200c9
:1057280046013a0020c0b300470107000002780094
:10573800e00f52003501320094688000045a90004e
:105748008482fb00040f2000048262000508200008
:10575800850f52000400320005092000850f520011
:105768008f0032001c01370094688000045a9000b2
:105778000482fb006f026200e10f52000c0032004d
:10578800ef0f520047003200e00f520080003a004d
:1057980090c0b3001c06070094688000245a90004b
:1057a80091c0b30004407800e805070024013700e1
:1057b800956880000042eb00845a98009568800044
:1057c800150290000490a00094029800a46980003b
:1057d800e30f52002f003c00a46980000402e80097
:1057e800a469880084698000e20f520004003c002c
:1057f800846980000402e800846988000200370098
:105808000002eb0084698800846980006c22b9007a
:105818008402780064d3200004824200540f980068
:105828005e0a900025072000050a78009468800029
:10583800940a9000040a90005e0b900014039800ec
:105848002503980094688000b40a90005e0a9000ce
:1058580035029800de0a90000042eb00944a980056
:1058680094688000245a9000de0a9000844a9800c8
:1058780094688000345a9000de0a9000a44a980088
:1058880094688000145a9000de0a9000b44a980088
:10589800030037009568800084c0b300b45a9800ac
:1058a8003e003700956880000042eb00845a98005b
:1058b80095688000150290000490a000940298005a
:1058c800a4698000e30f52002d003c00a469800009
:1058d8000402e800a469880084698000e20f52008d
:1058e80004003c00846980000402e80084698800a0
:1058f800020037000002eb00846988008469800098
:105908006c22b9008402780064d32000048242002b
:10591800640f98006e0a9000f5ff2700050a7800ca
:105928006e0b90006022b8001403980025039800bd
:105938006e0a90008002eb0035029800946880009f
:10594800445a9000ee0a9000944a980094688000a7
:10595800245a9000ee0a9000844a980094688000c7
:10596800345a9000ee0a9000a44a98009468800087
:10597800145a9000ee0a9000b44a980003003700c9
:105988009568800084c0b300b45a980003003700bb
:1059980014002000040f7800000000009100370078
:1059a80094688000045a90000482fb006f02620031
:1059b800e10f52000c003200ef0f52004700320096
:1059c800e00f520080003a0010c0b3008e050700b7
:1059d80094688000245a900011c0b30004407800f5
:1059e8005a05070096003700956880000042eb00d2
:1059f800845a980095688000150290000490a000d1
:105a080094029800a4698000e30f52002f003c0024
:105a1800a46980000402e800a46988008469800001
:105a2800e20f520004003c00846980000402e80090
:105a380084698800020037000002eb00846988004e
:105a4800846980006c22b9008402780064d3200045
:105a580004824200740f98007e0a900025072000f7
:105a6800050a780094688000940a9000040a90005f
:105a78007e0b90001403980025039800946880001a
:105a8800b40a90007e0a900035029800fe0a900041
:105a98000042eb00944a980094688000245a9000d1
:105aa800fe0a9000844a980094688000345a900056
